{
  "transactions": [
    {
      "hash": "0x9ff21b2ba541259c88eff4d94a1e3395476a77a23cb401e67c928f5eac787d7d",
      "transactionType": "CALL",
      "contractName": null,
      "contractAddress": "0x8ee7e00790c18f28b65bc4771f2a8273d88f2a54",
      "function": "setEnforcedOptions((uint32,uint16,bytes)[])",
      "arguments": [
        "[(40161, 1, 0x00030100110100000000000000000000000000030d40), (40161, 2, 0x0003010011010000000000000000000000000003d090)]"
      ],
      "transaction": {
        "from": "0x0990be6db8c785fbbf9ded8baec612a10cae814b",
        "to": "0x8ee7e00790c18f28b65bc4771f2a8273d88f2a54",
        "gas": "0x1f5d4",
        "value": "0x0",
        "input": "0xb98bd07000000000000000000000000000000000000000000000000000000000000000200000000000000000000000000000000000000000000000000000000000000002000000000000000000000000000000000000000000000000000000000000004000000000000000000000000000000000000000000000000000000000000000e00000000000000000000000000000000000000000000000000000000000009ce100000000000000000000000000000000000000000000000000000000000000010000000000000000000000000000000000000000000000000000000000000060000000000000000000000000000000000000000000000000000000000000001600030100110100000000000000000000000000030d40000000000000000000000000000000000000000000000000000000000000000000000000000000009ce10000000000000000000000000000000000000000000000000000000000000002000000000000000000000000000000000000000000000000000000000000006000000000000000000000000000000000000000000000000000000000000000160003010011010000000000000000000000000003d09000000000000000000000",
        "nonce": "0x13",
        "chainId": "0xa5bd",
        "feeToken": null,
        "calls": [],
        "keyType": null,
        "keyData": null
      },
      "additionalContracts": [],
      "isFixedGasLimit": false
    },
    {
      "hash": "0xfa55d4f43bbebcaa5d439002e8c8ea74d91df6b15b2dee876bc4012c4cb37bbf",
      "transactionType": "CALL",
      "contractName": null,
      "contractAddress": "0x8ee7e00790c18f28b65bc4771f2a8273d88f2a54",
      "function": "setPeer(uint32,bytes32)",
      "arguments": [
        "40161",
        "0x00000000000000000000000029a5134d3b22f47ad52e0a22a63247363e9f35c2"
      ],
      "transaction": {
        "from": "0x0990be6db8c785fbbf9ded8baec612a10cae814b",
        "to": "0x8ee7e00790c18f28b65bc4771f2a8273d88f2a54",
        "gas": "0x139e4",
        "value": "0x0",
        "input": "0x3400288b0000000000000000000000000000000000000000000000000000000000009ce100000000000000000000000029a5134d3b22f47ad52e0a22a63247363e9f35c2",
        "nonce": "0x14",
        "chainId": "0xa5bd",
        "feeToken": null,
        "calls": [],
        "keyType": null,
        "keyData": null
      },
      "additionalContracts": [],
      "isFixedGasLimit": false
    },
    {
      "hash": "0x2889d4985c6d11156a297d983a9e8946df47895c4fe573c99f520daabdef9db3",
      "transactionType": "CALL",
      "contractName": null,
      "contractAddress": "0x50c21fe63c28191ccdc167961992a63e14393565",
      "function": "setSendLibrary(address,uint32,address)",
      "arguments": [
        "0x8Ee7E00790c18f28B65BC4771F2a8273D88f2A54",
        "40161",
        "0xB8CFaA12Bf058492Ed6F9c746d1DaCf9356076Bc"
      ],
      "transaction": {
        "from": "0x0990be6db8c785fbbf9ded8baec612a10cae814b",
        "to": "0x50c21fe63c28191ccdc167961992a63e14393565",
        "gas": "0x1378b",
        "value": "0x0",
        "input": "0x9535ff300000000000000000000000008ee7e00790c18f28b65bc4771f2a8273d88f2a540000000000000000000000000000000000000000000000000000000000009ce1000000000000000000000000b8cfaa12bf058492ed6f9c746d1dacf9356076bc",
        "nonce": "0x15",
        "chainId": "0xa5bd",
        "feeToken": null,
        "calls": [],
        "keyType": null,
        "keyData": null
      },
      "additionalContracts": [],
      "isFixedGasLimit": false
    },
    {
      "hash": "0xbb1c3df946f6eadc63bd796eb6d15f49c53d885839ed1c2ae788f7687d2ee818",
      "transactionType": "CALL",
      "contractName": null,
      "contractAddress": "0x50c21fe63c28191ccdc167961992a63e14393565",
      "function": "setReceiveLibrary(address,uint32,address,uint256)",
      "arguments": [
        "0x8Ee7E00790c18f28B65BC4771F2a8273D88f2A54",
        "40161",
        "0x417cb9E12cfe7301c8b6ef8f63ffac55263e147C",
        "0"
      ],
      "transaction": {
        "from": "0x0990be6db8c785fbbf9ded8baec612a10cae814b",
        "to": "0x50c21fe63c28191ccdc167961992a63e14393565",
        "gas": "0x17001",
        "value": "0x0",
        "input": "0x6a14d7150000000000000000000000008ee7e00790c18f28b65bc4771f2a8273d88f2a540000000000000000000000000000000000000000000000000000000000009ce1000000000000000000000000417cb9e12cfe7301c8b6ef8f63ffac55263e147c0000000000000000000000000000000000000000000000000000000000000000",
        "nonce": "0x16",
        "chainId": "0xa5bd",
        "feeToken": null,
        "calls": [],
        "keyType": null,
        "keyData": null
      },
      "additionalContracts": [],
      "isFixedGasLimit": false
    },
    {
      "hash": "0xbc0926ac39f554860fabc96de086689a5159520b85442095753c998bcaf1bcf3",
      "transactionType": "CALL",
      "contractName": null,
      "contractAddress": "0x8ee7e00790c18f28b65bc4771f2a8273d88f2a54",
      "function": "setDelegate(address)",
      "arguments": [
        "0x0990be6dB8c785FBbF9deD8bAEc612A10CaE814b"
      ],
      "transaction": {
        "from": "0x0990be6db8c785fbbf9ded8baec612a10cae814b",
        "to": "0x8ee7e00790c18f28b65bc4771f2a8273d88f2a54",
        "gas": "0xce47",
        "value": "0x0",
        "input": "0xca5eb5e10000000000000000000000000990be6db8c785fbbf9ded8baec612a10cae814b",
        "nonce": "0x17",
        "chainId": "0xa5bd",
        "feeToken": null,
        "calls": [],
        "keyType": null,
        "keyData": null
      },
      "additionalContracts": [],
      "isFixedGasLimit": false
    },
    {
      "hash": "0xabb8c081ae1f2bc7d1147eeeef121978f7935faf462c13fbb761d4837c2aad78",
      "transactionType": "CALL",
      "contractName": null,
      "contractAddress": "0x8ee7e00790c18f28b65bc4771f2a8273d88f2a54",
      "function": "transferOwnership(address)",
      "arguments": [
        "0x0990be6dB8c785FBbF9deD8bAEc612A10CaE814b"
      ],
      "transaction": {
        "from": "0x0990be6db8c785fbbf9ded8baec612a10cae814b",
        "to": "0x8ee7e00790c18f28b65bc4771f2a8273d88f2a54",
        "gas": "0xb2a6",
        "value": "0x0",
        "input": "0xf2fde38b0000000000000000000000000990be6db8c785fbbf9ded8baec612a10cae814b",
        "nonce": "0x18",
        "chainId": "0xa5bd",
        "feeToken": null,
        "calls": [],
        "keyType": null,
        "keyData": null
      },
      "additionalContracts": [],
      "isFixedGasLimit": false
    },
    {
      "hash": "0x0811a363d512f07c009832cd954b6c8999cc6f0f1a7566e6bb75099287365f00",
      "transactionType": "CALL",
      "contractName": null,
      "contractAddress": "0x223a681fc5c5522c85c96157c0efa18cd6c5405c",
      "function": "transferOwnership(address)",
      "arguments": [
        "0x0990be6dB8c785FBbF9deD8bAEc612A10CaE814b"
      ],
      "transaction": {
        "from": "0x0990be6db8c785fbbf9ded8baec612a10cae814b",
        "to": "0x223a681fc5c5522c85c96157c0efa18cd6c5405c",
        "gas": "0x8b32",
        "value": "0x0",
        "input": "0xf2fde38b0000000000000000000000000990be6db8c785fbbf9ded8baec612a10cae814b",
        "nonce": "0x19",
        "chainId": "0xa5bd",
        "feeToken": null,
        "calls": [],
        "keyType": null,
        "keyData": null
      },
      "additionalContracts": [],
      "isFixedGasLimit": false
    }
  ],
  "receipts": [
    {
      "type": "0x2",
      "status": "0x1",
      "cumulativeGasUsed": "0x19b9ad",
      "logs": [
        {
          "address": "0x8ee7e00790c18f28b65bc4771f2a8273d88f2a54",
          "topics": [
            "0xbe4864a8e820971c0247f5992e2da559595f7bf076a21cb5928d443d2a13b674"
          ],
          "data": "0x00000000000000000000000000000000000000000000000000000000000000200000000000000000000000000000000000000000000000000000000000000002000000000000000000000000000000000000000000000000000000000000004000000000000000000000000000000000000000000000000000000000000000e00000000000000000000000000000000000000000000000000000000000009ce100000000000000000000000000000000000000000000000000000000000000010000000000000000000000000000000000000000000000000000000000000060000000000000000000000000000000000000000000000000000000000000001600030100110100000000000000000000000000030d40000000000000000000000000000000000000000000000000000000000000000000000000000000009ce10000000000000000000000000000000000000000000000000000000000000002000000000000000000000000000000000000000000000000000000000000006000000000000000000000000000000000000000000000000000000000000000160003010011010000000000000000000000000003d09000000000000000000000",
          "blockHash": "0xa2860b10b0ae1a48c962e36b94182fa5757351ae637f02c9046627016b66d538",
          "blockNumber": "0xa26d54",
          "blockTimestamp": "0x6969d218",
          "transactionHash": "0x9ff21b2ba541259c88eff4d94a1e3395476a77a23cb401e67c928f5eac787d7d",
          "transactionIndex": "0x14",
          "logIndex": "0x27",
          "removed": false
        },
        {
          "address": "0x20c0000000000000000000000000000000000000",
          "topics": [
            "0xddf252ad1be2c89b69c2b068fc378daa952ba7f163c4a11628f55a4df523b3ef",
            "0x0000000000000000000000000990be6db8c785fbbf9ded8baec612a10cae814b",
            "0x000000000000000000000000feec000000000000000000000000000000000000"
          ],
          "data": "0x000000000000000000000000000000000000000000000000000000000000036f",
          "blockHash": "0xa2860b10b0ae1a48c962e36b94182fa5757351ae637f02c9046627016b66d538",
          "blockNumber": "0xa26d54",
          "blockTimestamp": "0x6969d218",
          "transactionHash": "0x9ff21b2ba541259c88eff4d94a1e3395476a77a23cb401e67c928f5eac787d7d",
          "transactionIndex": "0x14",
          "logIndex": "0x28",
          "removed": false
        }
      ],
      "logsBloom": "0x00000000000000000000400000000000000000002000000010000000000000000000000000000000000000000100000000000000000000000000400000000000000004000000000000000008400000000000000000000000000000000400000000000000000000000000000000000000000000000000000000000010000000000000000000000000000000000020000000000000800000000000000000080000000020000000000000000000000000000000000000000000000000000000000000000002000000000000000002000000000000000000000000000000100000000000000000000000000000000000000000000000000000000000400000000000",
      "transactionHash": "0x9ff21b2ba541259c88eff4d94a1e3395476a77a23cb401e67c928f5eac787d7d",
      "transactionIndex": "0x14",
      "blockHash": "0xa2860b10b0ae1a48c962e36b94182fa5757351ae637f02c9046627016b66d538",
      "blockNumber": "0xa26d54",
      "gasUsed": "0x15722",
      "effectiveGasPrice": "0x2541727e9",
      "from": "0x0990be6db8c785fbbf9ded8baec612a10cae814b",
      "to": "0x8ee7e00790c18f28b65bc4771f2a8273d88f2a54",
      "contractAddress": null,
      "feeToken": "0x20c0000000000000000000000000000000000000",
      "feePayer": "0x0990be6db8c785fbbf9ded8baec612a10cae814b"
    },
    {
      "type": "0x2",
      "status": "0x1",
      "cumulativeGasUsed": "0x1a904e",
      "logs": [
        {
          "address": "0x8ee7e00790c18f28b65bc4771f2a8273d88f2a54",
          "topics": [
            "0x238399d427b947898edb290f5ff0f9109849b1c3ba196a42e35f00c50a54b98b"
          ],
          "data": "0x0000000000000000000000000000000000000000000000000000000000009ce100000000000000000000000029a5134d3b22f47ad52e0a22a63247363e9f35c2",
          "blockHash": "0xa2860b10b0ae1a48c962e36b94182fa5757351ae637f02c9046627016b66d538",
          "blockNumber": "0xa26d54",
          "blockTimestamp": "0x6969d218",
          "transactionHash": "0x0811a363d512f07c009832cd954b6c8999cc6f0f1a7566e6bb75099287365f00",
          "transactionIndex": "0x15",
          "logIndex": "0x29",
          "removed": false
        },
        {
          "address": "0x20c0000000000000000000000000000000000000",
          "topics": [
            "0xddf252ad1be2c89b69c2b068fc378daa952ba7f163c4a11628f55a4df523b3ef",
            "0x0000000000000000000000000990be6db8c785fbbf9ded8baec612a10cae814b",
            "0x000000000000000000000000feec000000000000000000000000000000000000"
          ],
          "data": "0x0000000000000000000000000000000000000000000000000000000000000226",
          "blockHash": "0xa2860b10b0ae1a48c962e36b94182fa5757351ae637f02c9046627016b66d538",
          "blockNumber": "0xa26d54",
          "blockTimestamp": "0x6969d218",
          "transactionHash": "0x0811a363d512f07c009832cd954b6c8999cc6f0f1a7566e6bb75099287365f00",
          "transactionIndex": "0x15",
          "logIndex": "0x2a",
          "removed": false
        }
      ],
      "logsBloom": "0x00000000000000000000400000000000000000002000000010000000000000000000000000000000000000000100000000000000000000000800000000000000000004000000000000000008400000000000000000000000000000000400000000000000000000000000000000000000000000000000000000000010000000000000000000000000000000000020000000000000800000000000000000000000000020000000000000000000000000000000000000000000000002000000000000000002000000000000000000000000000000000000000000040000100000000000000000000000000000000000000000000000000000000000400000000000",
      "transactionHash": "0x0811a363d512f07c009832cd954b6c8999cc6f0f1a7566e6bb75099287365f00",
      "transactionIndex": "0x15",
      "blockHash": "0xa2860b10b0ae1a48c962e36b94182fa5757351ae637f02c9046627016b66d538",
      "blockNumber": "0xa26d54",
      "gasUsed": "0xd6a1",
      "effectiveGasPrice": "0x2541727e9",
      "from": "0x0990be6db8c785fbbf9ded8baec612a10cae814b",
      "to": "0x8ee7e00790c18f28b65bc4771f2a8273d88f2a54",
      "contractAddress": null,
      "feeToken": "0x20c0000000000000000000000000000000000000",
      "feePayer": "0x0990be6db8c785fbbf9ded8baec612a10cae814b"
    },
    {
      "type": "0x2",
      "status": "0x1",
      "cumulativeGasUsed": "0x1b71dc",
      "logs": [
        {
          "address": "0x50c21fe63c28191ccdc167961992a63e14393565",
          "topics": [
            "0x4cff966ebee29a156dcb34cf72c1d06231fb1777f6bdf6e8089819232f002b1c"
          ],
          "data": "0x0000000000000000000000008ee7e00790c18f28b65bc4771f2a8273d88f2a540000000000000000000000000000000000000000000000000000000000009ce1000000000000000000000000b8cfaa12bf058492ed6f9c746d1dacf9356076bc",
          "blockHash": "0xa2860b10b0ae1a48c962e36b94182fa5757351ae637f02c9046627016b66d538",
          "blockNumber": "0xa26d54",
          "blockTimestamp": "0x6969d218",
          "transactionHash": "0x2889d4985c6d11156a297d983a9e8946df47895c4fe573c99f520daabdef9db3",
          "transactionIndex": "0x16",
          "logIndex": "0x2b",
          "removed": false
        },
        {
          "address": "0x20c0000000000000000000000000000000000000",
          "topics": [
            "0xddf252ad1be2c89b69c2b068fc378daa952ba7f163c4a11628f55a4df523b3ef",
            "0x0000000000000000000000000990be6db8c785fbbf9ded8baec612a10cae814b",
            "0x000000000000000000000000feec000000000000000000000000000000000000"
          ],
          "data": "0x0000000000000000000000000000000000000000000000000000000000000242",
          "blockHash": "0xa2860b10b0ae1a48c962e36b94182fa5757351ae637f02c9046627016b66d538",
          "blockNumber": "0xa26d54",
          "blockTimestamp": "0x6969d218",
          "transactionHash": "0x2889d4985c6d11156a297d983a9e8946df47895c4fe573c99f520daabdef9db3",
          "transactionIndex": "0x16",
          "logIndex": "0x2c",
          "removed": false
        }
      ],
      "logsBloom": "0x00000000000000000000000000000000000200002000000000000000000000000000000000000000000000000100000000000000000000000000000001000000000004000000000000000008400000000000000000000000000000000400000000000000000000000000000000000010000000000000000000000050000000004000000000000000000000000020000000000000800000000000000000000000000020000000000000000000000000000000000000000000000000000000000000000002000000000000000000000000000000000000000000000000000000000040000000000000000000000000000000000000000000000000400000000000",
      "transactionHash": "0x2889d4985c6d11156a297d983a9e8946df47895c4fe573c99f520daabdef9db3",
      "transactionIndex": "0x16",
      "blockHash": "0xa2860b10b0ae1a48c962e36b94182fa5757351ae637f02c9046627016b66d538",
      "blockNumber": "0xa26d54",
      "gasUsed": "0xe18e",
      "effectiveGasPrice": "0x2541727e9",
      "from": "0x0990be6db8c785fbbf9ded8baec612a10cae814b",
      "to": "0x50c21fe63c28191ccdc167961992a63e14393565",
      "contractAddress": null,
      "feeToken": "0x20c0000000000000000000000000000000000000",
      "feePayer": "0x0990be6db8c785fbbf9ded8baec612a10cae814b"
    },
    {
      "type": "0x2",
      "status": "0x1",
      "cumulativeGasUsed": "0x1c6d7d",
      "logs": [
        {
          "address": "0x50c21fe63c28191ccdc167961992a63e14393565",
          "topics": [
            "0xcd6f92f5ac6185a5acfa02c92090746cec64d777269cbcd0ed031e396657a1c2"
          ],
          "data": "0x0000000000000000000000008ee7e00790c18f28b65bc4771f2a8273d88f2a540000000000000000000000000000000000000000000000000000000000009ce1000000000000000000000000417cb9e12cfe7301c8b6ef8f63ffac55263e147c",
          "blockHash": "0xa2860b10b0ae1a48c962e36b94182fa5757351ae637f02c9046627016b66d538",
          "blockNumber": "0xa26d54",
          "blockTimestamp": "0x6969d218",
          "transactionHash": "0xfa55d4f43bbebcaa5d439002e8c8ea74d91df6b15b2dee876bc4012c4cb37bbf",
          "transactionIndex": "0x17",
          "logIndex": "0x2d",
          "removed": false
        },
        {
          "address": "0x50c21fe63c28191ccdc167961992a63e14393565",
          "topics": [
            "0x4e0a5bbfa0c11a64effb1ada324b5437a17272e1aed9320398715ef71bb20928"
          ],
          "data": "0x0000000000000000000000008ee7e00790c18f28b65bc4771f2a8273d88f2a540000000000000000000000000000000000000000000000000000000000009ce100000000000000000000000000000000000000000000000000000000000000000000000000000000000000000000000000000000000000000000000000000000",
          "blockHash": "0xa2860b10b0ae1a48c962e36b94182fa5757351ae637f02c9046627016b66d538",
          "blockNumber": "0xa26d54",
          "blockTimestamp": "0x6969d218",
          "transactionHash": "0xfa55d4f43bbebcaa5d439002e8c8ea74d91df6b15b2dee876bc4012c4cb37bbf",
          "transactionIndex": "0x17",
          "logIndex": "0x2e",
          "removed": false
        },
        {
          "address": "0x20c0000000000000000000000000000000000000",
          "topics": [
            "0xddf252ad1be2c89b69c2b068fc378daa952ba7f163c4a11628f55a4df523b3ef",
            "0x0000000000000000000000000990be6db8c785fbbf9ded8baec612a10cae814b",
            "0x000000000000000000000000feec000000000000000000000000000000000000"
          ],
          "data": "0x0000000000000000000000000000000000000000000000000000000000000285",
          "blockHash": "0xa2860b10b0ae1a48c962e36b94182fa5757351ae637f02c9046627016b66d538",
          "blockNumber": "0xa26d54",
          "blockTimestamp": "0x6969d218",
          "transactionHash": "0xfa55d4f43bbebcaa5d439002e8c8ea74d91df6b15b2dee876bc4012c4cb37bbf",
          "transactionIndex": "0x17",
          "logIndex": "0x2f",
          "removed": false
        }
      ],
      "logsBloom": "0x00000000000000000000020800000000000000002000000000000000000000020400000000000000000000000100000000000000000000000000000000000000000004000000000000000008400000000000000000800000000000000400000000000000000000000000000000000010000000000000000000000050000000104000000000000000000000000020000000000000800000000000000000000000000020000000000000000000000000000000000000000000000000000000000000000002000000000000000000000000000000000000000000000000000000000000000000000000000000000000000000000000000000000000400000000000",
      "transactionHash": "0xfa55d4f43bbebcaa5d439002e8c8ea74d91df6b15b2dee876bc4012c4cb37bbf",
      "transactionIndex": "0x17",
      "blockHash": "0xa2860b10b0ae1a48c962e36b94182fa5757351ae637f02c9046627016b66d538",
      "blockNumber": "0xa26d54",
      "gasUsed": "0xfba1",
      "effectiveGasPrice": "0x2541727e9",
      "from": "0x0990be6db8c785fbbf9ded8baec612a10cae814b",
      "to": "0x50c21fe63c28191ccdc167961992a63e14393565",
      "contractAddress": null,
      "feeToken": "0x20c0000000000000000000000000000000000000",
      "feePayer": "0x0990be6db8c785fbbf9ded8baec612a10cae814b"
    },
    {
      "type": "0x2",
      "status": "0x1",
      "cumulativeGasUsed": "0x1d02d5",
      "logs": [
        {
          "address": "0x50c21fe63c28191ccdc167961992a63e14393565",
          "topics": [
            "0x6ee10e9ed4d6ce9742703a498707862f4b00f1396a87195eb93267b3d7983981"
          ],
          "data": "0x0000000000000000000000008ee7e00790c18f28b65bc4771f2a8273d88f2a540000000000000000000000000990be6db8c785fbbf9ded8baec612a10cae814b",
          "blockHash": "0xa2860b10b0ae1a48c962e36b94182fa5757351ae637f02c9046627016b66d538",
          "blockNumber": "0xa26d54",
          "blockTimestamp": "0x6969d218",
          "transactionHash": "0xbb1c3df946f6eadc63bd796eb6d15f49c53d885839ed1c2ae788f7687d2ee818",
          "transactionIndex": "0x18",
          "logIndex": "0x30",
          "removed": false
        },
        {
          "address": "0x20c0000000000000000000000000000000000000",
          "topics": [
            "0xddf252ad1be2c89b69c2b068fc378daa952ba7f163c4a11628f55a4df523b3ef",
            "0x0000000000000000000000000990be6db8c785fbbf9ded8baec612a10cae814b",
            "0x000000000000000000000000feec000000000000000000000000000000000000"
          ],
          "data": "0x000000000000000000000000000000000000000000000000000000000000017f",
          "blockHash": "0xa2860b10b0ae1a48c962e36b94182fa5757351ae637f02c9046627016b66d538",
          "blockNumber": "0xa26d54",
          "blockTimestamp": "0x6969d218",
          "transactionHash": "0xbb1c3df946f6eadc63bd796eb6d15f49c53d885839ed1c2ae788f7687d2ee818",
          "transactionIndex": "0x18",
          "logIndex": "0x31",
          "removed": false
        }
      ],
      "logsBloom": "0x00000000000000000000000000000000000000002000000000800000000000000000000000000000000000000100000000000002000000000000000000000000000004000000000000000008400000000000000000000000000000000400000000000000000000000000000000000010000000000000000000000050000000004000000000000000000000000020000000000000800000000000000000000000000020000000000000000000000000000000000000000000000000000000000400000002000000000000000000000000000000000000000000000000000000000000000000000000000000000000000000000000000000000000400000000000",
      "transactionHash": "0xbb1c3df946f6eadc63bd796eb6d15f49c53d885839ed1c2ae788f7687d2ee818",
      "transactionIndex": "0x18",
      "blockHash": "0xa2860b10b0ae1a48c962e36b94182fa5757351ae637f02c9046627016b66d538",
      "blockNumber": "0xa26d54",
      "gasUsed": "0x9558",
      "effectiveGasPrice": "0x2541727e9",
      "from": "0x0990be6db8c785fbbf9ded8baec612a10cae814b",
      "to": "0x8ee7e00790c18f28b65bc4771f2a8273d88f2a54",
      "contractAddress": null,
      "feeToken": "0x20c0000000000000000000000000000000000000",
      "feePayer": "0x0990be6db8c785fbbf9ded8baec612a10cae814b"
    },
    {
      "type": "0x2",
      "status": "0x1",
      "cumulativeGasUsed": "0x1d842c",
      "logs": [
        {
          "address": "0x8ee7e00790c18f28b65bc4771f2a8273d88f2a54",
          "topics": [
            "0x8be0079c531659141344cd1fd0a4f28419497f9722a3daafe3b4186f6b6457e0",
            "0x0000000000000000000000000990be6db8c785fbbf9ded8baec612a10cae814b",
            "0x0000000000000000000000000990be6db8c785fbbf9ded8baec612a10cae814b"
          ],
          "data": "0x",
          "blockHash": "0xa2860b10b0ae1a48c962e36b94182fa5757351ae637f02c9046627016b66d538",
          "blockNumber": "0xa26d54",
          "blockTimestamp": "0x6969d218",
          "transactionHash": "0xabb8c081ae1f2bc7d1147eeeef121978f7935faf462c13fbb761d4837c2aad78",
          "transactionIndex": "0x19",
          "logIndex": "0x32",
          "removed": false
        },
        {
          "address": "0x20c0000000000000000000000000000000000000",
          "topics": [
            "0xddf252ad1be2c89b69c2b068fc378daa952ba7f163c4a11628f55a4df523b3ef",
            "0x0000000000000000000000000990be6db8c785fbbf9ded8baec612a10cae814b",
            "0x000000000000000000000000feec000000000000000000000000000000000000"
          ],
          "data": "0x000000000000000000000000000000000000000000000000000000000000014c",
          "blockHash": "0xa2860b10b0ae1a48c962e36b94182fa5757351ae637f02c9046627016b66d538",
          "blockNumber": "0xa26d54",
          "blockTimestamp": "0x6969d218",
          "transactionHash": "0xabb8c081ae1f2bc7d1147eeeef121978f7935faf462c13fbb761d4837c2aad78",
          "transactionIndex": "0x19",
          "logIndex": "0x33",
          "removed": false
        }
      ],
      "logsBloom": "0x00000000000000000000400000000000000000002000000010800000000000000000000000000000000000000100000000000000000000000000000000000000000004000000000000000008400000000001000000000000000000000400000000000000000000000000000000000000000000000000000000000010000000400000000000000000000000000020000000000000800000000000000000000000000020000000000000000000000000000000000000000000000000000000000000000002000000000000000000000000000000000000000000000000100000000000000000000000000000000000000000000000000000000000400000000000",
      "transactionHash": "0xabb8c081ae1f2bc7d1147eeeef121978f7935faf462c13fbb761d4837c2aad78",
      "transactionIndex": "0x19",
      "blockHash": "0xa2860b10b0ae1a48c962e36b94182fa5757351ae637f02c9046627016b66d538",
      "blockNumber": "0xa26d54",
      "gasUsed": "0x8157",
      "effectiveGasPrice": "0x2541727e9",
      "from": "0x0990be6db8c785fbbf9ded8baec612a10cae814b",
      "to": "0x8ee7e00790c18f28b65bc4771f2a8273d88f2a54",
      "contractAddress": null,
      "feeToken": "0x20c0000000000000000000000000000000000000",
      "feePayer": "0x0990be6db8c785fbbf9ded8baec612a10cae814b"
    },
    {
      "type": "0x2",
      "status": "0x1",
      "cumulativeGasUsed": "0x1de8f3",
      "logs": [
        {
          "address": "0x223a681fc5c5522c85c96157c0efa18cd6c5405c",
          "topics": [
            "0x8be0079c531659141344cd1fd0a4f28419497f9722a3daafe3b4186f6b6457e0",
            "0x0000000000000000000000000990be6db8c785fbbf9ded8baec612a10cae814b",
            "0x0000000000000000000000000990be6db8c785fbbf9ded8baec612a10cae814b"
          ],
          "data": "0x",
          "blockHash": "0xa2860b10b0ae1a48c962e36b94182fa5757351ae637f02c9046627016b66d538",
          "blockNumber": "0xa26d54",
          "blockTimestamp": "0x6969d218",
          "transactionHash": "0xbc0926ac39f554860fabc96de086689a5159520b85442095753c998bcaf1bcf3",
          "transactionIndex": "0x1a",
          "logIndex": "0x34",
          "removed": false
        },
        {
          "address": "0x20c0000000000000000000000000000000000000",
          "topics": [
            "0xddf252ad1be2c89b69c2b068fc378daa952ba7f163c4a11628f55a4df523b3ef",
            "0x0000000000000000000000000990be6db8c785fbbf9ded8baec612a10cae814b",
            "0x000000000000000000000000feec000000000000000000000000000000000000"
          ],
          "data": "0x0000000000000000000000000000000000000000000000000000000000000103",
          "blockHash": "0xa2860b10b0ae1a48c962e36b94182fa5757351ae637f02c9046627016b66d538",
          "blockNumber": "0xa26d54",
          "blockTimestamp": "0x6969d218",
          "transactionHash": "0xbc0926ac39f554860fabc96de086689a5159520b85442095753c998bcaf1bcf3",
          "transactionIndex": "0x1a",
          "logIndex": "0x35",
          "removed": false
        }
      ],
      "logsBloom": "0x00000000000000000000000000000000000000002000000000800000000000000000000000000000000000000100000000000000000000000000000000200000000004000000000000000008400000000001000000000000000000020400000000000000000000000000000000000000000000000000000000000010000000400000000000000000000000000020000000000000800000000000000000000000000020000000000000000000000000000000000000000000000000000000000000000002000000000000000000000000000000000000000000000000000000000000000000000000000000000000000200000000000000000000400000000000",
      "transactionHash": "0xbc0926ac39f554860fabc96de086689a5159520b85442095753c998bcaf1bcf3",
      "transactionIndex": "0x1a",
      "blockHash": "0xa2860b10b0ae1a48c962e36b94182fa5757351ae637f02c9046627016b66d538",
      "blockNumber": "0xa26d54",
      "gasUsed": "0x64c7",
      "effectiveGasPrice": "0x2541727e9",
      "from": "0x0990be6db8c785fbbf9ded8baec612a10cae814b",
      "to": "0x223a681fc5c5522c85c96157c0efa18cd6c5405c",
      "contractAddress": null,
      "feeToken": "0x20c0000000000000000000000000000000000000",
      "feePayer": "0x0990be6db8c785fbbf9ded8baec612a10cae814b"
    }
  ],
  "libraries": [],
  "pending": [],
  "returns": {},
  "timestamp": 1768542747061,
  "chain": 42429,
  "commit": "94683e0"
}