{
  "transactions": [
    {
      "hash": null,
      "transactionType": "CALL",
      "contractName": null,
      "contractAddress": "0x20fc000000000000000000000000000000000000",
      "function": "createToken(string,string,string,address,address,bytes32)",
      "arguments": [
        "Frax USD",
        "frxUSD",
        "USD",
        "0x20C0000000000000000000000000000000000000",
        "0x9C9dD956b413cdBD81690c9394a6B4D22afe6745",
        "0x0000000000000000000000000000000000000000000000000000000000000000"
      ],
      "transaction": {
        "from": "0x9c9dd956b413cdbd81690c9394a6b4d22afe6745",
        "to": "0x20fc000000000000000000000000000000000000",
        "gas": "0x47576",
        "value": "0x0",
        "input": "0x6813044500000000000000000000000000000000000000000000000000000000000000c00000000000000000000000000000000000000000000000000000000000000100000000000000000000000000000000000000000000000000000000000000014000000000000000000000000020c00000000000000000000000000000000000000000000000000000000000009c9dd956b413cdbd81690c9394a6b4d22afe67450000000000000000000000000000000000000000000000000000000000000000000000000000000000000000000000000000000000000000000000000000000846726178205553440000000000000000000000000000000000000000000000000000000000000000000000000000000000000000000000000000000000000006667278555344000000000000000000000000000000000000000000000000000000000000000000000000000000000000000000000000000000000000000000035553440000000000000000000000000000000000000000000000000000000000",
        "nonce": "0x26",
        "chainId": "0xa5bd",
        "feeToken": null,
        "calls": [],
        "keyType": null,
        "keyData": null
      },
      "additionalContracts": [],
      "isFixedGasLimit": false
    }
  ],
  "receipts": [],
  "libraries": [],
  "pending": [],
  "returns": {},
  "timestamp": 1768350445680,
  "chain": 42429,
  "commit": "5277c09"
}