{
  "transactions": [
    {
      "hash": "0x00f61cabc31c9a35fd2e75e8149ace9dec856091216e8622057ec3f0e8a1441a",
      "transactionType": "CALL",
      "contractName": null,
      "contractAddress": "0xe75177ed629a4770e2da00e1395c28a5f9b745d4",
      "function": "batchBridgeWithEthFeeFromWallet((uint32,bytes32,uint256,uint256,bytes,bytes,bytes)[],address[],address[])",
      "arguments": [
        "[(30255, 0x000000000000000000000000741f0d8bde14140f62107fc60a0ee122b37d4630, 100000000000000, 0, 0x, 0x, 0x), (30255, 0x000000000000000000000000741f0d8bde14140f62107fc60a0ee122b37d4630, 100000000000000, 0, 0x, 0x, 0x), (30255, 0x000000000000000000000000741f0d8bde14140f62107fc60a0ee122b37d4630, 100000000000000, 0, 0x, 0x, 0x), (30255, 0x000000000000000000000000741f0d8bde14140f62107fc60a0ee122b37d4630, 100000000000000, 0, 0x, 0x, 0x), (30255, 0x000000000000000000000000741f0d8bde14140f62107fc60a0ee122b37d4630, 100000000000000, 0, 0x, 0x, 0x), (30255, 0x000000000000000000000000741f0d8bde14140f62107fc60a0ee122b37d4630, 100000000000000, 0, 0x, 0x, 0x)]",
        "[0x00000000E9CE0f293D1Ce552768b187eBA8a56D4, 0x00000000fD8C4B8A413A06821456801295921a71, 0x00000000883279097A49dB1f2af954EAd0C77E3c, 0x00000000D61733e7A393A10A5B48c311AbE8f1E5, 0x000000008c3930dCA540bB9B3A5D0ee78FcA9A4c, 0x00000000bC4aEF4bA6363a437455Cb1af19e2aEb]",
        "[0xE75177ED629a4770e2DA00e1395c28A5f9B745d4, 0xE75177ED629a4770e2DA00e1395c28A5f9B745d4, 0xE75177ED629a4770e2DA00e1395c28A5f9B745d4, 0xE75177ED629a4770e2DA00e1395c28A5f9B745d4, 0xE75177ED629a4770e2DA00e1395c28A5f9B745d4, 0xE75177ED629a4770e2DA00e1395c28A5f9B745d4]"
      ],
      "transaction": {
        "from": "0x45dce8e4f2dc005a5f28206a46cb034697eeda8e",
        "to": "0xe75177ed629a4770e2da00e1395c28a5f9b745d4",
        "gas": "0x11e53b0",
        "value": "0x1072a6d01ab5acaa",
        "input": "0xb70d4241000000000000000000000000000000000000000000000000000000000000006000000000000000000000000000000000000000000000000000000000000008c000000000000000000000000000000000000000000000000000000000000009a0000000000000000000000000000000000000000000000000000000000000000600000000000000000000000000000000000000000000000000000000000000c000000000000000000000000000000000000000000000000000000000000002000000000000000000000000000000000000000000000000000000000000000340000000000000000000000000000000000000000000000000000000000000048000000000000000000000000000000000000000000000000000000000000005c00000000000000000000000000000000000000000000000000000000000000700000000000000000000000000000000000000000000000000000000000000762f000000000000000000000000741f0d8bde14140f62107fc60a0ee122b37d463000000000000000000000000000000000000000000000000000005af3107a4000000000000000000000000000000000000000000000000000000000000000000000000000000000000000000000000000000000000000000000000000000000e000000000000000000000000000000000000000000000000000000000000001000000000000000000000000000000000000000000000000000000000000000120000000000000000000000000000000000000000000000000000000000000000000000000000000000000000000000000000000000000000000000000000000000000000000000000000000000000000000000000000000000000000000000000000000000000000000000000000000000000000000000000000000000000762f000000000000000000000000741f0d8bde14140f62107fc60a0ee122b37d463000000000000000000000000000000000000000000000000000005af3107a4000000000000000000000000000000000000000000000000000000000000000000000000000000000000000000000000000000000000000000000000000000000e000000000000000000000000000000000000000000000000000000000000001000000000000000000000000000000000000000000000000000000000000000120000000000000000000000000000000000000000000000000000000000000000000000000000000000000000000000000000000000000000000000000000000000000000000000000000000000000000000000000000000000000000000000000000000000000000000000000000000000000000000000000000000000000762f000000000000000000000000741f0d8bde14140f62107fc60a0ee122b37d463000000000000000000000000000000000000000000000000000005af3107a4000000000000000000000000000000000000000000000000000000000000000000000000000000000000000000000000000000000000000000000000000000000e000000000000000000000000000000000000000000000000000000000000001000000000000000000000000000000000000000000000000000000000000000120000000000000000000000000000000000000000000000000000000000000000000000000000000000000000000000000000000000000000000000000000000000000000000000000000000000000000000000000000000000000000000000000000000000000000000000000000000000000000000000000000000000000762f000000000000000000000000741f0d8bde14140f62107fc60a0ee122b37d463000000000000000000000000000000000000000000000000000005af3107a4000000000000000000000000000000000000000000000000000000000000000000000000000000000000000000000000000000000000000000000000000000000e000000000000000000000000000000000000000000000000000000000000001000000000000000000000000000000000000000000000000000000000000000120000000000000000000000000000000000000000000000000000000000000000000000000000000000000000000000000000000000000000000000000000000000000000000000000000000000000000000000000000000000000000000000000000000000000000000000000000000000000000000000000000000000000762f000000000000000000000000741f0d8bde14140f62107fc60a0ee122b37d463000000000000000000000000000000000000000000000000000005af3107a4000000000000000000000000000000000000000000000000000000000000000000000000000000000000000000000000000000000000000000000000000000000e000000000000000000000000000000000000000000000000000000000000001000000000000000000000000000000000000000000000000000000000000000120000000000000000000000000000000000000000000000000000000000000000000000000000000000000000000000000000000000000000000000000000000000000000000000000000000000000000000000000000000000000000000000000000000000000000000000000000000000000000000000000000000000000762f000000000000000000000000741f0d8bde14140f62107fc60a0ee122b37d463000000000000000000000000000000000000000000000000000005af3107a4000000000000000000000000000000000000000000000000000000000000000000000000000000000000000000000000000000000000000000000000000000000e000000000000000000000000000000000000000000000000000000000000001000000000000000000000000000000000000000000000000000000000000000120000000000000000000000000000000000000000000000000000000000000000000000000000000000000000000000000000000000000000000000000000000000000000000000000000000000000000000000000000000000000000000000000000000000000000000000000000000000000000000000000000000000000000600000000000000000000000000000000e9ce0f293d1ce552768b187eba8a56d400000000000000000000000000000000fd8c4b8a413a06821456801295921a7100000000000000000000000000000000883279097a49db1f2af954ead0c77e3c00000000000000000000000000000000d61733e7a393a10a5b48c311abe8f1e5000000000000000000000000000000008c3930dca540bb9b3a5d0ee78fca9a4c00000000000000000000000000000000bc4aef4ba6363a437455cb1af19e2aeb0000000000000000000000000000000000000000000000000000000000000006000000000000000000000000e75177ed629a4770e2da00e1395c28a5f9b745d4000000000000000000000000e75177ed629a4770e2da00e1395c28a5f9b745d4000000000000000000000000e75177ed629a4770e2da00e1395c28a5f9b745d4000000000000000000000000e75177ed629a4770e2da00e1395c28a5f9b745d4000000000000000000000000e75177ed629a4770e2da00e1395c28a5f9b745d4000000000000000000000000e75177ed629a4770e2da00e1395c28a5f9b745d4",
        "nonce": "0x1d",
        "chainId": "0x13a7"
      },
      "additionalContracts": [],
      "isFixedGasLimit": false
    }
  ],
  "receipts": [
    {
      "status": "0x1",
      "cumulativeGasUsed": "0x0",
      "logs": [
        {
          "address": "0x00000000e9ce0f293d1ce552768b187eba8a56d4",
          "topics": [
            "0xddf252ad1be2c89b69c2b068fc378daa952ba7f163c4a11628f55a4df523b3ef",
            "0x000000000000000000000000e75177ed629a4770e2da00e1395c28a5f9b745d4",
            "0x0000000000000000000000000000000000000000000000000000000000000000"
          ],
          "data": "0x00000000000000000000000000000000000000000000000000005af3107a4000",
          "blockHash": "0x28ea9195653dcfccbfe78497e61fbc736ca04148223404dc29252e77073167b9",
          "blockNumber": "0x1072d786",
          "transactionHash": "0x00f61cabc31c9a35fd2e75e8149ace9dec856091216e8622057ec3f0e8a1441a",
          "transactionIndex": "0x0",
          "logIndex": "0x0",
          "removed": false
        },
        {
          "address": "0xc39161c743d0307eb9bcc9fef03eeb9dc4802de7",
          "topics": [
            "0x61ed099e74a97a1d7f8bb0952a88ca8b7b8ebd00c126ea04671f92a81213318a"
          ],
          "data": "0x0000000000000000000000004208d6e27538189bb48e603d6123a94b8abe0a0b00000000000000000000000000000000000000000000000001d9cb5edcbe7d20",
          "blockHash": "0x28ea9195653dcfccbfe78497e61fbc736ca04148223404dc29252e77073167b9",
          "blockNumber": "0x1072d786",
          "transactionHash": "0x00f61cabc31c9a35fd2e75e8149ace9dec856091216e8622057ec3f0e8a1441a",
          "transactionIndex": "0x0",
          "logIndex": "0x1",
          "removed": false
        },
        {
          "address": "0xc39161c743d0307eb9bcc9fef03eeb9dc4802de7",
          "topics": [
            "0x07ea52d82345d6e838192107d8fd7123d9c2ec8e916cd0aad13fd2b60db24644"
          ],
          "data": "0x000000000000000000000000000000000000000000000000000000000000006000000000000000000000000000000000000000000000000000000000000000e000000000000000000000000000000000000000000000000000000000000001000000000000000000000000000000000000000000000000000000000000000003000000000000000000000000282b3386571f7f794450d5789911a9804fa346b40000000000000000000000005fddd320a1e29bb466fa635661b125d51d976f92000000000000000000000000d6412412c5817aaac5fd37bb96b1d64caf56db1600000000000000000000000000000000000000000000000000000000000000000000000000000000000000000000000000000000000000000000000000000003000000000000000000000000000000000000000000000000004bfe5db7e70a8d000000000000000000000000000000000000000000000000004bfe5db7e70a8d000000000000000000000000000000000000000000000000004bfe5db7e70a8d",
          "blockHash": "0x28ea9195653dcfccbfe78497e61fbc736ca04148223404dc29252e77073167b9",
          "blockNumber": "0x1072d786",
          "transactionHash": "0x00f61cabc31c9a35fd2e75e8149ace9dec856091216e8622057ec3f0e8a1441a",
          "transactionIndex": "0x0",
          "logIndex": "0x2",
          "removed": false
        },
        {
          "address": "0x6f475642a6e85809b1c36fa62763669b1b48dd5b",
          "topics": [
            "0x1ab700d4ced0c005b164c0f789fd09fcbb0156d4c2041b8a3bfbcd961cd1567f"
          ],
          "data": "0x00000000000000000000000000000000000000000000000000000000000000600000000000000000000000000000000000000000000000000000000000000120000000000000000000000000c39161c743d0307eb9bcc9fef03eeb9dc4802de70000000000000000000000000000000000000000000000000000000000000099010000000000000001000076ac00000000000000000000000000000000e9ce0f293d1ce552768b187eba8a56d40000762f000000000000000000000000d86fbbd0c8715d2c1f40e451e5c3514e65e7576a58d86895d897c7a2e2663bc048a26f6559eb0c03bceb00e160b662a57a9fa67b000000000000000000000000741f0d8bde14140f62107fc60a0ee122b37d4630000000000000006400000000000000000000000000000000000000000000000000000000000000000000000000001600030100110100000000000000000000000000030d4000000000000000000000",
          "blockHash": "0x28ea9195653dcfccbfe78497e61fbc736ca04148223404dc29252e77073167b9",
          "blockNumber": "0x1072d786",
          "transactionHash": "0x00f61cabc31c9a35fd2e75e8149ace9dec856091216e8622057ec3f0e8a1441a",
          "transactionIndex": "0x0",
          "logIndex": "0x3",
          "removed": false
        },
        {
          "address": "0x00000000e9ce0f293d1ce552768b187eba8a56d4",
          "topics": [
            "0x85496b760a4b7f8d66384b9df21b381f5d1b1e79f229a47aaf4c232edc2fe59a",
            "0x58d86895d897c7a2e2663bc048a26f6559eb0c03bceb00e160b662a57a9fa67b",
            "0x000000000000000000000000e75177ed629a4770e2da00e1395c28a5f9b745d4"
          ],
          "data": "0x000000000000000000000000000000000000000000000000000000000000762f00000000000000000000000000000000000000000000000000005af3107a400000000000000000000000000000000000000000000000000000005af3107a4000",
          "blockHash": "0x28ea9195653dcfccbfe78497e61fbc736ca04148223404dc29252e77073167b9",
          "blockNumber": "0x1072d786",
          "transactionHash": "0x00f61cabc31c9a35fd2e75e8149ace9dec856091216e8622057ec3f0e8a1441a",
          "transactionIndex": "0x0",
          "logIndex": "0x4",
          "removed": false
        },
        {
          "address": "0x00000000fd8c4b8a413a06821456801295921a71",
          "topics": [
            "0xddf252ad1be2c89b69c2b068fc378daa952ba7f163c4a11628f55a4df523b3ef",
            "0x000000000000000000000000e75177ed629a4770e2da00e1395c28a5f9b745d4",
            "0x0000000000000000000000000000000000000000000000000000000000000000"
          ],
          "data": "0x00000000000000000000000000000000000000000000000000005af3107a4000",
          "blockHash": "0x28ea9195653dcfccbfe78497e61fbc736ca04148223404dc29252e77073167b9",
          "blockNumber": "0x1072d786",
          "transactionHash": "0x00f61cabc31c9a35fd2e75e8149ace9dec856091216e8622057ec3f0e8a1441a",
          "transactionIndex": "0x0",
          "logIndex": "0x5",
          "removed": false
        },
        {
          "address": "0xc39161c743d0307eb9bcc9fef03eeb9dc4802de7",
          "topics": [
            "0x61ed099e74a97a1d7f8bb0952a88ca8b7b8ebd00c126ea04671f92a81213318a"
          ],
          "data": "0x0000000000000000000000004208d6e27538189bb48e603d6123a94b8abe0a0b00000000000000000000000000000000000000000000000001d9cb5edcbe7d20",
          "blockHash": "0x28ea9195653dcfccbfe78497e61fbc736ca04148223404dc29252e77073167b9",
          "blockNumber": "0x1072d786",
          "transactionHash": "0x00f61cabc31c9a35fd2e75e8149ace9dec856091216e8622057ec3f0e8a1441a",
          "transactionIndex": "0x0",
          "logIndex": "0x6",
          "removed": false
        },
        {
          "address": "0xc39161c743d0307eb9bcc9fef03eeb9dc4802de7",
          "topics": [
            "0x07ea52d82345d6e838192107d8fd7123d9c2ec8e916cd0aad13fd2b60db24644"
          ],
          "data": "0x000000000000000000000000000000000000000000000000000000000000006000000000000000000000000000000000000000000000000000000000000000e000000000000000000000000000000000000000000000000000000000000001000000000000000000000000000000000000000000000000000000000000000003000000000000000000000000282b3386571f7f794450d5789911a9804fa346b40000000000000000000000005fddd320a1e29bb466fa635661b125d51d976f92000000000000000000000000d6412412c5817aaac5fd37bb96b1d64caf56db1600000000000000000000000000000000000000000000000000000000000000000000000000000000000000000000000000000000000000000000000000000003000000000000000000000000000000000000000000000000004bfe5db7e70a8d000000000000000000000000000000000000000000000000004bfe5db7e70a8d000000000000000000000000000000000000000000000000004bfe5db7e70a8d",
          "blockHash": "0x28ea9195653dcfccbfe78497e61fbc736ca04148223404dc29252e77073167b9",
          "blockNumber": "0x1072d786",
          "transactionHash": "0x00f61cabc31c9a35fd2e75e8149ace9dec856091216e8622057ec3f0e8a1441a",
          "transactionIndex": "0x0",
          "logIndex": "0x7",
          "removed": false
        },
        {
          "address": "0x6f475642a6e85809b1c36fa62763669b1b48dd5b",
          "topics": [
            "0x1ab700d4ced0c005b164c0f789fd09fcbb0156d4c2041b8a3bfbcd961cd1567f"
          ],
          "data": "0x00000000000000000000000000000000000000000000000000000000000000600000000000000000000000000000000000000000000000000000000000000120000000000000000000000000c39161c743d0307eb9bcc9fef03eeb9dc4802de70000000000000000000000000000000000000000000000000000000000000099010000000000000001000076ac00000000000000000000000000000000fd8c4b8a413a06821456801295921a710000762f00000000000000000000000088aa7854d3b2daa5e37e7ce73a1f39669623a3617ace60e01af9f0c0b918923e87601e8e68763d2d360635499d40a39a7b144245000000000000000000000000741f0d8bde14140f62107fc60a0ee122b37d4630000000000000006400000000000000000000000000000000000000000000000000000000000000000000000000001600030100110100000000000000000000000000030d4000000000000000000000",
          "blockHash": "0x28ea9195653dcfccbfe78497e61fbc736ca04148223404dc29252e77073167b9",
          "blockNumber": "0x1072d786",
          "transactionHash": "0x00f61cabc31c9a35fd2e75e8149ace9dec856091216e8622057ec3f0e8a1441a",
          "transactionIndex": "0x0",
          "logIndex": "0x8",
          "removed": false
        },
        {
          "address": "0x00000000fd8c4b8a413a06821456801295921a71",
          "topics": [
            "0x85496b760a4b7f8d66384b9df21b381f5d1b1e79f229a47aaf4c232edc2fe59a",
            "0x7ace60e01af9f0c0b918923e87601e8e68763d2d360635499d40a39a7b144245",
            "0x000000000000000000000000e75177ed629a4770e2da00e1395c28a5f9b745d4"
          ],
          "data": "0x000000000000000000000000000000000000000000000000000000000000762f00000000000000000000000000000000000000000000000000005af3107a400000000000000000000000000000000000000000000000000000005af3107a4000",
          "blockHash": "0x28ea9195653dcfccbfe78497e61fbc736ca04148223404dc29252e77073167b9",
          "blockNumber": "0x1072d786",
          "transactionHash": "0x00f61cabc31c9a35fd2e75e8149ace9dec856091216e8622057ec3f0e8a1441a",
          "transactionIndex": "0x0",
          "logIndex": "0x9",
          "removed": false
        },
        {
          "address": "0x00000000883279097a49db1f2af954ead0c77e3c",
          "topics": [
            "0xddf252ad1be2c89b69c2b068fc378daa952ba7f163c4a11628f55a4df523b3ef",
            "0x000000000000000000000000e75177ed629a4770e2da00e1395c28a5f9b745d4",
            "0x0000000000000000000000000000000000000000000000000000000000000000"
          ],
          "data": "0x00000000000000000000000000000000000000000000000000005af3107a4000",
          "blockHash": "0x28ea9195653dcfccbfe78497e61fbc736ca04148223404dc29252e77073167b9",
          "blockNumber": "0x1072d786",
          "transactionHash": "0x00f61cabc31c9a35fd2e75e8149ace9dec856091216e8622057ec3f0e8a1441a",
          "transactionIndex": "0x0",
          "logIndex": "0xa",
          "removed": false
        },
        {
          "address": "0xc39161c743d0307eb9bcc9fef03eeb9dc4802de7",
          "topics": [
            "0x61ed099e74a97a1d7f8bb0952a88ca8b7b8ebd00c126ea04671f92a81213318a"
          ],
          "data": "0x0000000000000000000000004208d6e27538189bb48e603d6123a94b8abe0a0b00000000000000000000000000000000000000000000000001d9cb5edcbe7d20",
          "blockHash": "0x28ea9195653dcfccbfe78497e61fbc736ca04148223404dc29252e77073167b9",
          "blockNumber": "0x1072d786",
          "transactionHash": "0x00f61cabc31c9a35fd2e75e8149ace9dec856091216e8622057ec3f0e8a1441a",
          "transactionIndex": "0x0",
          "logIndex": "0xb",
          "removed": false
        },
        {
          "address": "0xc39161c743d0307eb9bcc9fef03eeb9dc4802de7",
          "topics": [
            "0x07ea52d82345d6e838192107d8fd7123d9c2ec8e916cd0aad13fd2b60db24644"
          ],
          "data": "0x000000000000000000000000000000000000000000000000000000000000006000000000000000000000000000000000000000000000000000000000000000e000000000000000000000000000000000000000000000000000000000000001000000000000000000000000000000000000000000000000000000000000000003000000000000000000000000282b3386571f7f794450d5789911a9804fa346b40000000000000000000000005fddd320a1e29bb466fa635661b125d51d976f92000000000000000000000000d6412412c5817aaac5fd37bb96b1d64caf56db1600000000000000000000000000000000000000000000000000000000000000000000000000000000000000000000000000000000000000000000000000000003000000000000000000000000000000000000000000000000004bfe5db7e70a8d000000000000000000000000000000000000000000000000004bfe5db7e70a8d000000000000000000000000000000000000000000000000004bfe5db7e70a8d",
          "blockHash": "0x28ea9195653dcfccbfe78497e61fbc736ca04148223404dc29252e77073167b9",
          "blockNumber": "0x1072d786",
          "transactionHash": "0x00f61cabc31c9a35fd2e75e8149ace9dec856091216e8622057ec3f0e8a1441a",
          "transactionIndex": "0x0",
          "logIndex": "0xc",
          "removed": false
        },
        {
          "address": "0x6f475642a6e85809b1c36fa62763669b1b48dd5b",
          "topics": [
            "0x1ab700d4ced0c005b164c0f789fd09fcbb0156d4c2041b8a3bfbcd961cd1567f"
          ],
          "data": "0x00000000000000000000000000000000000000000000000000000000000000600000000000000000000000000000000000000000000000000000000000000120000000000000000000000000c39161c743d0307eb9bcc9fef03eeb9dc4802de70000000000000000000000000000000000000000000000000000000000000099010000000000000001000076ac00000000000000000000000000000000883279097a49db1f2af954ead0c77e3c0000762f000000000000000000000000999dfabe3b1cc2ef66eb032eea42fea329bba168f4cfd9208098e480d255ba71ff888a0ebaea58ff847c29e417ac5907de2c849b000000000000000000000000741f0d8bde14140f62107fc60a0ee122b37d4630000000000000006400000000000000000000000000000000000000000000000000000000000000000000000000001600030100110100000000000000000000000000030d4000000000000000000000",
          "blockHash": "0x28ea9195653dcfccbfe78497e61fbc736ca04148223404dc29252e77073167b9",
          "blockNumber": "0x1072d786",
          "transactionHash": "0x00f61cabc31c9a35fd2e75e8149ace9dec856091216e8622057ec3f0e8a1441a",
          "transactionIndex": "0x0",
          "logIndex": "0xd",
          "removed": false
        },
        {
          "address": "0x00000000883279097a49db1f2af954ead0c77e3c",
          "topics": [
            "0x85496b760a4b7f8d66384b9df21b381f5d1b1e79f229a47aaf4c232edc2fe59a",
            "0xf4cfd9208098e480d255ba71ff888a0ebaea58ff847c29e417ac5907de2c849b",
            "0x000000000000000000000000e75177ed629a4770e2da00e1395c28a5f9b745d4"
          ],
          "data": "0x000000000000000000000000000000000000000000000000000000000000762f00000000000000000000000000000000000000000000000000005af3107a400000000000000000000000000000000000000000000000000000005af3107a4000",
          "blockHash": "0x28ea9195653dcfccbfe78497e61fbc736ca04148223404dc29252e77073167b9",
          "blockNumber": "0x1072d786",
          "transactionHash": "0x00f61cabc31c9a35fd2e75e8149ace9dec856091216e8622057ec3f0e8a1441a",
          "transactionIndex": "0x0",
          "logIndex": "0xe",
          "removed": false
        },
        {
          "address": "0x00000000d61733e7a393a10a5b48c311abe8f1e5",
          "topics": [
            "0xddf252ad1be2c89b69c2b068fc378daa952ba7f163c4a11628f55a4df523b3ef",
            "0x000000000000000000000000e75177ed629a4770e2da00e1395c28a5f9b745d4",
            "0x0000000000000000000000000000000000000000000000000000000000000000"
          ],
          "data": "0x00000000000000000000000000000000000000000000000000005af3107a4000",
          "blockHash": "0x28ea9195653dcfccbfe78497e61fbc736ca04148223404dc29252e77073167b9",
          "blockNumber": "0x1072d786",
          "transactionHash": "0x00f61cabc31c9a35fd2e75e8149ace9dec856091216e8622057ec3f0e8a1441a",
          "transactionIndex": "0x0",
          "logIndex": "0xf",
          "removed": false
        },
        {
          "address": "0xc39161c743d0307eb9bcc9fef03eeb9dc4802de7",
          "topics": [
            "0x61ed099e74a97a1d7f8bb0952a88ca8b7b8ebd00c126ea04671f92a81213318a"
          ],
          "data": "0x0000000000000000000000004208d6e27538189bb48e603d6123a94b8abe0a0b00000000000000000000000000000000000000000000000001d9cb5edcbe7d20",
          "blockHash": "0x28ea9195653dcfccbfe78497e61fbc736ca04148223404dc29252e77073167b9",
          "blockNumber": "0x1072d786",
          "transactionHash": "0x00f61cabc31c9a35fd2e75e8149ace9dec856091216e8622057ec3f0e8a1441a",
          "transactionIndex": "0x0",
          "logIndex": "0x10",
          "removed": false
        },
        {
          "address": "0xc39161c743d0307eb9bcc9fef03eeb9dc4802de7",
          "topics": [
            "0x07ea52d82345d6e838192107d8fd7123d9c2ec8e916cd0aad13fd2b60db24644"
          ],
          "data": "0x000000000000000000000000000000000000000000000000000000000000006000000000000000000000000000000000000000000000000000000000000000e000000000000000000000000000000000000000000000000000000000000001000000000000000000000000000000000000000000000000000000000000000003000000000000000000000000282b3386571f7f794450d5789911a9804fa346b40000000000000000000000005fddd320a1e29bb466fa635661b125d51d976f92000000000000000000000000d6412412c5817aaac5fd37bb96b1d64caf56db1600000000000000000000000000000000000000000000000000000000000000000000000000000000000000000000000000000000000000000000000000000003000000000000000000000000000000000000000000000000004bfe5db7e70a8d000000000000000000000000000000000000000000000000004bfe5db7e70a8d000000000000000000000000000000000000000000000000004bfe5db7e70a8d",
          "blockHash": "0x28ea9195653dcfccbfe78497e61fbc736ca04148223404dc29252e77073167b9",
          "blockNumber": "0x1072d786",
          "transactionHash": "0x00f61cabc31c9a35fd2e75e8149ace9dec856091216e8622057ec3f0e8a1441a",
          "transactionIndex": "0x0",
          "logIndex": "0x11",
          "removed": false
        },
        {
          "address": "0x6f475642a6e85809b1c36fa62763669b1b48dd5b",
          "topics": [
            "0x1ab700d4ced0c005b164c0f789fd09fcbb0156d4c2041b8a3bfbcd961cd1567f"
          ],
          "data": "0x00000000000000000000000000000000000000000000000000000000000000600000000000000000000000000000000000000000000000000000000000000120000000000000000000000000c39161c743d0307eb9bcc9fef03eeb9dc4802de70000000000000000000000000000000000000000000000000000000000000099010000000000000001000076ac00000000000000000000000000000000d61733e7a393a10a5b48c311abe8f1e50000762f00000000000000000000000096a394058e2b84a89bac9667b19661ed003cf5d4d7acdf6046037c7b328b9d992c13029f772fcb97392805ae611dd1b505731635000000000000000000000000741f0d8bde14140f62107fc60a0ee122b37d4630000000000000006400000000000000000000000000000000000000000000000000000000000000000000000000001600030100110100000000000000000000000000030d4000000000000000000000",
          "blockHash": "0x28ea9195653dcfccbfe78497e61fbc736ca04148223404dc29252e77073167b9",
          "blockNumber": "0x1072d786",
          "transactionHash": "0x00f61cabc31c9a35fd2e75e8149ace9dec856091216e8622057ec3f0e8a1441a",
          "transactionIndex": "0x0",
          "logIndex": "0x12",
          "removed": false
        },
        {
          "address": "0x00000000d61733e7a393a10a5b48c311abe8f1e5",
          "topics": [
            "0x85496b760a4b7f8d66384b9df21b381f5d1b1e79f229a47aaf4c232edc2fe59a",
            "0xd7acdf6046037c7b328b9d992c13029f772fcb97392805ae611dd1b505731635",
            "0x000000000000000000000000e75177ed629a4770e2da00e1395c28a5f9b745d4"
          ],
          "data": "0x000000000000000000000000000000000000000000000000000000000000762f00000000000000000000000000000000000000000000000000005af3107a400000000000000000000000000000000000000000000000000000005af3107a4000",
          "blockHash": "0x28ea9195653dcfccbfe78497e61fbc736ca04148223404dc29252e77073167b9",
          "blockNumber": "0x1072d786",
          "transactionHash": "0x00f61cabc31c9a35fd2e75e8149ace9dec856091216e8622057ec3f0e8a1441a",
          "transactionIndex": "0x0",
          "logIndex": "0x13",
          "removed": false
        },
        {
          "address": "0x000000008c3930dca540bb9b3a5d0ee78fca9a4c",
          "topics": [
            "0xddf252ad1be2c89b69c2b068fc378daa952ba7f163c4a11628f55a4df523b3ef",
            "0x000000000000000000000000e75177ed629a4770e2da00e1395c28a5f9b745d4",
            "0x0000000000000000000000000000000000000000000000000000000000000000"
          ],
          "data": "0x00000000000000000000000000000000000000000000000000005af3107a4000",
          "blockHash": "0x28ea9195653dcfccbfe78497e61fbc736ca04148223404dc29252e77073167b9",
          "blockNumber": "0x1072d786",
          "transactionHash": "0x00f61cabc31c9a35fd2e75e8149ace9dec856091216e8622057ec3f0e8a1441a",
          "transactionIndex": "0x0",
          "logIndex": "0x14",
          "removed": false
        },
        {
          "address": "0xc39161c743d0307eb9bcc9fef03eeb9dc4802de7",
          "topics": [
            "0x61ed099e74a97a1d7f8bb0952a88ca8b7b8ebd00c126ea04671f92a81213318a"
          ],
          "data": "0x0000000000000000000000004208d6e27538189bb48e603d6123a94b8abe0a0b00000000000000000000000000000000000000000000000001d9cb5edcbe7d20",
          "blockHash": "0x28ea9195653dcfccbfe78497e61fbc736ca04148223404dc29252e77073167b9",
          "blockNumber": "0x1072d786",
          "transactionHash": "0x00f61cabc31c9a35fd2e75e8149ace9dec856091216e8622057ec3f0e8a1441a",
          "transactionIndex": "0x0",
          "logIndex": "0x15",
          "removed": false
        },
        {
          "address": "0xc39161c743d0307eb9bcc9fef03eeb9dc4802de7",
          "topics": [
            "0x07ea52d82345d6e838192107d8fd7123d9c2ec8e916cd0aad13fd2b60db24644"
          ],
          "data": "0x000000000000000000000000000000000000000000000000000000000000006000000000000000000000000000000000000000000000000000000000000000e000000000000000000000000000000000000000000000000000000000000001000000000000000000000000000000000000000000000000000000000000000003000000000000000000000000282b3386571f7f794450d5789911a9804fa346b40000000000000000000000005fddd320a1e29bb466fa635661b125d51d976f92000000000000000000000000d6412412c5817aaac5fd37bb96b1d64caf56db1600000000000000000000000000000000000000000000000000000000000000000000000000000000000000000000000000000000000000000000000000000003000000000000000000000000000000000000000000000000004bfe5db7e70a8d000000000000000000000000000000000000000000000000004bfe5db7e70a8d000000000000000000000000000000000000000000000000004bfe5db7e70a8d",
          "blockHash": "0x28ea9195653dcfccbfe78497e61fbc736ca04148223404dc29252e77073167b9",
          "blockNumber": "0x1072d786",
          "transactionHash": "0x00f61cabc31c9a35fd2e75e8149ace9dec856091216e8622057ec3f0e8a1441a",
          "transactionIndex": "0x0",
          "logIndex": "0x16",
          "removed": false
        },
        {
          "address": "0x6f475642a6e85809b1c36fa62763669b1b48dd5b",
          "topics": [
            "0x1ab700d4ced0c005b164c0f789fd09fcbb0156d4c2041b8a3bfbcd961cd1567f"
          ],
          "data": "0x00000000000000000000000000000000000000000000000000000000000000600000000000000000000000000000000000000000000000000000000000000120000000000000000000000000c39161c743d0307eb9bcc9fef03eeb9dc4802de70000000000000000000000000000000000000000000000000000000000000099010000000000000001000076ac000000000000000000000000000000008c3930dca540bb9b3a5d0ee78fca9a4c0000762f0000000000000000000000009abfe1f8a999b0011ecd6116649aee8d575f5604cadecbe7d70f587b3f59cc7deca034520f3abe5cad7dc4da1e44e36a1ca8d22b000000000000000000000000741f0d8bde14140f62107fc60a0ee122b37d4630000000000000006400000000000000000000000000000000000000000000000000000000000000000000000000001600030100110100000000000000000000000000030d4000000000000000000000",
          "blockHash": "0x28ea9195653dcfccbfe78497e61fbc736ca04148223404dc29252e77073167b9",
          "blockNumber": "0x1072d786",
          "transactionHash": "0x00f61cabc31c9a35fd2e75e8149ace9dec856091216e8622057ec3f0e8a1441a",
          "transactionIndex": "0x0",
          "logIndex": "0x17",
          "removed": false
        },
        {
          "address": "0x000000008c3930dca540bb9b3a5d0ee78fca9a4c",
          "topics": [
            "0x85496b760a4b7f8d66384b9df21b381f5d1b1e79f229a47aaf4c232edc2fe59a",
            "0xcadecbe7d70f587b3f59cc7deca034520f3abe5cad7dc4da1e44e36a1ca8d22b",
            "0x000000000000000000000000e75177ed629a4770e2da00e1395c28a5f9b745d4"
          ],
          "data": "0x000000000000000000000000000000000000000000000000000000000000762f00000000000000000000000000000000000000000000000000005af3107a400000000000000000000000000000000000000000000000000000005af3107a4000",
          "blockHash": "0x28ea9195653dcfccbfe78497e61fbc736ca04148223404dc29252e77073167b9",
          "blockNumber": "0x1072d786",
          "transactionHash": "0x00f61cabc31c9a35fd2e75e8149ace9dec856091216e8622057ec3f0e8a1441a",
          "transactionIndex": "0x0",
          "logIndex": "0x18",
          "removed": false
        },
        {
          "address": "0x00000000bc4aef4ba6363a437455cb1af19e2aeb",
          "topics": [
            "0xddf252ad1be2c89b69c2b068fc378daa952ba7f163c4a11628f55a4df523b3ef",
            "0x000000000000000000000000e75177ed629a4770e2da00e1395c28a5f9b745d4",
            "0x0000000000000000000000000000000000000000000000000000000000000000"
          ],
          "data": "0x00000000000000000000000000000000000000000000000000005af3107a4000",
          "blockHash": "0x28ea9195653dcfccbfe78497e61fbc736ca04148223404dc29252e77073167b9",
          "blockNumber": "0x1072d786",
          "transactionHash": "0x00f61cabc31c9a35fd2e75e8149ace9dec856091216e8622057ec3f0e8a1441a",
          "transactionIndex": "0x0",
          "logIndex": "0x19",
          "removed": false
        },
        {
          "address": "0xc39161c743d0307eb9bcc9fef03eeb9dc4802de7",
          "topics": [
            "0x61ed099e74a97a1d7f8bb0952a88ca8b7b8ebd00c126ea04671f92a81213318a"
          ],
          "data": "0x0000000000000000000000004208d6e27538189bb48e603d6123a94b8abe0a0b00000000000000000000000000000000000000000000000001d9cb5edcbe7d20",
          "blockHash": "0x28ea9195653dcfccbfe78497e61fbc736ca04148223404dc29252e77073167b9",
          "blockNumber": "0x1072d786",
          "transactionHash": "0x00f61cabc31c9a35fd2e75e8149ace9dec856091216e8622057ec3f0e8a1441a",
          "transactionIndex": "0x0",
          "logIndex": "0x1a",
          "removed": false
        },
        {
          "address": "0xc39161c743d0307eb9bcc9fef03eeb9dc4802de7",
          "topics": [
            "0x07ea52d82345d6e838192107d8fd7123d9c2ec8e916cd0aad13fd2b60db24644"
          ],
          "data": "0x000000000000000000000000000000000000000000000000000000000000006000000000000000000000000000000000000000000000000000000000000000e000000000000000000000000000000000000000000000000000000000000001000000000000000000000000000000000000000000000000000000000000000003000000000000000000000000282b3386571f7f794450d5789911a9804fa346b40000000000000000000000005fddd320a1e29bb466fa635661b125d51d976f92000000000000000000000000d6412412c5817aaac5fd37bb96b1d64caf56db1600000000000000000000000000000000000000000000000000000000000000000000000000000000000000000000000000000000000000000000000000000003000000000000000000000000000000000000000000000000004bfe5db7e70a8d000000000000000000000000000000000000000000000000004bfe5db7e70a8d000000000000000000000000000000000000000000000000004bfe5db7e70a8d",
          "blockHash": "0x28ea9195653dcfccbfe78497e61fbc736ca04148223404dc29252e77073167b9",
          "blockNumber": "0x1072d786",
          "transactionHash": "0x00f61cabc31c9a35fd2e75e8149ace9dec856091216e8622057ec3f0e8a1441a",
          "transactionIndex": "0x0",
          "logIndex": "0x1b",
          "removed": false
        },
        {
          "address": "0x6f475642a6e85809b1c36fa62763669b1b48dd5b",
          "topics": [
            "0x1ab700d4ced0c005b164c0f789fd09fcbb0156d4c2041b8a3bfbcd961cd1567f"
          ],
          "data": "0x00000000000000000000000000000000000000000000000000000000000000600000000000000000000000000000000000000000000000000000000000000120000000000000000000000000c39161c743d0307eb9bcc9fef03eeb9dc4802de70000000000000000000000000000000000000000000000000000000000000099010000000000000001000076ac00000000000000000000000000000000bc4aef4ba6363a437455cb1af19e2aeb0000762f00000000000000000000000075c38d46001b0f8108c4136216bd2694982c20fc4589361ab596efef57894d13e10fe9aa3843912df5444a79656bfe5838f59c7f000000000000000000000000741f0d8bde14140f62107fc60a0ee122b37d4630000000000000006400000000000000000000000000000000000000000000000000000000000000000000000000001600030100110100000000000000000000000000030d4000000000000000000000",
          "blockHash": "0x28ea9195653dcfccbfe78497e61fbc736ca04148223404dc29252e77073167b9",
          "blockNumber": "0x1072d786",
          "transactionHash": "0x00f61cabc31c9a35fd2e75e8149ace9dec856091216e8622057ec3f0e8a1441a",
          "transactionIndex": "0x0",
          "logIndex": "0x1c",
          "removed": false
        },
        {
          "address": "0x00000000bc4aef4ba6363a437455cb1af19e2aeb",
          "topics": [
            "0x85496b760a4b7f8d66384b9df21b381f5d1b1e79f229a47aaf4c232edc2fe59a",
            "0x4589361ab596efef57894d13e10fe9aa3843912df5444a79656bfe5838f59c7f",
            "0x000000000000000000000000e75177ed629a4770e2da00e1395c28a5f9b745d4"
          ],
          "data": "0x000000000000000000000000000000000000000000000000000000000000762f00000000000000000000000000000000000000000000000000005af3107a400000000000000000000000000000000000000000000000000000005af3107a4000",
          "blockHash": "0x28ea9195653dcfccbfe78497e61fbc736ca04148223404dc29252e77073167b9",
          "blockNumber": "0x1072d786",
          "transactionHash": "0x00f61cabc31c9a35fd2e75e8149ace9dec856091216e8622057ec3f0e8a1441a",
          "transactionIndex": "0x0",
          "logIndex": "0x1d",
          "removed": false
        }
      ],
      "logsBloom": "0x00100020000040000000020004000402000000000020000004020100200400000000000000000000000000800001000000000000000002000040000000000010000002000000000000000009000000080140000000000000000000000000000000000000020000008020000000000800000020000000000000000011000000000000000000800000080000880000000000004008080020040000000002000000000000008000000000100000000000000000000000400000000460000000100000000012000000000000008080000000001100000000000000000100008020004010040001000000000000000000002000000000008000000000000000000000",
      "type": "0x2",
      "transactionHash": "0x00f61cabc31c9a35fd2e75e8149ace9dec856091216e8622057ec3f0e8a1441a",
      "transactionIndex": "0x0",
      "blockHash": "0x28ea9195653dcfccbfe78497e61fbc736ca04148223404dc29252e77073167b9",
      "blockNumber": "0x1072d786",
      "gasUsed": "0x71f85c",
      "effectiveGasPrice": "0x165a0bc00",
      "from": "0x45dce8e4f2dc005a5f28206a46cb034697eeda8e",
      "to": "0xe75177ed629a4770e2da00e1395c28a5f9b745d4",
      "contractAddress": null
    }
  ],
  "libraries": [],
  "pending": [],
  "returns": {},
  "timestamp": 1775681290099,
  "chain": 5031,
  "commit": "7a0e940"
}