{
  "transactions": [
    {
      "hash": "0xa3e403aef1db0f759bc9a91257b6f3e97288991aa836e40b48b541aef9a57500",
      "transactionType": "CALL",
      "contractName": null,
      "contractAddress": "0x741f0d8bde14140f62107fc60a0ee122b37d4630",
      "function": "setEnforcedOptions((uint32,uint16,bytes)[])",
      "arguments": [
        "[(30255, 1, 0x00030100110100000000000000000000000000030d40), (30255, 2, 0x0003010011010000000000000000000000000003d090)]"
      ],
      "transaction": {
        "from": "0x45dce8e4f2dc005a5f28206a46cb034697eeda8e",
        "to": "0x741f0d8bde14140f62107fc60a0ee122b37d4630",
        "gas": "0x1c77e4",
        "value": "0x0",
        "input": "0xb98bd07000000000000000000000000000000000000000000000000000000000000000200000000000000000000000000000000000000000000000000000000000000002000000000000000000000000000000000000000000000000000000000000004000000000000000000000000000000000000000000000000000000000000000e0000000000000000000000000000000000000000000000000000000000000762f00000000000000000000000000000000000000000000000000000000000000010000000000000000000000000000000000000000000000000000000000000060000000000000000000000000000000000000000000000000000000000000001600030100110100000000000000000000000000030d4000000000000000000000000000000000000000000000000000000000000000000000000000000000762f0000000000000000000000000000000000000000000000000000000000000002000000000000000000000000000000000000000000000000000000000000006000000000000000000000000000000000000000000000000000000000000000160003010011010000000000000000000000000003d09000000000000000000000",
        "nonce": "0x13",
        "chainId": "0x13a7"
      },
      "additionalContracts": [],
      "isFixedGasLimit": false
    },
    {
      "hash": "0x2d272e3e319c7588d5356175885a3a2b82c0fa5da79d8d4e41d26eb1ee46b873",
      "transactionType": "CALL",
      "contractName": null,
      "contractAddress": "0x741f0d8bde14140f62107fc60a0ee122b37d4630",
      "function": "setPeer(uint32,bytes32)",
      "arguments": [
        "30255",
        "0x00000000000000000000000057558cb8d6005de0bae8a2789d5efaae52dba5a8"
      ],
      "transaction": {
        "from": "0x45dce8e4f2dc005a5f28206a46cb034697eeda8e",
        "to": "0x741f0d8bde14140f62107fc60a0ee122b37d4630",
        "gas": "0x11d71c",
        "value": "0x0",
        "input": "0x3400288b000000000000000000000000000000000000000000000000000000000000762f00000000000000000000000057558cb8d6005de0bae8a2789d5efaae52dba5a8",
        "nonce": "0x14",
        "chainId": "0x13a7"
      },
      "additionalContracts": [],
      "isFixedGasLimit": false
    },
    {
      "hash": "0xa665ea253c90259b1b95e967d9caf3c2c4cf91e668e62533ffb78da72e4df5b9",
      "transactionType": "CALL",
      "contractName": null,
      "contractAddress": "0x6f475642a6e85809b1c36fa62763669b1b48dd5b",
      "function": "setConfig(address,address,(uint32,uint32,bytes)[])",
      "arguments": [
        "0x741F0d8Bde14140f62107FC60A0EE122B37D4630",
        "0xC39161c743D0307EB9BCc9FEF03eeb9Dc4802de7",
        "[(30255, 2, 0x0000000000000000000000000000000000000000000000000000000000000020000000000000000000000000000000000000000000000000000000000000000000000000000000000000000000000000000000000000000000000000000000030000000000000000000000000000000000000000000000000000000000000000000000000000000000000000000000000000000000000000000000000000000000000000000000000000000000000000000000000000000000000000000000c000000000000000000000000000000000000000000000000000000000000001400000000000000000000000000000000000000000000000000000000000000003000000000000000000000000282b3386571f7f794450d5789911a9804fa346b40000000000000000000000005fddd320a1e29bb466fa635661b125d51d976f92000000000000000000000000d6412412c5817aaac5fd37bb96b1d64caf56db160000000000000000000000000000000000000000000000000000000000000000)]"
      ],
      "transaction": {
        "from": "0x45dce8e4f2dc005a5f28206a46cb034697eeda8e",
        "to": "0x6f475642a6e85809b1c36fa62763669b1b48dd5b",
        "gas": "0x34b778",
        "value": "0x0",
        "input": "0x6dbd9f90000000000000000000000000741f0d8bde14140f62107fc60a0ee122b37d4630000000000000000000000000c39161c743d0307eb9bcc9fef03eeb9dc4802de7000000000000000000000000000000000000000000000000000000000000006000000000000000000000000000000000000000000000000000000000000000010000000000000000000000000000000000000000000000000000000000000020000000000000000000000000000000000000000000000000000000000000762f0000000000000000000000000000000000000000000000000000000000000002000000000000000000000000000000000000000000000000000000000000006000000000000000000000000000000000000000000000000000000000000001800000000000000000000000000000000000000000000000000000000000000020000000000000000000000000000000000000000000000000000000000000000000000000000000000000000000000000000000000000000000000000000000030000000000000000000000000000000000000000000000000000000000000000000000000000000000000000000000000000000000000000000000000000000000000000000000000000000000000000000000000000000000000000000000c000000000000000000000000000000000000000000000000000000000000001400000000000000000000000000000000000000000000000000000000000000003000000000000000000000000282b3386571f7f794450d5789911a9804fa346b40000000000000000000000005fddd320a1e29bb466fa635661b125d51d976f92000000000000000000000000d6412412c5817aaac5fd37bb96b1d64caf56db160000000000000000000000000000000000000000000000000000000000000000",
        "nonce": "0x15",
        "chainId": "0x13a7"
      },
      "additionalContracts": [],
      "isFixedGasLimit": false
    },
    {
      "hash": "0x5150431b97d9322b493d3264ddc019f02bef33476fb2cbcdcb0335d91ad65573",
      "transactionType": "CALL",
      "contractName": null,
      "contractAddress": "0x6f475642a6e85809b1c36fa62763669b1b48dd5b",
      "function": "setConfig(address,address,(uint32,uint32,bytes)[])",
      "arguments": [
        "0x741F0d8Bde14140f62107FC60A0EE122B37D4630",
        "0xe1844c5D63a9543023008D332Bd3d2e6f1FE1043",
        "[(30255, 2, 0x0000000000000000000000000000000000000000000000000000000000000020000000000000000000000000000000000000000000000000000000000000000000000000000000000000000000000000000000000000000000000000000000030000000000000000000000000000000000000000000000000000000000000000000000000000000000000000000000000000000000000000000000000000000000000000000000000000000000000000000000000000000000000000000000c000000000000000000000000000000000000000000000000000000000000001400000000000000000000000000000000000000000000000000000000000000003000000000000000000000000282b3386571f7f794450d5789911a9804fa346b40000000000000000000000005fddd320a1e29bb466fa635661b125d51d976f92000000000000000000000000d6412412c5817aaac5fd37bb96b1d64caf56db160000000000000000000000000000000000000000000000000000000000000000)]"
      ],
      "transaction": {
        "from": "0x45dce8e4f2dc005a5f28206a46cb034697eeda8e",
        "to": "0x6f475642a6e85809b1c36fa62763669b1b48dd5b",
        "gas": "0x37baa4",
        "value": "0x0",
        "input": "0x6dbd9f90000000000000000000000000741f0d8bde14140f62107fc60a0ee122b37d4630000000000000000000000000e1844c5d63a9543023008d332bd3d2e6f1fe1043000000000000000000000000000000000000000000000000000000000000006000000000000000000000000000000000000000000000000000000000000000010000000000000000000000000000000000000000000000000000000000000020000000000000000000000000000000000000000000000000000000000000762f0000000000000000000000000000000000000000000000000000000000000002000000000000000000000000000000000000000000000000000000000000006000000000000000000000000000000000000000000000000000000000000001800000000000000000000000000000000000000000000000000000000000000020000000000000000000000000000000000000000000000000000000000000000000000000000000000000000000000000000000000000000000000000000000030000000000000000000000000000000000000000000000000000000000000000000000000000000000000000000000000000000000000000000000000000000000000000000000000000000000000000000000000000000000000000000000c000000000000000000000000000000000000000000000000000000000000001400000000000000000000000000000000000000000000000000000000000000003000000000000000000000000282b3386571f7f794450d5789911a9804fa346b40000000000000000000000005fddd320a1e29bb466fa635661b125d51d976f92000000000000000000000000d6412412c5817aaac5fd37bb96b1d64caf56db160000000000000000000000000000000000000000000000000000000000000000",
        "nonce": "0x16",
        "chainId": "0x13a7"
      },
      "additionalContracts": [],
      "isFixedGasLimit": false
    },
    {
      "hash": "0x8aa213e9654adf8c6100e4225043e1e262816c3371e33c8cf86a18652914404d",
      "transactionType": "CALL",
      "contractName": null,
      "contractAddress": "0x6f475642a6e85809b1c36fa62763669b1b48dd5b",
      "function": "setSendLibrary(address,uint32,address)",
      "arguments": [
        "0x741F0d8Bde14140f62107FC60A0EE122B37D4630",
        "30255",
        "0xC39161c743D0307EB9BCc9FEF03eeb9Dc4802de7"
      ],
      "transaction": {
        "from": "0x45dce8e4f2dc005a5f28206a46cb034697eeda8e",
        "to": "0x6f475642a6e85809b1c36fa62763669b1b48dd5b",
        "gas": "0x12b8f8",
        "value": "0x0",
        "input": "0x9535ff30000000000000000000000000741f0d8bde14140f62107fc60a0ee122b37d4630000000000000000000000000000000000000000000000000000000000000762f000000000000000000000000c39161c743d0307eb9bcc9fef03eeb9dc4802de7",
        "nonce": "0x17",
        "chainId": "0x13a7"
      },
      "additionalContracts": [],
      "isFixedGasLimit": false
    },
    {
      "hash": "0x5a07f6f57b138f4ad7a792e4bbc47c897aa57363c4418281810b04c507658584",
      "transactionType": "CALL",
      "contractName": null,
      "contractAddress": "0x6f475642a6e85809b1c36fa62763669b1b48dd5b",
      "function": "setReceiveLibrary(address,uint32,address,uint256)",
      "arguments": [
        "0x741F0d8Bde14140f62107FC60A0EE122B37D4630",
        "30255",
        "0xe1844c5D63a9543023008D332Bd3d2e6f1FE1043",
        "0"
      ],
      "transaction": {
        "from": "0x45dce8e4f2dc005a5f28206a46cb034697eeda8e",
        "to": "0x6f475642a6e85809b1c36fa62763669b1b48dd5b",
        "gas": "0x14e218",
        "value": "0x0",
        "input": "0x6a14d715000000000000000000000000741f0d8bde14140f62107fc60a0ee122b37d4630000000000000000000000000000000000000000000000000000000000000762f000000000000000000000000e1844c5d63a9543023008d332bd3d2e6f1fe10430000000000000000000000000000000000000000000000000000000000000000",
        "nonce": "0x18",
        "chainId": "0x13a7"
      },
      "additionalContracts": [],
      "isFixedGasLimit": false
    }
  ],
  "receipts": [
    {
      "status": "0x1",
      "cumulativeGasUsed": "0x6ce35",
      "logs": [
        {
          "address": "0x741f0d8bde14140f62107fc60a0ee122b37d4630",
          "topics": [
            "0xbe4864a8e820971c0247f5992e2da559595f7bf076a21cb5928d443d2a13b674"
          ],
          "data": "0x00000000000000000000000000000000000000000000000000000000000000200000000000000000000000000000000000000000000000000000000000000002000000000000000000000000000000000000000000000000000000000000004000000000000000000000000000000000000000000000000000000000000000e0000000000000000000000000000000000000000000000000000000000000762f00000000000000000000000000000000000000000000000000000000000000010000000000000000000000000000000000000000000000000000000000000060000000000000000000000000000000000000000000000000000000000000001600030100110100000000000000000000000000030d4000000000000000000000000000000000000000000000000000000000000000000000000000000000762f0000000000000000000000000000000000000000000000000000000000000002000000000000000000000000000000000000000000000000000000000000006000000000000000000000000000000000000000000000000000000000000000160003010011010000000000000000000000000003d09000000000000000000000",
          "blockHash": "0xf1103ea3093c803dccc19b3a3f8f363c645917b18e2854e3d2792f4f05fc5078",
          "blockNumber": "0xfa61487",
          "transactionHash": "0x8aa213e9654adf8c6100e4225043e1e262816c3371e33c8cf86a18652914404d",
          "transactionIndex": "0x1",
          "logIndex": "0x1",
          "removed": false
        }
      ],
      "logsBloom": "0x00000000000000000000000000000000000000000000000000000000000000000000000000000000000000000000000000000000000000000000400000000000000000000000000000000000000000000000000000000000000000000000000000000000000000000000000000000000000000000004000000000000000000000000000000000000000000000000000000000000000000000000000000080000000000000000000000000000020000000000000000000000000000000000000000000000000000000000000002000000000000000000000000000000000000000000000000200000000000000000000000000000000000000000000000000000",
      "type": "0x2",
      "transactionHash": "0x8aa213e9654adf8c6100e4225043e1e262816c3371e33c8cf86a18652914404d",
      "transactionIndex": "0x1",
      "blockHash": "0xf1103ea3093c803dccc19b3a3f8f363c645917b18e2854e3d2792f4f05fc5078",
      "blockNumber": "0xfa61487",
      "gasUsed": "0x8fa88",
      "effectiveGasPrice": "0x165a0bc00",
      "from": "0x45dce8e4f2dc005a5f28206a46cb034697eeda8e",
      "to": "0x741f0d8bde14140f62107fc60a0ee122b37d4630",
      "contractAddress": null
    },
    {
      "status": "0x1",
      "cumulativeGasUsed": "0xfc8bd",
      "logs": [
        {
          "address": "0x741f0d8bde14140f62107fc60a0ee122b37d4630",
          "topics": [
            "0x238399d427b947898edb290f5ff0f9109849b1c3ba196a42e35f00c50a54b98b"
          ],
          "data": "0x000000000000000000000000000000000000000000000000000000000000762f00000000000000000000000057558cb8d6005de0bae8a2789d5efaae52dba5a8",
          "blockHash": "0xf1103ea3093c803dccc19b3a3f8f363c645917b18e2854e3d2792f4f05fc5078",
          "blockNumber": "0xfa61487",
          "transactionHash": "0x5150431b97d9322b493d3264ddc019f02bef33476fb2cbcdcb0335d91ad65573",
          "transactionIndex": "0x2",
          "logIndex": "0x2",
          "removed": false
        }
      ],
      "logsBloom": "0x00000000000000000000000000000000000000000000000000000000000000000000000000000000000000000000000000000000000000000800000000000000000000000000000000000000000000000000000000000000000000000000000000000000000000000000000000000000000000000004000000000000000000000000000000000000000000000000000000000000000000000000000000000000000000000000000000000000020000000000000000000000000002000000000000000000000000000000000000000000000000000000000000040000000000000000000000200000000000000000000000000000000000000000000000000000",
      "type": "0x2",
      "transactionHash": "0x5150431b97d9322b493d3264ddc019f02bef33476fb2cbcdcb0335d91ad65573",
      "transactionIndex": "0x2",
      "blockHash": "0xf1103ea3093c803dccc19b3a3f8f363c645917b18e2854e3d2792f4f05fc5078",
      "blockNumber": "0xfa61487",
      "gasUsed": "0x3df97",
      "effectiveGasPrice": "0x165a0bc00",
      "from": "0x45dce8e4f2dc005a5f28206a46cb034697eeda8e",
      "to": "0x741f0d8bde14140f62107fc60a0ee122b37d4630",
      "contractAddress": null
    },
    {
      "status": "0x1",
      "cumulativeGasUsed": "0x13a854",
      "logs": [
        {
          "address": "0xc39161c743d0307eb9bcc9fef03eeb9dc4802de7",
          "topics": [
            "0x82118522aa536ac0e96cc5c689407ae42b89d592aa133890a01f1509842f5081"
          ],
          "data": "0x000000000000000000000000741f0d8bde14140f62107fc60a0ee122b37d4630000000000000000000000000000000000000000000000000000000000000762f0000000000000000000000000000000000000000000000000000000000000060000000000000000000000000000000000000000000000000000000000000000000000000000000000000000000000000000000000000000000000000000000030000000000000000000000000000000000000000000000000000000000000000000000000000000000000000000000000000000000000000000000000000000000000000000000000000000000000000000000000000000000000000000000c000000000000000000000000000000000000000000000000000000000000001400000000000000000000000000000000000000000000000000000000000000003000000000000000000000000282b3386571f7f794450d5789911a9804fa346b40000000000000000000000005fddd320a1e29bb466fa635661b125d51d976f92000000000000000000000000d6412412c5817aaac5fd37bb96b1d64caf56db160000000000000000000000000000000000000000000000000000000000000000",
          "blockHash": "0xf1103ea3093c803dccc19b3a3f8f363c645917b18e2854e3d2792f4f05fc5078",
          "blockNumber": "0xfa61487",
          "transactionHash": "0xa665ea253c90259b1b95e967d9caf3c2c4cf91e668e62533ffb78da72e4df5b9",
          "transactionIndex": "0x3",
          "logIndex": "0x3",
          "removed": false
        }
      ],
      "logsBloom": "0x00100000000000000000000000000000000000000000000000000000000000000000000000000000000000000000000000000000000000000000000000000000000000000000000000000000000000000000000000000000002000000000000000000000000000000020000000000000000000000000000000000000000000000000000000800000000000000000000000000000000000000000000000000000000000000000000000000002000000000000000000000000000000000000000000000000000000000000000000000000000000000000000000000000000000000000000000000000000000000000000000000000000000000000000000000010",
      "type": "0x2",
      "transactionHash": "0xa665ea253c90259b1b95e967d9caf3c2c4cf91e668e62533ffb78da72e4df5b9",
      "transactionIndex": "0x3",
      "blockHash": "0xf1103ea3093c803dccc19b3a3f8f363c645917b18e2854e3d2792f4f05fc5078",
      "blockNumber": "0xfa61487",
      "gasUsed": "0x12f05d",
      "effectiveGasPrice": "0x165a0bc00",
      "from": "0x45dce8e4f2dc005a5f28206a46cb034697eeda8e",
      "to": "0x6f475642a6e85809b1c36fa62763669b1b48dd5b",
      "contractAddress": null
    },
    {
      "status": "0x1",
      "cumulativeGasUsed": "0x2698b1",
      "logs": [
        {
          "address": "0xe1844c5d63a9543023008d332bd3d2e6f1fe1043",
          "topics": [
            "0x82118522aa536ac0e96cc5c689407ae42b89d592aa133890a01f1509842f5081"
          ],
          "data": "0x000000000000000000000000741f0d8bde14140f62107fc60a0ee122b37d4630000000000000000000000000000000000000000000000000000000000000762f0000000000000000000000000000000000000000000000000000000000000060000000000000000000000000000000000000000000000000000000000000000000000000000000000000000000000000000000000000000000000000000000030000000000000000000000000000000000000000000000000000000000000000000000000000000000000000000000000000000000000000000000000000000000000000000000000000000000000000000000000000000000000000000000c000000000000000000000000000000000000000000000000000000000000001400000000000000000000000000000000000000000000000000000000000000003000000000000000000000000282b3386571f7f794450d5789911a9804fa346b40000000000000000000000005fddd320a1e29bb466fa635661b125d51d976f92000000000000000000000000d6412412c5817aaac5fd37bb96b1d64caf56db160000000000000000000000000000000000000000000000000000000000000000",
          "blockHash": "0xf1103ea3093c803dccc19b3a3f8f363c645917b18e2854e3d2792f4f05fc5078",
          "blockNumber": "0xfa61487",
          "transactionHash": "0x5a07f6f57b138f4ad7a792e4bbc47c897aa57363c4418281810b04c507658584",
          "transactionIndex": "0x4",
          "logIndex": "0x4",
          "removed": false
        }
      ],
      "logsBloom": "0x00000000000000000000000000000000020000000000000000000000000000000000000000000000000000000000000000000000000000000000000000000000000000000000000000000000000000000000000000000000002000000000000000000000000000000000000000000000000000000000000000000000000000000000000000000000000000000000000000000000000000000000000000000000000000000000000000000002000000000000000000000000000000000000000000000000000000000000000000000000000000008000000000000000000000000000000000000002000000000000000000000000000000000000000000000010",
      "type": "0x2",
      "transactionHash": "0x5a07f6f57b138f4ad7a792e4bbc47c897aa57363c4418281810b04c507658584",
      "transactionIndex": "0x4",
      "blockHash": "0xf1103ea3093c803dccc19b3a3f8f363c645917b18e2854e3d2792f4f05fc5078",
      "blockNumber": "0xfa61487",
      "gasUsed": "0x12ef67",
      "effectiveGasPrice": "0x165a0bc00",
      "from": "0x45dce8e4f2dc005a5f28206a46cb034697eeda8e",
      "to": "0x6f475642a6e85809b1c36fa62763669b1b48dd5b",
      "contractAddress": null
    },
    {
      "status": "0x1",
      "cumulativeGasUsed": "0x398818",
      "logs": [
        {
          "address": "0x6f475642a6e85809b1c36fa62763669b1b48dd5b",
          "topics": [
            "0x4cff966ebee29a156dcb34cf72c1d06231fb1777f6bdf6e8089819232f002b1c"
          ],
          "data": "0x000000000000000000000000741f0d8bde14140f62107fc60a0ee122b37d4630000000000000000000000000000000000000000000000000000000000000762f000000000000000000000000c39161c743d0307eb9bcc9fef03eeb9dc4802de7",
          "blockHash": "0xf1103ea3093c803dccc19b3a3f8f363c645917b18e2854e3d2792f4f05fc5078",
          "blockNumber": "0xfa61487",
          "transactionHash": "0x2d272e3e319c7588d5356175885a3a2b82c0fa5da79d8d4e41d26eb1ee46b873",
          "transactionIndex": "0x5",
          "logIndex": "0x5",
          "removed": false
        }
      ],
      "logsBloom": "0x00000000000000000000000000000000000200000000000000000000000000000000000000000000000000000000000000000000000000000000000001000000000000000000000000000000000000000140000000000000000000000000000000000000000000000000000000000000000000000000000000000000000000000000000000000000000000000000000000000000000000000000000000000000000000000000000000000000000000000000000000000000000000000000000000000000000000000000000000000000000000000000000000000000000000004040000000000000000000000000000000000000000000000000000000000000",
      "type": "0x2",
      "transactionHash": "0x2d272e3e319c7588d5356175885a3a2b82c0fa5da79d8d4e41d26eb1ee46b873",
      "transactionIndex": "0x5",
      "blockHash": "0xf1103ea3093c803dccc19b3a3f8f363c645917b18e2854e3d2792f4f05fc5078",
      "blockNumber": "0xfa61487",
      "gasUsed": "0x43a10",
      "effectiveGasPrice": "0x165a0bc00",
      "from": "0x45dce8e4f2dc005a5f28206a46cb034697eeda8e",
      "to": "0x6f475642a6e85809b1c36fa62763669b1b48dd5b",
      "contractAddress": null
    },
    {
      "status": "0x1",
      "cumulativeGasUsed": "0x3dc228",
      "logs": [
        {
          "address": "0x6f475642a6e85809b1c36fa62763669b1b48dd5b",
          "topics": [
            "0xcd6f92f5ac6185a5acfa02c92090746cec64d777269cbcd0ed031e396657a1c2"
          ],
          "data": "0x000000000000000000000000741f0d8bde14140f62107fc60a0ee122b37d4630000000000000000000000000000000000000000000000000000000000000762f000000000000000000000000e1844c5d63a9543023008d332bd3d2e6f1fe1043",
          "blockHash": "0xf1103ea3093c803dccc19b3a3f8f363c645917b18e2854e3d2792f4f05fc5078",
          "blockNumber": "0xfa61487",
          "transactionHash": "0xa3e403aef1db0f759bc9a91257b6f3e97288991aa836e40b48b541aef9a57500",
          "transactionIndex": "0x6",
          "logIndex": "0x6",
          "removed": false
        },
        {
          "address": "0x6f475642a6e85809b1c36fa62763669b1b48dd5b",
          "topics": [
            "0x4e0a5bbfa0c11a64effb1ada324b5437a17272e1aed9320398715ef71bb20928"
          ],
          "data": "0x000000000000000000000000741f0d8bde14140f62107fc60a0ee122b37d4630000000000000000000000000000000000000000000000000000000000000762f00000000000000000000000000000000000000000000000000000000000000000000000000000000000000000000000000000000000000000000000000000000",
          "blockHash": "0xf1103ea3093c803dccc19b3a3f8f363c645917b18e2854e3d2792f4f05fc5078",
          "blockNumber": "0xfa61487",
          "transactionHash": "0xa3e403aef1db0f759bc9a91257b6f3e97288991aa836e40b48b541aef9a57500",
          "transactionIndex": "0x6",
          "logIndex": "0x7",
          "removed": false
        }
      ],
      "logsBloom": "0x00000000000000000000020800000000000000000000000000000000000000020400000000000000000000000000000000000000000000000000000000000000000000000000000000000000000000000140000000800000000000000000000000000000000000000000000000000000000000000000000000000000000000100000000000000000000000000000000000000000000000000000000000000000000000000000000000000000000000000000000000000000000000000000000000000000000000000000000000000000000000000000000000000000000000004000000000000000000000000000000000000000000000000000000000000000",
      "type": "0x2",
      "transactionHash": "0xa3e403aef1db0f759bc9a91257b6f3e97288991aa836e40b48b541aef9a57500",
      "transactionIndex": "0x6",
      "blockHash": "0xf1103ea3093c803dccc19b3a3f8f363c645917b18e2854e3d2792f4f05fc5078",
      "blockNumber": "0xfa61487",
      "gasUsed": "0x4cf51",
      "effectiveGasPrice": "0x165a0bc00",
      "from": "0x45dce8e4f2dc005a5f28206a46cb034697eeda8e",
      "to": "0x6f475642a6e85809b1c36fa62763669b1b48dd5b",
      "contractAddress": null
    }
  ],
  "libraries": [],
  "pending": [],
  "returns": {},
  "timestamp": 1774330591377,
  "chain": 5031,
  "commit": "a684b10"
}