{
  "transactions": [
    {
      "hash": null,
      "transactionType": "CALL",
      "contractName": null,
      "contractAddress": "0x8ee7e00790c18f28b65bc4771f2a8273d88f2a54",
      "function": "setEnforcedOptions((uint32,uint16,bytes)[])",
      "arguments": [
        "[(40161, 1, 0x00030100110100000000000000000000000000030d40), (40161, 2, 0x0003010011010000000000000000000000000003d090)]"
      ],
      "transaction": {
        "from": "0x0990be6db8c785fbbf9ded8baec612a10cae814b",
        "to": "0x8ee7e00790c18f28b65bc4771f2a8273d88f2a54",
        "gas": "0x1f5d4",
        "value": "0x0",
        "input": "0xb98bd07000000000000000000000000000000000000000000000000000000000000000200000000000000000000000000000000000000000000000000000000000000002000000000000000000000000000000000000000000000000000000000000004000000000000000000000000000000000000000000000000000000000000000e00000000000000000000000000000000000000000000000000000000000009ce100000000000000000000000000000000000000000000000000000000000000010000000000000000000000000000000000000000000000000000000000000060000000000000000000000000000000000000000000000000000000000000001600030100110100000000000000000000000000030d40000000000000000000000000000000000000000000000000000000000000000000000000000000009ce10000000000000000000000000000000000000000000000000000000000000002000000000000000000000000000000000000000000000000000000000000006000000000000000000000000000000000000000000000000000000000000000160003010011010000000000000000000000000003d09000000000000000000000",
        "nonce": "0x13",
        "chainId": "0xa5bd",
        "feeToken": null,
        "calls": [],
        "keyType": null,
        "keyData": null
      },
      "additionalContracts": [],
      "isFixedGasLimit": false
    },
    {
      "hash": null,
      "transactionType": "CALL",
      "contractName": null,
      "contractAddress": "0x8ee7e00790c18f28b65bc4771f2a8273d88f2a54",
      "function": "setPeer(uint32,bytes32)",
      "arguments": [
        "40161",
        "0x00000000000000000000000029a5134d3b22f47ad52e0a22a63247363e9f35c2"
      ],
      "transaction": {
        "from": "0x0990be6db8c785fbbf9ded8baec612a10cae814b",
        "to": "0x8ee7e00790c18f28b65bc4771f2a8273d88f2a54",
        "gas": "0x139e4",
        "value": "0x0",
        "input": "0x3400288b0000000000000000000000000000000000000000000000000000000000009ce100000000000000000000000029a5134d3b22f47ad52e0a22a63247363e9f35c2",
        "nonce": "0x14",
        "chainId": "0xa5bd",
        "feeToken": null,
        "calls": [],
        "keyType": null,
        "keyData": null
      },
      "additionalContracts": [],
      "isFixedGasLimit": false
    },
    {
      "hash": null,
      "transactionType": "CALL",
      "contractName": null,
      "contractAddress": "0x50c21fe63c28191ccdc167961992a63e14393565",
      "function": "setSendLibrary(address,uint32,address)",
      "arguments": [
        "0x8Ee7E00790c18f28B65BC4771F2a8273D88f2A54",
        "40161",
        "0xB8CFaA12Bf058492Ed6F9c746d1DaCf9356076Bc"
      ],
      "transaction": {
        "from": "0x0990be6db8c785fbbf9ded8baec612a10cae814b",
        "to": "0x50c21fe63c28191ccdc167961992a63e14393565",
        "gas": "0x1378b",
        "value": "0x0",
        "input": "0x9535ff300000000000000000000000008ee7e00790c18f28b65bc4771f2a8273d88f2a540000000000000000000000000000000000000000000000000000000000009ce1000000000000000000000000b8cfaa12bf058492ed6f9c746d1dacf9356076bc",
        "nonce": "0x15",
        "chainId": "0xa5bd",
        "feeToken": null,
        "calls": [],
        "keyType": null,
        "keyData": null
      },
      "additionalContracts": [],
      "isFixedGasLimit": false
    },
    {
      "hash": null,
      "transactionType": "CALL",
      "contractName": null,
      "contractAddress": "0x50c21fe63c28191ccdc167961992a63e14393565",
      "function": "setReceiveLibrary(address,uint32,address,uint256)",
      "arguments": [
        "0x8Ee7E00790c18f28B65BC4771F2a8273D88f2A54",
        "40161",
        "0x417cb9E12cfe7301c8b6ef8f63ffac55263e147C",
        "0"
      ],
      "transaction": {
        "from": "0x0990be6db8c785fbbf9ded8baec612a10cae814b",
        "to": "0x50c21fe63c28191ccdc167961992a63e14393565",
        "gas": "0x17001",
        "value": "0x0",
        "input": "0x6a14d7150000000000000000000000008ee7e00790c18f28b65bc4771f2a8273d88f2a540000000000000000000000000000000000000000000000000000000000009ce1000000000000000000000000417cb9e12cfe7301c8b6ef8f63ffac55263e147c0000000000000000000000000000000000000000000000000000000000000000",
        "nonce": "0x16",
        "chainId": "0xa5bd",
        "feeToken": null,
        "calls": [],
        "keyType": null,
        "keyData": null
      },
      "additionalContracts": [],
      "isFixedGasLimit": false
    },
    {
      "hash": null,
      "transactionType": "CALL",
      "contractName": null,
      "contractAddress": "0x8ee7e00790c18f28b65bc4771f2a8273d88f2a54",
      "function": "setDelegate(address)",
      "arguments": [
        "0x0990be6dB8c785FBbF9deD8bAEc612A10CaE814b"
      ],
      "transaction": {
        "from": "0x0990be6db8c785fbbf9ded8baec612a10cae814b",
        "to": "0x8ee7e00790c18f28b65bc4771f2a8273d88f2a54",
        "gas": "0xce47",
        "value": "0x0",
        "input": "0xca5eb5e10000000000000000000000000990be6db8c785fbbf9ded8baec612a10cae814b",
        "nonce": "0x17",
        "chainId": "0xa5bd",
        "feeToken": null,
        "calls": [],
        "keyType": null,
        "keyData": null
      },
      "additionalContracts": [],
      "isFixedGasLimit": false
    },
    {
      "hash": null,
      "transactionType": "CALL",
      "contractName": null,
      "contractAddress": "0x8ee7e00790c18f28b65bc4771f2a8273d88f2a54",
      "function": "transferOwnership(address)",
      "arguments": [
        "0x0990be6dB8c785FBbF9deD8bAEc612A10CaE814b"
      ],
      "transaction": {
        "from": "0x0990be6db8c785fbbf9ded8baec612a10cae814b",
        "to": "0x8ee7e00790c18f28b65bc4771f2a8273d88f2a54",
        "gas": "0xb2a6",
        "value": "0x0",
        "input": "0xf2fde38b0000000000000000000000000990be6db8c785fbbf9ded8baec612a10cae814b",
        "nonce": "0x18",
        "chainId": "0xa5bd",
        "feeToken": null,
        "calls": [],
        "keyType": null,
        "keyData": null
      },
      "additionalContracts": [],
      "isFixedGasLimit": false
    },
    {
      "hash": null,
      "transactionType": "CALL",
      "contractName": null,
      "contractAddress": "0x223a681fc5c5522c85c96157c0efa18cd6c5405c",
      "function": "transferOwnership(address)",
      "arguments": [
        "0x0990be6dB8c785FBbF9deD8bAEc612A10CaE814b"
      ],
      "transaction": {
        "from": "0x0990be6db8c785fbbf9ded8baec612a10cae814b",
        "to": "0x223a681fc5c5522c85c96157c0efa18cd6c5405c",
        "gas": "0x8b32",
        "value": "0x0",
        "input": "0xf2fde38b0000000000000000000000000990be6db8c785fbbf9ded8baec612a10cae814b",
        "nonce": "0x19",
        "chainId": "0xa5bd",
        "feeToken": null,
        "calls": [],
        "keyType": null,
        "keyData": null
      },
      "additionalContracts": [],
      "isFixedGasLimit": false
    }
  ],
  "receipts": [],
  "libraries": [],
  "pending": [],
  "returns": {},
  "timestamp": 1768539724416,
  "chain": 42429,
  "commit": "94683e0"
}