{
  "transactions": [
    {
      "hash": "0x4eb48d2f3346c4023600709b8d1df0794d1dfa2f96895d239f89962da49ab5bc",
      "transactionType": "CALL",
      "contractName": null,
      "contractAddress": "0x741f0d8bde14140f62107fc60a0ee122b37d4630",
      "function": "batchBridgeWithEthFeeFromWallet((uint32,bytes32,uint256,uint256,bytes,bytes,bytes)[],address[],address[])",
      "arguments": [
        "[(30380, 0x000000000000000000000000e75177ed629a4770e2da00e1395c28a5f9b745d4, 250000000000000000, 0, 0x, 0x, 0x)]",
        "[0x57558Cb8d6005DE0BAe8a2789d5EfaaE52dba5a8]",
        "[0x741F0d8Bde14140f62107FC60A0EE122B37D4630]"
      ],
      "transaction": {
        "from": "0x45dce8e4f2dc005a5f28206a46cb034697eeda8e",
        "to": "0x741f0d8bde14140f62107fc60a0ee122b37d4630",
        "gas": "0x8e43f",
        "value": "0xb1dd460caa54be",
        "input": "0xb70d4241000000000000000000000000000000000000000000000000000000000000006000000000000000000000000000000000000000000000000000000000000001e000000000000000000000000000000000000000000000000000000000000002200000000000000000000000000000000000000000000000000000000000000001000000000000000000000000000000000000000000000000000000000000002000000000000000000000000000000000000000000000000000000000000076ac000000000000000000000000e75177ed629a4770e2da00e1395c28a5f9b745d400000000000000000000000000000000000000000000000003782dace9d90000000000000000000000000000000000000000000000000000000000000000000000000000000000000000000000000000000000000000000000000000000000e000000000000000000000000000000000000000000000000000000000000001000000000000000000000000000000000000000000000000000000000000000120000000000000000000000000000000000000000000000000000000000000000000000000000000000000000000000000000000000000000000000000000000000000000000000000000000000000000000000000000000000000000000000000000000000000000000000000000000000000000000000000000000000000000100000000000000000000000057558cb8d6005de0bae8a2789d5efaae52dba5a80000000000000000000000000000000000000000000000000000000000000001000000000000000000000000741f0d8bde14140f62107fc60a0ee122b37d4630",
        "nonce": "0x147",
        "chainId": "0xfc"
      },
      "additionalContracts": [],
      "isFixedGasLimit": false
    }
  ],
  "receipts": [
    {
      "status": "0x1",
      "cumulativeGasUsed": "0x6d158",
      "logs": [
        {
          "address": "0x57558cb8d6005de0bae8a2789d5efaae52dba5a8",
          "topics": [
            "0xddf252ad1be2c89b69c2b068fc378daa952ba7f163c4a11628f55a4df523b3ef",
            "0x000000000000000000000000741f0d8bde14140f62107fc60a0ee122b37d4630",
            "0x0000000000000000000000000000000000000000000000000000000000000000"
          ],
          "data": "0x00000000000000000000000000000000000000000000000003782dace9d90000",
          "blockHash": "0x88447561c616a0efa9139b1e6b287843db09252c9f3449b3e1942169b0733b3a",
          "blockNumber": "0x20325e5",
          "blockTimestamp": "0x69c22921",
          "transactionHash": "0x4eb48d2f3346c4023600709b8d1df0794d1dfa2f96895d239f89962da49ab5bc",
          "transactionIndex": "0x1",
          "logIndex": "0x0",
          "removed": false
        },
        {
          "address": "0x377530cda84dfb2673bf4d145dcf0c4d7fdcb5b6",
          "topics": [
            "0x61ed099e74a97a1d7f8bb0952a88ca8b7b8ebd00c126ea04671f92a81213318a"
          ],
          "data": "0x00000000000000000000000041bdb4aa4a63a5b2efc531858d3118392b1a1c3d00000000000000000000000000000000000000000000000000af634540599924",
          "blockHash": "0x88447561c616a0efa9139b1e6b287843db09252c9f3449b3e1942169b0733b3a",
          "blockNumber": "0x20325e5",
          "blockTimestamp": "0x69c22921",
          "transactionHash": "0x4eb48d2f3346c4023600709b8d1df0794d1dfa2f96895d239f89962da49ab5bc",
          "transactionIndex": "0x1",
          "logIndex": "0x1",
          "removed": false
        },
        {
          "address": "0x377530cda84dfb2673bf4d145dcf0c4d7fdcb5b6",
          "topics": [
            "0x07ea52d82345d6e838192107d8fd7123d9c2ec8e916cd0aad13fd2b60db24644"
          ],
          "data": "0x000000000000000000000000000000000000000000000000000000000000006000000000000000000000000000000000000000000000000000000000000000e00000000000000000000000000000000000000000000000000000000000000100000000000000000000000000000000000000000000000000000000000000000300000000000000000000000026cd5abadf7ec3f0f02b48314bfca6b2342cddd4000000000000000000000000cce466a522984415bc91338c232d98869193d46e000000000000000000000000dd7b5e1db4aafd5c8ec3b764efb8ed265aa5445b000000000000000000000000000000000000000000000000000000000000000000000000000000000000000000000000000000000000000000000000000000030000000000000000000000000000000000000000000000000000d92cdd9214800000000000000000000000000000000000000000000000000000d069f75f538d0000000000000000000000000000000000000000000000000000d069f75f538d",
          "blockHash": "0x88447561c616a0efa9139b1e6b287843db09252c9f3449b3e1942169b0733b3a",
          "blockNumber": "0x20325e5",
          "blockTimestamp": "0x69c22921",
          "transactionHash": "0x4eb48d2f3346c4023600709b8d1df0794d1dfa2f96895d239f89962da49ab5bc",
          "transactionIndex": "0x1",
          "logIndex": "0x2",
          "removed": false
        },
        {
          "address": "0x1a44076050125825900e736c501f859c50fe728c",
          "topics": [
            "0x1ab700d4ced0c005b164c0f789fd09fcbb0156d4c2041b8a3bfbcd961cd1567f"
          ],
          "data": "0x00000000000000000000000000000000000000000000000000000000000000600000000000000000000000000000000000000000000000000000000000000120000000000000000000000000377530cda84dfb2673bf4d145dcf0c4d7fdcb5b600000000000000000000000000000000000000000000000000000000000000990100000000000000020000762f00000000000000000000000057558cb8d6005de0bae8a2789d5efaae52dba5a8000076ac000000000000000000000000741f0d8bde14140f62107fc60a0ee122b37d46307a34dd523459cf57c705ea5621d8dd5425b2eccc7d3057d66f22196035ac07ad000000000000000000000000e75177ed629a4770e2da00e1395c28a5f9b745d4000000000003d090000000000000000000000000000000000000000000000000000000000000000000000000000016000301001101000000000000000000000000001e848000000000000000000000",
          "blockHash": "0x88447561c616a0efa9139b1e6b287843db09252c9f3449b3e1942169b0733b3a",
          "blockNumber": "0x20325e5",
          "blockTimestamp": "0x69c22921",
          "transactionHash": "0x4eb48d2f3346c4023600709b8d1df0794d1dfa2f96895d239f89962da49ab5bc",
          "transactionIndex": "0x1",
          "logIndex": "0x3",
          "removed": false
        },
        {
          "address": "0x57558cb8d6005de0bae8a2789d5efaae52dba5a8",
          "topics": [
            "0x85496b760a4b7f8d66384b9df21b381f5d1b1e79f229a47aaf4c232edc2fe59a",
            "0x7a34dd523459cf57c705ea5621d8dd5425b2eccc7d3057d66f22196035ac07ad",
            "0x000000000000000000000000741f0d8bde14140f62107fc60a0ee122b37d4630"
          ],
          "data": "0x00000000000000000000000000000000000000000000000000000000000076ac00000000000000000000000000000000000000000000000003782dace9d9000000000000000000000000000000000000000000000000000003782dace9d90000",
          "blockHash": "0x88447561c616a0efa9139b1e6b287843db09252c9f3449b3e1942169b0733b3a",
          "blockNumber": "0x20325e5",
          "blockTimestamp": "0x69c22921",
          "transactionHash": "0x4eb48d2f3346c4023600709b8d1df0794d1dfa2f96895d239f89962da49ab5bc",
          "transactionIndex": "0x1",
          "logIndex": "0x4",
          "removed": false
        }
      ],
      "logsBloom": "0x0000000000000000000000000004004000002000000000000000000000100000000000000000000000000000000000040004010000000000000000000000000000000200000000000000000800000000000000000000000000000000000000000000000002000000800000000000080000000000001000000000041000000000000000000000002000000008000000000000000000000000000000000000000000000000a000001000100000000000000000000000400000000440000000000000000002000000000000000080000000000000000000000000000000000020000001040000000000000000000000002000000000018000000000000000000000",
      "type": "0x2",
      "transactionHash": "0x4eb48d2f3346c4023600709b8d1df0794d1dfa2f96895d239f89962da49ab5bc",
      "transactionIndex": "0x1",
      "blockHash": "0x88447561c616a0efa9139b1e6b287843db09252c9f3449b3e1942169b0733b3a",
      "blockNumber": "0x20325e5",
      "gasUsed": "0x61469",
      "effectiveGasPrice": "0xf433e",
      "from": "0x45dce8e4f2dc005a5f28206a46cb034697eeda8e",
      "to": "0x741f0d8bde14140f62107fc60a0ee122b37d4630",
      "contractAddress": null,
      "l1BaseFeeScalar": "0x2faf080",
      "l1BlobBaseFee": "0x263094",
      "l1BlobBaseFeeScalar": "0x0",
      "l1Fee": "0x493f30fc996",
      "l1GasPrice": "0x2325a8f",
      "l1GasUsed": "0xaab"
    }
  ],
  "libraries": [],
  "pending": [],
  "returns": {},
  "timestamp": 1774332194180,
  "chain": 252,
  "commit": "a684b10"
}