{
  "transactions": [
    {
      "hash": "0x8124bb96dd4d97402efa8bbd0283e3f4364428b6fca1e73ef715a94168d03db4",
      "transactionType": "CALL",
      "contractName": null,
      "contractAddress": "0xe75177ed629a4770e2da00e1395c28a5f9b745d4",
      "function": "batchBridgeWithEthFeeFromWallet((uint32,bytes32,uint256,uint256,bytes,bytes,bytes)[],address[],address[])",
      "arguments": [
        "[(30255, 0x000000000000000000000000741f0d8bde14140f62107fc60a0ee122b37d4630, 250000000000000000, 0, 0x, 0x, 0x)]",
        "[0x741F0d8Bde14140f62107FC60A0EE122B37D4630]",
        "[0xE75177ED629a4770e2DA00e1395c28A5f9B745d4]"
      ],
      "transaction": {
        "from": "0x45dce8e4f2dc005a5f28206a46cb034697eeda8e",
        "to": "0xe75177ed629a4770e2da00e1395c28a5f9b745d4",
        "gas": "0x9ac85",
        "value": "0x1eb1ec7d2d0eb3b",
        "input": "0xb70d4241000000000000000000000000000000000000000000000000000000000000006000000000000000000000000000000000000000000000000000000000000001e0000000000000000000000000000000000000000000000000000000000000022000000000000000000000000000000000000000000000000000000000000000010000000000000000000000000000000000000000000000000000000000000020000000000000000000000000000000000000000000000000000000000000762f000000000000000000000000741f0d8bde14140f62107fc60a0ee122b37d463000000000000000000000000000000000000000000000000003782dace9d90000000000000000000000000000000000000000000000000000000000000000000000000000000000000000000000000000000000000000000000000000000000e0000000000000000000000000000000000000000000000000000000000000010000000000000000000000000000000000000000000000000000000000000001200000000000000000000000000000000000000000000000000000000000000000000000000000000000000000000000000000000000000000000000000000000000000000000000000000000000000000000000000000000000000000000000000000000000000000000000000000000000000000000000000000000000000001000000000000000000000000741f0d8bde14140f62107fc60a0ee122b37d46300000000000000000000000000000000000000000000000000000000000000001000000000000000000000000e75177ed629a4770e2da00e1395c28a5f9b745d4",
        "nonce": "0x19",
        "chainId": "0x13a7"
      },
      "additionalContracts": [],
      "isFixedGasLimit": false
    }
  ],
  "receipts": [],
  "libraries": [],
  "pending": [],
  "returns": {},
  "timestamp": 1774333256782,
  "chain": 5031,
  "commit": "a684b10"
}