{
  "transactions": [
    {
      "hash": "0xfc2a65fc9a1d3a2abd76dac0a92231fb38f48d570913b900a99e070a16fbfc6d",
      "transactionType": "CALL",
      "contractName": null,
      "contractAddress": "0xe75177ed629a4770e2da00e1395c28a5f9b745d4",
      "function": "batchBridgeWithEthFeeFromWallet((uint32,bytes32,uint256,uint256,bytes,bytes,bytes)[],address[],address[])",
      "arguments": [
        "[(30255, 0x000000000000000000000000741f0d8bde14140f62107fc60a0ee122b37d4630, 250000000000000000, 0, 0x, 0x, 0x)]",
        "[0x741F0d8Bde14140f62107FC60A0EE122B37D4630]",
        "[0xE75177ED629a4770e2DA00e1395c28A5f9B745d4]"
      ],
      "transaction": {
        "from": "0x45dce8e4f2dc005a5f28206a46cb034697eeda8e",
        "to": "0xe75177ed629a4770e2da00e1395c28a5f9b745d4",
        "gas": "0x4a6a28",
        "value": "0x1eb1ec7d2d0eb3b",
        "input": "0xb70d4241000000000000000000000000000000000000000000000000000000000000006000000000000000000000000000000000000000000000000000000000000001e0000000000000000000000000000000000000000000000000000000000000022000000000000000000000000000000000000000000000000000000000000000010000000000000000000000000000000000000000000000000000000000000020000000000000000000000000000000000000000000000000000000000000762f000000000000000000000000741f0d8bde14140f62107fc60a0ee122b37d463000000000000000000000000000000000000000000000000003782dace9d90000000000000000000000000000000000000000000000000000000000000000000000000000000000000000000000000000000000000000000000000000000000e0000000000000000000000000000000000000000000000000000000000000010000000000000000000000000000000000000000000000000000000000000001200000000000000000000000000000000000000000000000000000000000000000000000000000000000000000000000000000000000000000000000000000000000000000000000000000000000000000000000000000000000000000000000000000000000000000000000000000000000000000000000000000000000000001000000000000000000000000741f0d8bde14140f62107fc60a0ee122b37d46300000000000000000000000000000000000000000000000000000000000000001000000000000000000000000e75177ed629a4770e2da00e1395c28a5f9b745d4",
        "nonce": "0x1a",
        "chainId": "0x13a7"
      },
      "additionalContracts": [],
      "isFixedGasLimit": false
    }
  ],
  "receipts": [
    {
      "status": "0x1",
      "cumulativeGasUsed": "0x0",
      "logs": [
        {
          "address": "0x741f0d8bde14140f62107fc60a0ee122b37d4630",
          "topics": [
            "0xddf252ad1be2c89b69c2b068fc378daa952ba7f163c4a11628f55a4df523b3ef",
            "0x000000000000000000000000e75177ed629a4770e2da00e1395c28a5f9b745d4",
            "0x0000000000000000000000000000000000000000000000000000000000000000"
          ],
          "data": "0x00000000000000000000000000000000000000000000000003782dace9d90000",
          "blockHash": "0x6ad96b82dbb8d8f44ecf60fe0b48e5c4cdd10c3e1c06c5e5a6370828414a7da3",
          "blockNumber": "0xfa67d5a",
          "transactionHash": "0xfc2a65fc9a1d3a2abd76dac0a92231fb38f48d570913b900a99e070a16fbfc6d",
          "transactionIndex": "0x0",
          "logIndex": "0x0",
          "removed": false
        },
        {
          "address": "0xc39161c743d0307eb9bcc9fef03eeb9dc4802de7",
          "topics": [
            "0x61ed099e74a97a1d7f8bb0952a88ca8b7b8ebd00c126ea04671f92a81213318a"
          ],
          "data": "0x0000000000000000000000004208d6e27538189bb48e603d6123a94b8abe0a0b000000000000000000000000000000000000000000000000019fabdd51614854",
          "blockHash": "0x6ad96b82dbb8d8f44ecf60fe0b48e5c4cdd10c3e1c06c5e5a6370828414a7da3",
          "blockNumber": "0xfa67d5a",
          "transactionHash": "0xfc2a65fc9a1d3a2abd76dac0a92231fb38f48d570913b900a99e070a16fbfc6d",
          "transactionIndex": "0x0",
          "logIndex": "0x1",
          "removed": false
        },
        {
          "address": "0xc39161c743d0307eb9bcc9fef03eeb9dc4802de7",
          "topics": [
            "0x07ea52d82345d6e838192107d8fd7123d9c2ec8e916cd0aad13fd2b60db24644"
          ],
          "data": "0x000000000000000000000000000000000000000000000000000000000000006000000000000000000000000000000000000000000000000000000000000000e000000000000000000000000000000000000000000000000000000000000001000000000000000000000000000000000000000000000000000000000000000003000000000000000000000000282b3386571f7f794450d5789911a9804fa346b40000000000000000000000005fddd320a1e29bb466fa635661b125d51d976f92000000000000000000000000d6412412c5817aaac5fd37bb96b1d64caf56db16000000000000000000000000000000000000000000000000000000000000000000000000000000000000000000000000000000000000000000000000000000030000000000000000000000000000000000000000000000000019264e2b25364d0000000000000000000000000000000000000000000000000019264e2b25364d0000000000000000000000000000000000000000000000000019264e2b25364d",
          "blockHash": "0x6ad96b82dbb8d8f44ecf60fe0b48e5c4cdd10c3e1c06c5e5a6370828414a7da3",
          "blockNumber": "0xfa67d5a",
          "transactionHash": "0xfc2a65fc9a1d3a2abd76dac0a92231fb38f48d570913b900a99e070a16fbfc6d",
          "transactionIndex": "0x0",
          "logIndex": "0x2",
          "removed": false
        },
        {
          "address": "0x6f475642a6e85809b1c36fa62763669b1b48dd5b",
          "topics": [
            "0x1ab700d4ced0c005b164c0f789fd09fcbb0156d4c2041b8a3bfbcd961cd1567f"
          ],
          "data": "0x00000000000000000000000000000000000000000000000000000000000000600000000000000000000000000000000000000000000000000000000000000120000000000000000000000000c39161c743d0307eb9bcc9fef03eeb9dc4802de70000000000000000000000000000000000000000000000000000000000000099010000000000000001000076ac000000000000000000000000741f0d8bde14140f62107fc60a0ee122b37d46300000762f00000000000000000000000057558cb8d6005de0bae8a2789d5efaae52dba5a8c12cdb9ccb31014d1570fc31c6e430e605b47800e82c56a030a3a599bd8f6b2d000000000000000000000000741f0d8bde14140f62107fc60a0ee122b37d4630000000000003d09000000000000000000000000000000000000000000000000000000000000000000000000000001600030100110100000000000000000000000000030d4000000000000000000000",
          "blockHash": "0x6ad96b82dbb8d8f44ecf60fe0b48e5c4cdd10c3e1c06c5e5a6370828414a7da3",
          "blockNumber": "0xfa67d5a",
          "transactionHash": "0xfc2a65fc9a1d3a2abd76dac0a92231fb38f48d570913b900a99e070a16fbfc6d",
          "transactionIndex": "0x0",
          "logIndex": "0x3",
          "removed": false
        },
        {
          "address": "0x741f0d8bde14140f62107fc60a0ee122b37d4630",
          "topics": [
            "0x85496b760a4b7f8d66384b9df21b381f5d1b1e79f229a47aaf4c232edc2fe59a",
            "0xc12cdb9ccb31014d1570fc31c6e430e605b47800e82c56a030a3a599bd8f6b2d",
            "0x000000000000000000000000e75177ed629a4770e2da00e1395c28a5f9b745d4"
          ],
          "data": "0x000000000000000000000000000000000000000000000000000000000000762f00000000000000000000000000000000000000000000000003782dace9d9000000000000000000000000000000000000000000000000000003782dace9d90000",
          "blockHash": "0x6ad96b82dbb8d8f44ecf60fe0b48e5c4cdd10c3e1c06c5e5a6370828414a7da3",
          "blockNumber": "0xfa67d5a",
          "transactionHash": "0xfc2a65fc9a1d3a2abd76dac0a92231fb38f48d570913b900a99e070a16fbfc6d",
          "transactionIndex": "0x0",
          "logIndex": "0x4",
          "removed": false
        }
      ],
      "logsBloom": "0x00100000000000000000000000000000000000001000000000000000000000000000000000000000000000000000000000000000000000000000000000000100000002000000000000000008000000000140000000000000000000000000000000000000020000008020000000000800000020000004000000000010000000000000000000800000000000080001000000000000000020000000000000000000000000008000000000100000020000000000000000400000000440000000000000000002000000000000000080000000000000000000000000000000000020004000040001200000000000000000002000000000008000000000000000000000",
      "type": "0x2",
      "transactionHash": "0xfc2a65fc9a1d3a2abd76dac0a92231fb38f48d570913b900a99e070a16fbfc6d",
      "transactionIndex": "0x0",
      "blockHash": "0x6ad96b82dbb8d8f44ecf60fe0b48e5c4cdd10c3e1c06c5e5a6370828414a7da3",
      "blockNumber": "0xfa67d5a",
      "gasUsed": "0x13ad03",
      "effectiveGasPrice": "0x165a0bc00",
      "from": "0x45dce8e4f2dc005a5f28206a46cb034697eeda8e",
      "to": "0xe75177ed629a4770e2da00e1395c28a5f9b745d4",
      "contractAddress": null
    }
  ],
  "libraries": [],
  "pending": [],
  "returns": {},
  "timestamp": 1774333290720,
  "chain": 5031,
  "commit": "a684b10"
}