{
  "transactions": [
    {
      "hash": "0x1576eeb2697b6cfd6fabc7b596a088db4f6fd1ab979a323ce1c1b85efb6356f0",
      "transactionType": "CALL",
      "contractName": null,
      "contractAddress": "0xfeec000000000000000000000000000000000000",
      "function": "setUserToken(address)",
      "arguments": [
        "0x20C00000000000000000000000000000001116e8"
      ],
      "transaction": {
        "from": "0x0990be6db8c785fbbf9ded8baec612a10cae814b",
        "to": "0xfeec000000000000000000000000000000000000",
        "value": "0x0",
        "input": "0xe789744400000000000000000000000020c00000000000000000000000000000001116e8",
        "nonce": "0x21",
        "chainId": "0xa5bd",
        "feeToken": null,
        "calls": [],
        "keyType": null,
        "keyData": null
      },
      "additionalContracts": [],
      "isFixedGasLimit": false
    },
    {
      "hash": "0x5dc2795bef6ad867ff399fd216a42f51b91bb889ed3459cb88809229d921a691",
      "transactionType": "CALL",
      "contractName": null,
      "contractAddress": "0x20c00000000000000000000000000000001116e8",
      "function": "approve(address,uint256)",
      "arguments": [
        "0x8Ee7E00790c18f28B65BC4771F2a8273D88f2A54",
        "5000000"
      ],
      "transaction": {
        "from": "0x0990be6db8c785fbbf9ded8baec612a10cae814b",
        "to": "0x20c00000000000000000000000000000001116e8",
        "value": "0x0",
        "input": "0x095ea7b30000000000000000000000008ee7e00790c18f28b65bc4771f2a8273d88f2a5400000000000000000000000000000000000000000000000000000000004c4b40",
        "nonce": "0x22",
        "chainId": "0xa5bd",
        "feeToken": null,
        "calls": [],
        "keyType": null,
        "keyData": null
      },
      "additionalContracts": [],
      "isFixedGasLimit": false
    },
    {
      "hash": "0x129408701a5e816ea801911c497a749743be12ff2f5fb84eb25f64adb2d9a5aa",
      "transactionType": "CALL",
      "contractName": null,
      "contractAddress": "0x8ee7e00790c18f28b65bc4771f2a8273d88f2a54",
      "function": "send((uint32,bytes32,uint256,uint256,bytes,bytes,bytes),(uint256,uint256),address)",
      "arguments": [
        "(40161, 0x0000000000000000000000001804c8ab1f12e6bbf3894d4083f33e07309d1f38, 1000000, 1000000, 0x, 0x, 0x)",
        "(1729169, 0)",
        "0x1804c8AB1F12E6bbf3894d4083f33e07309d1f38"
      ],
      "transaction": {
        "from": "0x0990be6db8c785fbbf9ded8baec612a10cae814b",
        "to": "0x8ee7e00790c18f28b65bc4771f2a8273d88f2a54",
        "value": "0x0",
        "input": "0xc7c7f5b3000000000000000000000000000000000000000000000000000000000000008000000000000000000000000000000000000000000000000000000000001a629100000000000000000000000000000000000000000000000000000000000000000000000000000000000000001804c8ab1f12e6bbf3894d4083f33e07309d1f380000000000000000000000000000000000000000000000000000000000009ce10000000000000000000000001804c8ab1f12e6bbf3894d4083f33e07309d1f3800000000000000000000000000000000000000000000000000000000000f424000000000000000000000000000000000000000000000000000000000000f424000000000000000000000000000000000000000000000000000000000000000e000000000000000000000000000000000000000000000000000000000000001000000000000000000000000000000000000000000000000000000000000000120000000000000000000000000000000000000000000000000000000000000000000000000000000000000000000000000000000000000000000000000000000000000000000000000000000000000000000000000000000000000000000000000",
        "nonce": "0x23",
        "chainId": "0xa5bd",
        "feeToken": null,
        "calls": [],
        "keyType": null,
        "keyData": null
      },
      "additionalContracts": [],
      "isFixedGasLimit": false
    }
  ],
  "receipts": [
    {
      "type": "0x2",
      "status": "0x1",
      "cumulativeGasUsed": "0x1aa461",
      "logs": [
        {
          "address": "0xfeec000000000000000000000000000000000000",
          "topics": [
            "0xabc7758d4ca817ce0d125eb731121a1304c36077b791253be835b95472368856",
            "0x0000000000000000000000000990be6db8c785fbbf9ded8baec612a10cae814b",
            "0x00000000000000000000000020c00000000000000000000000000000001116e8"
          ],
          "data": "0x",
          "blockHash": "0x431331b47ed4a9ddc0fa269e48a4e90b14ac3b538f2db12bbdec97669047c53a",
          "blockNumber": "0xaece4e",
          "blockTimestamp": "0x6970443c",
          "transactionHash": "0x1576eeb2697b6cfd6fabc7b596a088db4f6fd1ab979a323ce1c1b85efb6356f0",
          "transactionIndex": "0xf",
          "logIndex": "0x20",
          "removed": false
        },
        {
          "address": "0x20c00000000000000000000000000000001116e8",
          "topics": [
            "0xddf252ad1be2c89b69c2b068fc378daa952ba7f163c4a11628f55a4df523b3ef",
            "0x0000000000000000000000000990be6db8c785fbbf9ded8baec612a10cae814b",
            "0x000000000000000000000000feec000000000000000000000000000000000000"
          ],
          "data": "0x000000000000000000000000000000000000000000000000000000000000012c",
          "blockHash": "0x431331b47ed4a9ddc0fa269e48a4e90b14ac3b538f2db12bbdec97669047c53a",
          "blockNumber": "0xaece4e",
          "blockTimestamp": "0x6970443c",
          "transactionHash": "0x1576eeb2697b6cfd6fabc7b596a088db4f6fd1ab979a323ce1c1b85efb6356f0",
          "transactionIndex": "0xf",
          "logIndex": "0x21",
          "removed": false
        }
      ],
      "logsBloom": "0x00000000000000000000000000400000004000002000000000000000000000000000000000000000000000000000000000000000000000000000000000000000000004000000000000000008400000000000000000000000000000000000000000000000000000000080000000040000000000000000000000000010000000000000000000000000000000000020000000000000000000000000008000000000000020000000000000000000000400000000000000000000000000000000000000000802000000000000000000000000000000000080000000000000000000000000000000000000000100000000000002000800000000000000402000000000",
      "transactionHash": "0x1576eeb2697b6cfd6fabc7b596a088db4f6fd1ab979a323ce1c1b85efb6356f0",
      "transactionIndex": "0xf",
      "blockHash": "0x431331b47ed4a9ddc0fa269e48a4e90b14ac3b538f2db12bbdec97669047c53a",
      "blockNumber": "0xaece4e",
      "gasUsed": "0x750c",
      "effectiveGasPrice": "0x2541727e9",
      "from": "0x0990be6db8c785fbbf9ded8baec612a10cae814b",
      "to": "0xfeec000000000000000000000000000000000000",
      "contractAddress": null,
      "feeToken": "0x20c00000000000000000000000000000001116e8",
      "feePayer": "0x0990be6db8c785fbbf9ded8baec612a10cae814b"
    },
    {
      "type": "0x2",
      "status": "0x1",
      "cumulativeGasUsed": "0x15cc61",
      "logs": [
        {
          "address": "0x20c00000000000000000000000000000001116e8",
          "topics": [
            "0x8c5be1e5ebec7d5bd14f71427d1e84f3dd0314c0f7b2291e5b200ac8c7c3b925",
            "0x0000000000000000000000000990be6db8c785fbbf9ded8baec612a10cae814b",
            "0x0000000000000000000000008ee7e00790c18f28b65bc4771f2a8273d88f2a54"
          ],
          "data": "0x00000000000000000000000000000000000000000000000000000000004c4b40",
          "blockHash": "0x8c034f7426d3e28d6e63892b041e3e31d706ec4672f20a3654821ee368bf9089",
          "blockNumber": "0xaece52",
          "blockTimestamp": "0x6970443e",
          "transactionHash": "0x5dc2795bef6ad867ff399fd216a42f51b91bb889ed3459cb88809229d921a691",
          "transactionIndex": "0x13",
          "logIndex": "0x32",
          "removed": false
        },
        {
          "address": "0x20c00000000000000000000000000000001116e8",
          "topics": [
            "0xddf252ad1be2c89b69c2b068fc378daa952ba7f163c4a11628f55a4df523b3ef",
            "0x0000000000000000000000000990be6db8c785fbbf9ded8baec612a10cae814b",
            "0x000000000000000000000000feec000000000000000000000000000000000000"
          ],
          "data": "0x00000000000000000000000000000000000000000000000000000000000001c8",
          "blockHash": "0x8c034f7426d3e28d6e63892b041e3e31d706ec4672f20a3654821ee368bf9089",
          "blockNumber": "0xaece52",
          "blockTimestamp": "0x6970443e",
          "transactionHash": "0x5dc2795bef6ad867ff399fd216a42f51b91bb889ed3459cb88809229d921a691",
          "transactionIndex": "0x13",
          "logIndex": "0x33",
          "removed": false
        }
      ],
      "logsBloom": "0x00000000000000000000000000400000004000002000000000000000000000008000000000000000000000000000000000000000000000000000000000200000000004000000000000000008400000000000000040000000000000000000000000000000000000000000000000040000000000000000000000000010000000000000000000000000000000000020000000000000000000000000000000000000020020000000000000000000000000000000000000000000400000000000000000000002000000000000000000000000000000000000000000000000000000000010000000000000000000000000000000000000000000000000400000000000",
      "transactionHash": "0x5dc2795bef6ad867ff399fd216a42f51b91bb889ed3459cb88809229d921a691",
      "transactionIndex": "0x13",
      "blockHash": "0x8c034f7426d3e28d6e63892b041e3e31d706ec4672f20a3654821ee368bf9089",
      "blockNumber": "0xaece52",
      "gasUsed": "0xb202",
      "effectiveGasPrice": "0x2541727e9",
      "from": "0x0990be6db8c785fbbf9ded8baec612a10cae814b",
      "to": "0x20c00000000000000000000000000000001116e8",
      "contractAddress": null,
      "feeToken": "0x20c00000000000000000000000000000001116e8",
      "feePayer": "0x0990be6db8c785fbbf9ded8baec612a10cae814b"
    },
    {
      "type": "0x2",
      "status": "0x1",
      "cumulativeGasUsed": "0xee420",
      "logs": [
        {
          "address": "0x8ee7e00790c18f28b65bc4771f2a8273d88f2a54",
          "topics": [
            "0x603e191ccb1fad1c0004c9c1f37101358f84c3cf059031e9ec9b0c17cad34188",
            "0x0000000000000000000000000000000000000000000000000000000000009ce1"
          ],
          "data": "0x00000000000000000000000000000000000000000000000000000000000f424000000000000000000000000000000000000000000000000000000000000f4240",
          "blockHash": "0xeb7b5e63b5366d323b45189d00a216b16f9bd98b57ee51602426ff7f7ed943b1",
          "blockNumber": "0xaece57",
          "blockTimestamp": "0x69704441",
          "transactionHash": "0x129408701a5e816ea801911c497a749743be12ff2f5fb84eb25f64adb2d9a5aa",
          "transactionIndex": "0x3",
          "logIndex": "0xb",
          "removed": false
        },
        {
          "address": "0x8ee7e00790c18f28b65bc4771f2a8273d88f2a54",
          "topics": [
            "0xd2ff7607bbad14e866630d67da40c9a9cedd964cce5ce4c3dc4176133954ef98"
          ],
          "data": "0x00000000000000000000000000000000000000000000000000000000000f424000000000000000000000000000000000000000000000000000000000000f4240",
          "blockHash": "0xeb7b5e63b5366d323b45189d00a216b16f9bd98b57ee51602426ff7f7ed943b1",
          "blockNumber": "0xaece57",
          "blockTimestamp": "0x69704441",
          "transactionHash": "0x129408701a5e816ea801911c497a749743be12ff2f5fb84eb25f64adb2d9a5aa",
          "transactionIndex": "0x3",
          "logIndex": "0xc",
          "removed": false
        },
        {
          "address": "0x20c00000000000000000000000000000001116e8",
          "topics": [
            "0xddf252ad1be2c89b69c2b068fc378daa952ba7f163c4a11628f55a4df523b3ef",
            "0x0000000000000000000000000990be6db8c785fbbf9ded8baec612a10cae814b",
            "0x0000000000000000000000008ee7e00790c18f28b65bc4771f2a8273d88f2a54"
          ],
          "data": "0x00000000000000000000000000000000000000000000000000000000000f4240",
          "blockHash": "0xeb7b5e63b5366d323b45189d00a216b16f9bd98b57ee51602426ff7f7ed943b1",
          "blockNumber": "0xaece57",
          "blockTimestamp": "0x69704441",
          "transactionHash": "0x129408701a5e816ea801911c497a749743be12ff2f5fb84eb25f64adb2d9a5aa",
          "transactionIndex": "0x3",
          "logIndex": "0xd",
          "removed": false
        },
        {
          "address": "0x20c00000000000000000000000000000001116e8",
          "topics": [
            "0xddf252ad1be2c89b69c2b068fc378daa952ba7f163c4a11628f55a4df523b3ef",
            "0x0000000000000000000000008ee7e00790c18f28b65bc4771f2a8273d88f2a54",
            "0x0000000000000000000000000000000000000000000000000000000000000000"
          ],
          "data": "0x00000000000000000000000000000000000000000000000000000000000f4240",
          "blockHash": "0xeb7b5e63b5366d323b45189d00a216b16f9bd98b57ee51602426ff7f7ed943b1",
          "blockNumber": "0xaece57",
          "blockTimestamp": "0x69704441",
          "transactionHash": "0x129408701a5e816ea801911c497a749743be12ff2f5fb84eb25f64adb2d9a5aa",
          "transactionIndex": "0x3",
          "logIndex": "0xe",
          "removed": false
        },
        {
          "address": "0x20c00000000000000000000000000000001116e8",
          "topics": [
            "0xcc16f5dbb4873280815c1ee09dbd06736cffcc184412cf7a71a0fdb75d397ca5",
            "0x0000000000000000000000008ee7e00790c18f28b65bc4771f2a8273d88f2a54"
          ],
          "data": "0x00000000000000000000000000000000000000000000000000000000000f4240",
          "blockHash": "0xeb7b5e63b5366d323b45189d00a216b16f9bd98b57ee51602426ff7f7ed943b1",
          "blockNumber": "0xaece57",
          "blockTimestamp": "0x69704441",
          "transactionHash": "0x129408701a5e816ea801911c497a749743be12ff2f5fb84eb25f64adb2d9a5aa",
          "transactionIndex": "0x3",
          "logIndex": "0xf",
          "removed": false
        },
        {
          "address": "0x20c00000000000000000000000000000001116e8",
          "topics": [
            "0xddf252ad1be2c89b69c2b068fc378daa952ba7f163c4a11628f55a4df523b3ef",
            "0x0000000000000000000000000990be6db8c785fbbf9ded8baec612a10cae814b",
            "0x0000000000000000000000008ee7e00790c18f28b65bc4771f2a8273d88f2a54"
          ],
          "data": "0x00000000000000000000000000000000000000000000000000000000001a6291",
          "blockHash": "0xeb7b5e63b5366d323b45189d00a216b16f9bd98b57ee51602426ff7f7ed943b1",
          "blockNumber": "0xaece57",
          "blockTimestamp": "0x69704441",
          "transactionHash": "0x129408701a5e816ea801911c497a749743be12ff2f5fb84eb25f64adb2d9a5aa",
          "transactionIndex": "0x3",
          "logIndex": "0x10",
          "removed": false
        },
        {
          "address": "0x20c00000000000000000000000000000001116e8",
          "topics": [
            "0x8c5be1e5ebec7d5bd14f71427d1e84f3dd0314c0f7b2291e5b200ac8c7c3b925",
            "0x0000000000000000000000008ee7e00790c18f28b65bc4771f2a8273d88f2a54",
            "0x000000000000000000000000dec0000000000000000000000000000000000000"
          ],
          "data": "0x00000000000000000000000000000000000000000000000000000000001a6291",
          "blockHash": "0xeb7b5e63b5366d323b45189d00a216b16f9bd98b57ee51602426ff7f7ed943b1",
          "blockNumber": "0xaece57",
          "blockTimestamp": "0x69704441",
          "transactionHash": "0x129408701a5e816ea801911c497a749743be12ff2f5fb84eb25f64adb2d9a5aa",
          "transactionIndex": "0x3",
          "logIndex": "0x11",
          "removed": false
        },
        {
          "address": "0xdec0000000000000000000000000000000000000",
          "topics": [
            "0x16c08f8f2c17b3c8879b3e3cf5efdbdcdfdbd0fcb3890f9d3086f470cd601ddd",
            "0x000000000000000000000000000000000000000000000000000000000065cc3c",
            "0x0000000000000000000000000990be6db8c785fbbf9ded8baec612a10cae814b",
            "0x0000000000000000000000008ee7e00790c18f28b65bc4771f2a8273d88f2a54"
          ],
          "data": "0x00000000000000000000000000000000000000000000000000000000001a62910000000000000000000000000000000000000000000000000000000000000001",
          "blockHash": "0xeb7b5e63b5366d323b45189d00a216b16f9bd98b57ee51602426ff7f7ed943b1",
          "blockNumber": "0xaece57",
          "blockTimestamp": "0x69704441",
          "transactionHash": "0x129408701a5e816ea801911c497a749743be12ff2f5fb84eb25f64adb2d9a5aa",
          "transactionIndex": "0x3",
          "logIndex": "0x12",
          "removed": false
        },
        {
          "address": "0x20c00000000000000000000000000000001116e8",
          "topics": [
            "0xddf252ad1be2c89b69c2b068fc378daa952ba7f163c4a11628f55a4df523b3ef",
            "0x0000000000000000000000008ee7e00790c18f28b65bc4771f2a8273d88f2a54",
            "0x000000000000000000000000dec0000000000000000000000000000000000000"
          ],
          "data": "0x00000000000000000000000000000000000000000000000000000000001a6291",
          "blockHash": "0xeb7b5e63b5366d323b45189d00a216b16f9bd98b57ee51602426ff7f7ed943b1",
          "blockNumber": "0xaece57",
          "blockTimestamp": "0x69704441",
          "transactionHash": "0x129408701a5e816ea801911c497a749743be12ff2f5fb84eb25f64adb2d9a5aa",
          "transactionIndex": "0x3",
          "logIndex": "0x13",
          "removed": false
        },
        {
          "address": "0x20c0000000000000000000000000000000000000",
          "topics": [
            "0xddf252ad1be2c89b69c2b068fc378daa952ba7f163c4a11628f55a4df523b3ef",
            "0x000000000000000000000000dec0000000000000000000000000000000000000",
            "0x0000000000000000000000008ee7e00790c18f28b65bc4771f2a8273d88f2a54"
          ],
          "data": "0x00000000000000000000000000000000000000000000000000000000001a6291",
          "blockHash": "0xeb7b5e63b5366d323b45189d00a216b16f9bd98b57ee51602426ff7f7ed943b1",
          "blockNumber": "0xaece57",
          "blockTimestamp": "0x69704441",
          "transactionHash": "0x129408701a5e816ea801911c497a749743be12ff2f5fb84eb25f64adb2d9a5aa",
          "transactionIndex": "0x3",
          "logIndex": "0x14",
          "removed": false
        },
        {
          "address": "0x20c0000000000000000000000000000000000000",
          "topics": [
            "0xddf252ad1be2c89b69c2b068fc378daa952ba7f163c4a11628f55a4df523b3ef",
            "0x0000000000000000000000008ee7e00790c18f28b65bc4771f2a8273d88f2a54",
            "0x00000000000000000000000050c21fe63c28191ccdc167961992a63e14393565"
          ],
          "data": "0x00000000000000000000000000000000000000000000000000000000001a6291",
          "blockHash": "0xeb7b5e63b5366d323b45189d00a216b16f9bd98b57ee51602426ff7f7ed943b1",
          "blockNumber": "0xaece57",
          "blockTimestamp": "0x69704441",
          "transactionHash": "0x129408701a5e816ea801911c497a749743be12ff2f5fb84eb25f64adb2d9a5aa",
          "transactionIndex": "0x3",
          "logIndex": "0x15",
          "removed": false
        },
        {
          "address": "0xb8cfaa12bf058492ed6f9c746d1dacf9356076bc",
          "topics": [
            "0x61ed099e74a97a1d7f8bb0952a88ca8b7b8ebd00c126ea04671f92a81213318a"
          ],
          "data": "0x000000000000000000000000ed0480d5ef6e1fca85ff715154329da30f2fea96000000000000000000000000000000000000000000000000000000000014878c",
          "blockHash": "0xeb7b5e63b5366d323b45189d00a216b16f9bd98b57ee51602426ff7f7ed943b1",
          "blockNumber": "0xaece57",
          "blockTimestamp": "0x69704441",
          "transactionHash": "0x129408701a5e816ea801911c497a749743be12ff2f5fb84eb25f64adb2d9a5aa",
          "transactionIndex": "0x3",
          "logIndex": "0x16",
          "removed": false
        },
        {
          "address": "0xb8cfaa12bf058492ed6f9c746d1dacf9356076bc",
          "topics": [
            "0x07ea52d82345d6e838192107d8fd7123d9c2ec8e916cd0aad13fd2b60db24644"
          ],
          "data": "0x000000000000000000000000000000000000000000000000000000000000006000000000000000000000000000000000000000000000000000000000000000a000000000000000000000000000000000000000000000000000000000000000c00000000000000000000000000000000000000000000000000000000000000001000000000000000000000000489fd72653924e25de141e9b1d1c2591a115060200000000000000000000000000000000000000000000000000000000000000000000000000000000000000000000000000000000000000000000000000000001000000000000000000000000000000000000000000000000000000000005db05",
          "blockHash": "0xeb7b5e63b5366d323b45189d00a216b16f9bd98b57ee51602426ff7f7ed943b1",
          "blockNumber": "0xaece57",
          "blockTimestamp": "0x69704441",
          "transactionHash": "0x129408701a5e816ea801911c497a749743be12ff2f5fb84eb25f64adb2d9a5aa",
          "transactionIndex": "0x3",
          "logIndex": "0x17",
          "removed": false
        },
        {
          "address": "0x50c21fe63c28191ccdc167961992a63e14393565",
          "topics": [
            "0x1ab700d4ced0c005b164c0f789fd09fcbb0156d4c2041b8a3bfbcd961cd1567f"
          ],
          "data": "0x00000000000000000000000000000000000000000000000000000000000000600000000000000000000000000000000000000000000000000000000000000120000000000000000000000000b8cfaa12bf058492ed6f9c746d1dacf9356076bc000000000000000000000000000000000000000000000000000000000000009901000000000000000200009df70000000000000000000000008ee7e00790c18f28b65bc4771f2a8273d88f2a5400009ce100000000000000000000000029a5134d3b22f47ad52e0a22a63247363e9f35c285fc58e917f49dd3ce2ebb7a9c85bde0d40429dddba02e4ae9a4f83f717b78a70000000000000000000000001804c8ab1f12e6bbf3894d4083f33e07309d1f3800000000000f424000000000000000000000000000000000000000000000000000000000000000000000000000001600030100110100000000000000000000000000030d4000000000000000000000",
          "blockHash": "0xeb7b5e63b5366d323b45189d00a216b16f9bd98b57ee51602426ff7f7ed943b1",
          "blockNumber": "0xaece57",
          "blockTimestamp": "0x69704441",
          "transactionHash": "0x129408701a5e816ea801911c497a749743be12ff2f5fb84eb25f64adb2d9a5aa",
          "transactionIndex": "0x3",
          "logIndex": "0x18",
          "removed": false
        },
        {
          "address": "0x20c0000000000000000000000000000000000000",
          "topics": [
            "0xddf252ad1be2c89b69c2b068fc378daa952ba7f163c4a11628f55a4df523b3ef",
            "0x00000000000000000000000050c21fe63c28191ccdc167961992a63e14393565",
            "0x000000000000000000000000b8cfaa12bf058492ed6f9c746d1dacf9356076bc"
          ],
          "data": "0x00000000000000000000000000000000000000000000000000000000001a6291",
          "blockHash": "0xeb7b5e63b5366d323b45189d00a216b16f9bd98b57ee51602426ff7f7ed943b1",
          "blockNumber": "0xaece57",
          "blockTimestamp": "0x69704441",
          "transactionHash": "0x129408701a5e816ea801911c497a749743be12ff2f5fb84eb25f64adb2d9a5aa",
          "transactionIndex": "0x3",
          "logIndex": "0x19",
          "removed": false
        },
        {
          "address": "0x8ee7e00790c18f28b65bc4771f2a8273d88f2a54",
          "topics": [
            "0x85496b760a4b7f8d66384b9df21b381f5d1b1e79f229a47aaf4c232edc2fe59a",
            "0x85fc58e917f49dd3ce2ebb7a9c85bde0d40429dddba02e4ae9a4f83f717b78a7",
            "0x0000000000000000000000000990be6db8c785fbbf9ded8baec612a10cae814b"
          ],
          "data": "0x0000000000000000000000000000000000000000000000000000000000009ce100000000000000000000000000000000000000000000000000000000000f424000000000000000000000000000000000000000000000000000000000000f4240",
          "blockHash": "0xeb7b5e63b5366d323b45189d00a216b16f9bd98b57ee51602426ff7f7ed943b1",
          "blockNumber": "0xaece57",
          "blockTimestamp": "0x69704441",
          "transactionHash": "0x129408701a5e816ea801911c497a749743be12ff2f5fb84eb25f64adb2d9a5aa",
          "transactionIndex": "0x3",
          "logIndex": "0x1a",
          "removed": false
        },
        {
          "address": "0x20c00000000000000000000000000000001116e8",
          "topics": [
            "0xddf252ad1be2c89b69c2b068fc378daa952ba7f163c4a11628f55a4df523b3ef",
            "0x0000000000000000000000000990be6db8c785fbbf9ded8baec612a10cae814b",
            "0x000000000000000000000000feec000000000000000000000000000000000000"
          ],
          "data": "0x000000000000000000000000000000000000000000000000000000000000156d",
          "blockHash": "0xeb7b5e63b5366d323b45189d00a216b16f9bd98b57ee51602426ff7f7ed943b1",
          "blockNumber": "0xaece57",
          "blockTimestamp": "0x69704441",
          "transactionHash": "0x129408701a5e816ea801911c497a749743be12ff2f5fb84eb25f64adb2d9a5aa",
          "transactionIndex": "0x3",
          "logIndex": "0x1b",
          "removed": false
        }
      ],
      "logsBloom": "0x00000000000000000400400000400000004000002000001010000000000000008000000020000000200000000100000000000000000000020200000000200000000006000000200008000008401004000000000040000000000000000400000080000000020000008000000000840810180000100000000000000050008030004000000000000800000000080020000000000000800100200020000000200000020020008000000000100000000000000000000000400000400440000000000000000002000000000101200084000020000010000000000000000000100020000012040000000000004000000000002200800040008800000000400000000000",
      "transactionHash": "0x129408701a5e816ea801911c497a749743be12ff2f5fb84eb25f64adb2d9a5aa",
      "transactionIndex": "0x3",
      "blockHash": "0xeb7b5e63b5366d323b45189d00a216b16f9bd98b57ee51602426ff7f7ed943b1",
      "blockNumber": "0xaece57",
      "gasUsed": "0x85e38",
      "effectiveGasPrice": "0x2541727e9",
      "from": "0x0990be6db8c785fbbf9ded8baec612a10cae814b",
      "to": "0x8ee7e00790c18f28b65bc4771f2a8273d88f2a54",
      "contractAddress": null,
      "feeToken": "0x20c00000000000000000000000000000001116e8",
      "feePayer": "0x0990be6db8c785fbbf9ded8baec612a10cae814b"
    }
  ],
  "libraries": [],
  "pending": [],
  "returns": {},
  "timestamp": 1768965187026,
  "chain": 42429,
  "commit": "1006358"
}