{
  "transactions": [
    {
      "hash": "0x9c28b04b65a13ab275b8d4451c76915aef2595b16fcaf92580780dcb1991f7b5",
      "transactionType": "CALL",
      "contractName": null,
      "contractAddress": "0xfeec000000000000000000000000000000000000",
      "function": "setUserToken(address)",
      "arguments": [
        "0x20C0000000000000000000000000000000000000"
      ],
      "transaction": {
        "from": "0x0990be6db8c785fbbf9ded8baec612a10cae814b",
        "to": "0xfeec000000000000000000000000000000000000",
        "value": "0x0",
        "input": "0xe789744400000000000000000000000020c0000000000000000000000000000000000000",
        "nonce": "0x28",
        "chainId": "0xa5bd",
        "feeToken": null,
        "calls": [],
        "keyType": null,
        "keyData": null
      },
      "additionalContracts": [],
      "isFixedGasLimit": false
    }
  ],
  "receipts": [
    {
      "type": "0x2",
      "status": "0x1",
      "cumulativeGasUsed": "0x6b04c",
      "logs": [
        {
          "address": "0xfeec000000000000000000000000000000000000",
          "topics": [
            "0xabc7758d4ca817ce0d125eb731121a1304c36077b791253be835b95472368856",
            "0x0000000000000000000000000990be6db8c785fbbf9ded8baec612a10cae814b",
            "0x00000000000000000000000020c0000000000000000000000000000000000000"
          ],
          "data": "0x",
          "blockHash": "0xc5f1d7b2ce3f2fdcfd07a778e1cc0acae79aec7982576bee290d013c22f15830",
          "blockNumber": "0xaeee70",
          "blockTimestamp": "0x697054eb",
          "transactionHash": "0x9c28b04b65a13ab275b8d4451c76915aef2595b16fcaf92580780dcb1991f7b5",
          "transactionIndex": "0x4",
          "logIndex": "0xc",
          "removed": false
        },
        {
          "address": "0x20c0000000000000000000000000000000000000",
          "topics": [
            "0xddf252ad1be2c89b69c2b068fc378daa952ba7f163c4a11628f55a4df523b3ef",
            "0x0000000000000000000000000990be6db8c785fbbf9ded8baec612a10cae814b",
            "0x000000000000000000000000feec000000000000000000000000000000000000"
          ],
          "data": "0x000000000000000000000000000000000000000000000000000000000000012c",
          "blockHash": "0xc5f1d7b2ce3f2fdcfd07a778e1cc0acae79aec7982576bee290d013c22f15830",
          "blockNumber": "0xaeee70",
          "blockTimestamp": "0x697054eb",
          "transactionHash": "0x9c28b04b65a13ab275b8d4451c76915aef2595b16fcaf92580780dcb1991f7b5",
          "transactionIndex": "0x4",
          "logIndex": "0xd",
          "removed": false
        }
      ],
      "logsBloom": "0x00000000000000000000000000000000000000002000000000000000000000000000040000000000000000000100000000000000000000000000000000000000000004000000000000000008400000000000000000000000000000000400000000000000000000000080000000000000000000000000000000000010100000000000000000000000000000000020000000000000800000000000000000000000000020000000000000000000000400000000000000000000000000040000000000000002000000000000000000000000000000000080000000000000000000000000000000000000000100000000000002000800000000000000400000000000",
      "transactionHash": "0x9c28b04b65a13ab275b8d4451c76915aef2595b16fcaf92580780dcb1991f7b5",
      "transactionIndex": "0x4",
      "blockHash": "0xc5f1d7b2ce3f2fdcfd07a778e1cc0acae79aec7982576bee290d013c22f15830",
      "blockNumber": "0xaeee70",
      "gasUsed": "0x74e8",
      "effectiveGasPrice": "0x2541727e9",
      "from": "0x0990be6db8c785fbbf9ded8baec612a10cae814b",
      "to": "0xfeec000000000000000000000000000000000000",
      "contractAddress": null,
      "feeToken": "0x20c0000000000000000000000000000000000000",
      "feePayer": "0x0990be6db8c785fbbf9ded8baec612a10cae814b"
    }
  ],
  "libraries": [],
  "pending": [],
  "returns": {},
  "timestamp": 1768969453077,
  "chain": 42429,
  "commit": "1006358"
}