{
  "transactions": [
    {
      "hash": "0xd3de661e2738f8a62765187f0e12be1d04074c6fa65cb37bc7542162982a2cf0",
      "transactionType": "CALL",
      "contractName": null,
      "contractAddress": "0xfeec000000000000000000000000000000000000",
      "function": "setUserToken(address)",
      "arguments": [
        "0x20C00000000000000000000000000000001116e8"
      ],
      "transaction": {
        "from": "0x0990be6db8c785fbbf9ded8baec612a10cae814b",
        "to": "0xfeec000000000000000000000000000000000000",
        "value": "0x0",
        "input": "0xe789744400000000000000000000000020c00000000000000000000000000000001116e8",
        "nonce": "0x24",
        "chainId": "0xa5bd",
        "feeToken": null,
        "calls": [],
        "keyType": null,
        "keyData": null
      },
      "additionalContracts": [],
      "isFixedGasLimit": false
    },
    {
      "hash": "0x327b024b1743a2ee7b5e04c63c813984d7e9e345176fe87c6c8d3e0e7a5fc28f",
      "transactionType": "CALL",
      "contractName": null,
      "contractAddress": "0x20c00000000000000000000000000000001116e8",
      "function": "approve(address,uint256)",
      "arguments": [
        "0x8Ee7E00790c18f28B65BC4771F2a8273D88f2A54",
        "2729169"
      ],
      "transaction": {
        "from": "0x0990be6db8c785fbbf9ded8baec612a10cae814b",
        "to": "0x20c00000000000000000000000000000001116e8",
        "value": "0x0",
        "input": "0x095ea7b30000000000000000000000008ee7e00790c18f28b65bc4771f2a8273d88f2a54000000000000000000000000000000000000000000000000000000000029a4d1",
        "nonce": "0x25",
        "chainId": "0xa5bd",
        "feeToken": null,
        "calls": [],
        "keyType": null,
        "keyData": null
      },
      "additionalContracts": [],
      "isFixedGasLimit": false
    },
    {
      "hash": "0x1136d3bd39e73d2d308d4283f52da95612bb300ca35b47a10a42da17ecdc05aa",
      "transactionType": "CALL",
      "contractName": null,
      "contractAddress": "0x8ee7e00790c18f28b65bc4771f2a8273d88f2a54",
      "function": "send((uint32,bytes32,uint256,uint256,bytes,bytes,bytes),(uint256,uint256),address)",
      "arguments": [
        "(40161, 0x0000000000000000000000000990be6db8c785fbbf9ded8baec612a10cae814b, 1000000, 1000000, 0x, 0x, 0x)",
        "(1729169, 0)",
        "0x0990be6dB8c785FBbF9deD8bAEc612A10CaE814b"
      ],
      "transaction": {
        "from": "0x0990be6db8c785fbbf9ded8baec612a10cae814b",
        "to": "0x8ee7e00790c18f28b65bc4771f2a8273d88f2a54",
        "value": "0x0",
        "input": "0xc7c7f5b3000000000000000000000000000000000000000000000000000000000000008000000000000000000000000000000000000000000000000000000000001a629100000000000000000000000000000000000000000000000000000000000000000000000000000000000000000990be6db8c785fbbf9ded8baec612a10cae814b0000000000000000000000000000000000000000000000000000000000009ce10000000000000000000000000990be6db8c785fbbf9ded8baec612a10cae814b00000000000000000000000000000000000000000000000000000000000f424000000000000000000000000000000000000000000000000000000000000f424000000000000000000000000000000000000000000000000000000000000000e000000000000000000000000000000000000000000000000000000000000001000000000000000000000000000000000000000000000000000000000000000120000000000000000000000000000000000000000000000000000000000000000000000000000000000000000000000000000000000000000000000000000000000000000000000000000000000000000000000000000000000000000000000000",
        "nonce": "0x26",
        "chainId": "0xa5bd",
        "feeToken": null,
        "calls": [],
        "keyType": null,
        "keyData": null
      },
      "additionalContracts": [],
      "isFixedGasLimit": false
    }
  ],
  "receipts": [
    {
      "type": "0x2",
      "status": "0x1",
      "cumulativeGasUsed": "0x15bca",
      "logs": [
        {
          "address": "0xfeec000000000000000000000000000000000000",
          "topics": [
            "0xabc7758d4ca817ce0d125eb731121a1304c36077b791253be835b95472368856",
            "0x0000000000000000000000000990be6db8c785fbbf9ded8baec612a10cae814b",
            "0x00000000000000000000000020c00000000000000000000000000000001116e8"
          ],
          "data": "0x",
          "blockHash": "0x940272696890bbd7ea3efd9584c8294300e8d0113ec23508fea374d51f27f0b8",
          "blockNumber": "0xaed4f8",
          "blockTimestamp": "0x697047b1",
          "transactionHash": "0xd3de661e2738f8a62765187f0e12be1d04074c6fa65cb37bc7542162982a2cf0",
          "transactionIndex": "0x1",
          "logIndex": "0x2",
          "removed": false
        },
        {
          "address": "0x20c00000000000000000000000000000001116e8",
          "topics": [
            "0xddf252ad1be2c89b69c2b068fc378daa952ba7f163c4a11628f55a4df523b3ef",
            "0x0000000000000000000000000990be6db8c785fbbf9ded8baec612a10cae814b",
            "0x000000000000000000000000feec000000000000000000000000000000000000"
          ],
          "data": "0x0000000000000000000000000000000000000000000000000000000000000110",
          "blockHash": "0x940272696890bbd7ea3efd9584c8294300e8d0113ec23508fea374d51f27f0b8",
          "blockNumber": "0xaed4f8",
          "blockTimestamp": "0x697047b1",
          "transactionHash": "0xd3de661e2738f8a62765187f0e12be1d04074c6fa65cb37bc7542162982a2cf0",
          "transactionIndex": "0x1",
          "logIndex": "0x3",
          "removed": false
        }
      ],
      "logsBloom": "0x00000000000000000000000000400000004000002000000000000000000000000000000000000000000000000000000000000000000000000000000000000000000004000000000000000008400000000000000000000000000000000000000000000000000000000080000000040000000000000000000000000010000000000000000000000000000000000020000000000000000000000000008000000000000020000000000000000000000400000000000000000000000000000000000000000802000000000000000000000000000000000080000000000000000000000000000000000000000100000000000002000800000000000000402000000000",
      "transactionHash": "0xd3de661e2738f8a62765187f0e12be1d04074c6fa65cb37bc7542162982a2cf0",
      "transactionIndex": "0x1",
      "blockHash": "0x940272696890bbd7ea3efd9584c8294300e8d0113ec23508fea374d51f27f0b8",
      "blockNumber": "0xaed4f8",
      "gasUsed": "0x6a1c",
      "effectiveGasPrice": "0x2541727e9",
      "from": "0x0990be6db8c785fbbf9ded8baec612a10cae814b",
      "to": "0xfeec000000000000000000000000000000000000",
      "contractAddress": null,
      "feeToken": "0x20c00000000000000000000000000000001116e8",
      "feePayer": "0x0990be6db8c785fbbf9ded8baec612a10cae814b"
    },
    {
      "type": "0x2",
      "status": "0x1",
      "cumulativeGasUsed": "0x3564c",
      "logs": [
        {
          "address": "0x20c00000000000000000000000000000001116e8",
          "topics": [
            "0x8c5be1e5ebec7d5bd14f71427d1e84f3dd0314c0f7b2291e5b200ac8c7c3b925",
            "0x0000000000000000000000000990be6db8c785fbbf9ded8baec612a10cae814b",
            "0x0000000000000000000000008ee7e00790c18f28b65bc4771f2a8273d88f2a54"
          ],
          "data": "0x000000000000000000000000000000000000000000000000000000000029a4d1",
          "blockHash": "0xe36ad8112892bc33c924c125574b112c273cd363caa8800f20dfcdce8f1856f3",
          "blockNumber": "0xaed4fc",
          "blockTimestamp": "0x697047b3",
          "transactionHash": "0x327b024b1743a2ee7b5e04c63c813984d7e9e345176fe87c6c8d3e0e7a5fc28f",
          "transactionIndex": "0x3",
          "logIndex": "0x8",
          "removed": false
        },
        {
          "address": "0x20c00000000000000000000000000000001116e8",
          "topics": [
            "0xddf252ad1be2c89b69c2b068fc378daa952ba7f163c4a11628f55a4df523b3ef",
            "0x0000000000000000000000000990be6db8c785fbbf9ded8baec612a10cae814b",
            "0x000000000000000000000000feec000000000000000000000000000000000000"
          ],
          "data": "0x000000000000000000000000000000000000000000000000000000000000011d",
          "blockHash": "0xe36ad8112892bc33c924c125574b112c273cd363caa8800f20dfcdce8f1856f3",
          "blockNumber": "0xaed4fc",
          "blockTimestamp": "0x697047b3",
          "transactionHash": "0x327b024b1743a2ee7b5e04c63c813984d7e9e345176fe87c6c8d3e0e7a5fc28f",
          "transactionIndex": "0x3",
          "logIndex": "0x9",
          "removed": false
        }
      ],
      "logsBloom": "0x00000000000000000000000000400000004000002000000000000000000000008000000000000000000000000000000000000000000000000000000000200000000004000000000000000008400000000000000040000000000000000000000000000000000000000000000000040000000000000000000000000010000000000000000000000000000000000020000000000000000000000000000000000000020020000000000000000000000000000000000000000000400000000000000000000002000000000000000000000000000000000000000000000000000000000010000000000000000000000000000000000000000000000000400000000000",
      "transactionHash": "0x327b024b1743a2ee7b5e04c63c813984d7e9e345176fe87c6c8d3e0e7a5fc28f",
      "transactionIndex": "0x3",
      "blockHash": "0xe36ad8112892bc33c924c125574b112c273cd363caa8800f20dfcdce8f1856f3",
      "blockNumber": "0xaed4fc",
      "gasUsed": "0x6f36",
      "effectiveGasPrice": "0x2541727e9",
      "from": "0x0990be6db8c785fbbf9ded8baec612a10cae814b",
      "to": "0x20c00000000000000000000000000000001116e8",
      "contractAddress": null,
      "feeToken": "0x20c00000000000000000000000000000001116e8",
      "feePayer": "0x0990be6db8c785fbbf9ded8baec612a10cae814b"
    },
    {
      "type": "0x2",
      "status": "0x1",
      "cumulativeGasUsed": "0xaa7f4",
      "logs": [
        {
          "address": "0x8ee7e00790c18f28b65bc4771f2a8273d88f2a54",
          "topics": [
            "0x603e191ccb1fad1c0004c9c1f37101358f84c3cf059031e9ec9b0c17cad34188",
            "0x0000000000000000000000000000000000000000000000000000000000009ce1"
          ],
          "data": "0x00000000000000000000000000000000000000000000000000000000001e848000000000000000000000000000000000000000000000000000000000000f4240",
          "blockHash": "0xfe36dab4b918accd14148ef78ccb32a105dd63733e178b1322e605ab4e80a128",
          "blockNumber": "0xaed500",
          "blockTimestamp": "0x697047b5",
          "transactionHash": "0x1136d3bd39e73d2d308d4283f52da95612bb300ca35b47a10a42da17ecdc05aa",
          "transactionIndex": "0x4",
          "logIndex": "0x8",
          "removed": false
        },
        {
          "address": "0x8ee7e00790c18f28b65bc4771f2a8273d88f2a54",
          "topics": [
            "0xd2ff7607bbad14e866630d67da40c9a9cedd964cce5ce4c3dc4176133954ef98"
          ],
          "data": "0x00000000000000000000000000000000000000000000000000000000001e848000000000000000000000000000000000000000000000000000000000000f4240",
          "blockHash": "0xfe36dab4b918accd14148ef78ccb32a105dd63733e178b1322e605ab4e80a128",
          "blockNumber": "0xaed500",
          "blockTimestamp": "0x697047b5",
          "transactionHash": "0x1136d3bd39e73d2d308d4283f52da95612bb300ca35b47a10a42da17ecdc05aa",
          "transactionIndex": "0x4",
          "logIndex": "0x9",
          "removed": false
        },
        {
          "address": "0x20c00000000000000000000000000000001116e8",
          "topics": [
            "0xddf252ad1be2c89b69c2b068fc378daa952ba7f163c4a11628f55a4df523b3ef",
            "0x0000000000000000000000000990be6db8c785fbbf9ded8baec612a10cae814b",
            "0x0000000000000000000000008ee7e00790c18f28b65bc4771f2a8273d88f2a54"
          ],
          "data": "0x00000000000000000000000000000000000000000000000000000000000f4240",
          "blockHash": "0xfe36dab4b918accd14148ef78ccb32a105dd63733e178b1322e605ab4e80a128",
          "blockNumber": "0xaed500",
          "blockTimestamp": "0x697047b5",
          "transactionHash": "0x1136d3bd39e73d2d308d4283f52da95612bb300ca35b47a10a42da17ecdc05aa",
          "transactionIndex": "0x4",
          "logIndex": "0xa",
          "removed": false
        },
        {
          "address": "0x20c00000000000000000000000000000001116e8",
          "topics": [
            "0xddf252ad1be2c89b69c2b068fc378daa952ba7f163c4a11628f55a4df523b3ef",
            "0x0000000000000000000000008ee7e00790c18f28b65bc4771f2a8273d88f2a54",
            "0x0000000000000000000000000000000000000000000000000000000000000000"
          ],
          "data": "0x00000000000000000000000000000000000000000000000000000000000f4240",
          "blockHash": "0xfe36dab4b918accd14148ef78ccb32a105dd63733e178b1322e605ab4e80a128",
          "blockNumber": "0xaed500",
          "blockTimestamp": "0x697047b5",
          "transactionHash": "0x1136d3bd39e73d2d308d4283f52da95612bb300ca35b47a10a42da17ecdc05aa",
          "transactionIndex": "0x4",
          "logIndex": "0xb",
          "removed": false
        },
        {
          "address": "0x20c00000000000000000000000000000001116e8",
          "topics": [
            "0xcc16f5dbb4873280815c1ee09dbd06736cffcc184412cf7a71a0fdb75d397ca5",
            "0x0000000000000000000000008ee7e00790c18f28b65bc4771f2a8273d88f2a54"
          ],
          "data": "0x00000000000000000000000000000000000000000000000000000000000f4240",
          "blockHash": "0xfe36dab4b918accd14148ef78ccb32a105dd63733e178b1322e605ab4e80a128",
          "blockNumber": "0xaed500",
          "blockTimestamp": "0x697047b5",
          "transactionHash": "0x1136d3bd39e73d2d308d4283f52da95612bb300ca35b47a10a42da17ecdc05aa",
          "transactionIndex": "0x4",
          "logIndex": "0xc",
          "removed": false
        },
        {
          "address": "0x20c00000000000000000000000000000001116e8",
          "topics": [
            "0xddf252ad1be2c89b69c2b068fc378daa952ba7f163c4a11628f55a4df523b3ef",
            "0x0000000000000000000000000990be6db8c785fbbf9ded8baec612a10cae814b",
            "0x0000000000000000000000008ee7e00790c18f28b65bc4771f2a8273d88f2a54"
          ],
          "data": "0x00000000000000000000000000000000000000000000000000000000001a6291",
          "blockHash": "0xfe36dab4b918accd14148ef78ccb32a105dd63733e178b1322e605ab4e80a128",
          "blockNumber": "0xaed500",
          "blockTimestamp": "0x697047b5",
          "transactionHash": "0x1136d3bd39e73d2d308d4283f52da95612bb300ca35b47a10a42da17ecdc05aa",
          "transactionIndex": "0x4",
          "logIndex": "0xd",
          "removed": false
        },
        {
          "address": "0x20c00000000000000000000000000000001116e8",
          "topics": [
            "0x8c5be1e5ebec7d5bd14f71427d1e84f3dd0314c0f7b2291e5b200ac8c7c3b925",
            "0x0000000000000000000000008ee7e00790c18f28b65bc4771f2a8273d88f2a54",
            "0x000000000000000000000000dec0000000000000000000000000000000000000"
          ],
          "data": "0x00000000000000000000000000000000000000000000000000000000001a6291",
          "blockHash": "0xfe36dab4b918accd14148ef78ccb32a105dd63733e178b1322e605ab4e80a128",
          "blockNumber": "0xaed500",
          "blockTimestamp": "0x697047b5",
          "transactionHash": "0x1136d3bd39e73d2d308d4283f52da95612bb300ca35b47a10a42da17ecdc05aa",
          "transactionIndex": "0x4",
          "logIndex": "0xe",
          "removed": false
        },
        {
          "address": "0xdec0000000000000000000000000000000000000",
          "topics": [
            "0x16c08f8f2c17b3c8879b3e3cf5efdbdcdfdbd0fcb3890f9d3086f470cd601ddd",
            "0x000000000000000000000000000000000000000000000000000000000065cc3c",
            "0x0000000000000000000000000990be6db8c785fbbf9ded8baec612a10cae814b",
            "0x0000000000000000000000008ee7e00790c18f28b65bc4771f2a8273d88f2a54"
          ],
          "data": "0x00000000000000000000000000000000000000000000000000000000001a62910000000000000000000000000000000000000000000000000000000000000001",
          "blockHash": "0xfe36dab4b918accd14148ef78ccb32a105dd63733e178b1322e605ab4e80a128",
          "blockNumber": "0xaed500",
          "blockTimestamp": "0x697047b5",
          "transactionHash": "0x1136d3bd39e73d2d308d4283f52da95612bb300ca35b47a10a42da17ecdc05aa",
          "transactionIndex": "0x4",
          "logIndex": "0xf",
          "removed": false
        },
        {
          "address": "0x20c00000000000000000000000000000001116e8",
          "topics": [
            "0xddf252ad1be2c89b69c2b068fc378daa952ba7f163c4a11628f55a4df523b3ef",
            "0x0000000000000000000000008ee7e00790c18f28b65bc4771f2a8273d88f2a54",
            "0x000000000000000000000000dec0000000000000000000000000000000000000"
          ],
          "data": "0x00000000000000000000000000000000000000000000000000000000001a6291",
          "blockHash": "0xfe36dab4b918accd14148ef78ccb32a105dd63733e178b1322e605ab4e80a128",
          "blockNumber": "0xaed500",
          "blockTimestamp": "0x697047b5",
          "transactionHash": "0x1136d3bd39e73d2d308d4283f52da95612bb300ca35b47a10a42da17ecdc05aa",
          "transactionIndex": "0x4",
          "logIndex": "0x10",
          "removed": false
        },
        {
          "address": "0x20c0000000000000000000000000000000000000",
          "topics": [
            "0xddf252ad1be2c89b69c2b068fc378daa952ba7f163c4a11628f55a4df523b3ef",
            "0x000000000000000000000000dec0000000000000000000000000000000000000",
            "0x0000000000000000000000008ee7e00790c18f28b65bc4771f2a8273d88f2a54"
          ],
          "data": "0x00000000000000000000000000000000000000000000000000000000001a6291",
          "blockHash": "0xfe36dab4b918accd14148ef78ccb32a105dd63733e178b1322e605ab4e80a128",
          "blockNumber": "0xaed500",
          "blockTimestamp": "0x697047b5",
          "transactionHash": "0x1136d3bd39e73d2d308d4283f52da95612bb300ca35b47a10a42da17ecdc05aa",
          "transactionIndex": "0x4",
          "logIndex": "0x11",
          "removed": false
        },
        {
          "address": "0x20c0000000000000000000000000000000000000",
          "topics": [
            "0xddf252ad1be2c89b69c2b068fc378daa952ba7f163c4a11628f55a4df523b3ef",
            "0x0000000000000000000000008ee7e00790c18f28b65bc4771f2a8273d88f2a54",
            "0x00000000000000000000000050c21fe63c28191ccdc167961992a63e14393565"
          ],
          "data": "0x00000000000000000000000000000000000000000000000000000000001a6291",
          "blockHash": "0xfe36dab4b918accd14148ef78ccb32a105dd63733e178b1322e605ab4e80a128",
          "blockNumber": "0xaed500",
          "blockTimestamp": "0x697047b5",
          "transactionHash": "0x1136d3bd39e73d2d308d4283f52da95612bb300ca35b47a10a42da17ecdc05aa",
          "transactionIndex": "0x4",
          "logIndex": "0x12",
          "removed": false
        },
        {
          "address": "0xb8cfaa12bf058492ed6f9c746d1dacf9356076bc",
          "topics": [
            "0x61ed099e74a97a1d7f8bb0952a88ca8b7b8ebd00c126ea04671f92a81213318a"
          ],
          "data": "0x000000000000000000000000ed0480d5ef6e1fca85ff715154329da30f2fea96000000000000000000000000000000000000000000000000000000000014878c",
          "blockHash": "0xfe36dab4b918accd14148ef78ccb32a105dd63733e178b1322e605ab4e80a128",
          "blockNumber": "0xaed500",
          "blockTimestamp": "0x697047b5",
          "transactionHash": "0x1136d3bd39e73d2d308d4283f52da95612bb300ca35b47a10a42da17ecdc05aa",
          "transactionIndex": "0x4",
          "logIndex": "0x13",
          "removed": false
        },
        {
          "address": "0xb8cfaa12bf058492ed6f9c746d1dacf9356076bc",
          "topics": [
            "0x07ea52d82345d6e838192107d8fd7123d9c2ec8e916cd0aad13fd2b60db24644"
          ],
          "data": "0x000000000000000000000000000000000000000000000000000000000000006000000000000000000000000000000000000000000000000000000000000000a000000000000000000000000000000000000000000000000000000000000000c00000000000000000000000000000000000000000000000000000000000000001000000000000000000000000489fd72653924e25de141e9b1d1c2591a115060200000000000000000000000000000000000000000000000000000000000000000000000000000000000000000000000000000000000000000000000000000001000000000000000000000000000000000000000000000000000000000005db05",
          "blockHash": "0xfe36dab4b918accd14148ef78ccb32a105dd63733e178b1322e605ab4e80a128",
          "blockNumber": "0xaed500",
          "blockTimestamp": "0x697047b5",
          "transactionHash": "0x1136d3bd39e73d2d308d4283f52da95612bb300ca35b47a10a42da17ecdc05aa",
          "transactionIndex": "0x4",
          "logIndex": "0x14",
          "removed": false
        },
        {
          "address": "0x50c21fe63c28191ccdc167961992a63e14393565",
          "topics": [
            "0x1ab700d4ced0c005b164c0f789fd09fcbb0156d4c2041b8a3bfbcd961cd1567f"
          ],
          "data": "0x00000000000000000000000000000000000000000000000000000000000000600000000000000000000000000000000000000000000000000000000000000120000000000000000000000000b8cfaa12bf058492ed6f9c746d1dacf9356076bc000000000000000000000000000000000000000000000000000000000000009901000000000000000300009df70000000000000000000000008ee7e00790c18f28b65bc4771f2a8273d88f2a5400009ce100000000000000000000000029a5134d3b22f47ad52e0a22a63247363e9f35c244bf900c112f170c7e3d11d0c83dd9418220863131f197c2c6813342d8cec91f0000000000000000000000000990be6db8c785fbbf9ded8baec612a10cae814b00000000000f424000000000000000000000000000000000000000000000000000000000000000000000000000001600030100110100000000000000000000000000030d4000000000000000000000",
          "blockHash": "0xfe36dab4b918accd14148ef78ccb32a105dd63733e178b1322e605ab4e80a128",
          "blockNumber": "0xaed500",
          "blockTimestamp": "0x697047b5",
          "transactionHash": "0x1136d3bd39e73d2d308d4283f52da95612bb300ca35b47a10a42da17ecdc05aa",
          "transactionIndex": "0x4",
          "logIndex": "0x15",
          "removed": false
        },
        {
          "address": "0x20c0000000000000000000000000000000000000",
          "topics": [
            "0xddf252ad1be2c89b69c2b068fc378daa952ba7f163c4a11628f55a4df523b3ef",
            "0x00000000000000000000000050c21fe63c28191ccdc167961992a63e14393565",
            "0x000000000000000000000000b8cfaa12bf058492ed6f9c746d1dacf9356076bc"
          ],
          "data": "0x00000000000000000000000000000000000000000000000000000000001a6291",
          "blockHash": "0xfe36dab4b918accd14148ef78ccb32a105dd63733e178b1322e605ab4e80a128",
          "blockNumber": "0xaed500",
          "blockTimestamp": "0x697047b5",
          "transactionHash": "0x1136d3bd39e73d2d308d4283f52da95612bb300ca35b47a10a42da17ecdc05aa",
          "transactionIndex": "0x4",
          "logIndex": "0x16",
          "removed": false
        },
        {
          "address": "0x8ee7e00790c18f28b65bc4771f2a8273d88f2a54",
          "topics": [
            "0x85496b760a4b7f8d66384b9df21b381f5d1b1e79f229a47aaf4c232edc2fe59a",
            "0x44bf900c112f170c7e3d11d0c83dd9418220863131f197c2c6813342d8cec91f",
            "0x0000000000000000000000000990be6db8c785fbbf9ded8baec612a10cae814b"
          ],
          "data": "0x0000000000000000000000000000000000000000000000000000000000009ce100000000000000000000000000000000000000000000000000000000000f424000000000000000000000000000000000000000000000000000000000000f4240",
          "blockHash": "0xfe36dab4b918accd14148ef78ccb32a105dd63733e178b1322e605ab4e80a128",
          "blockNumber": "0xaed500",
          "blockTimestamp": "0x697047b5",
          "transactionHash": "0x1136d3bd39e73d2d308d4283f52da95612bb300ca35b47a10a42da17ecdc05aa",
          "transactionIndex": "0x4",
          "logIndex": "0x17",
          "removed": false
        },
        {
          "address": "0x20c00000000000000000000000000000001116e8",
          "topics": [
            "0xddf252ad1be2c89b69c2b068fc378daa952ba7f163c4a11628f55a4df523b3ef",
            "0x0000000000000000000000000990be6db8c785fbbf9ded8baec612a10cae814b",
            "0x000000000000000000000000feec000000000000000000000000000000000000"
          ],
          "data": "0x000000000000000000000000000000000000000000000000000000000000134d",
          "blockHash": "0xfe36dab4b918accd14148ef78ccb32a105dd63733e178b1322e605ab4e80a128",
          "blockNumber": "0xaed500",
          "blockTimestamp": "0x697047b5",
          "transactionHash": "0x1136d3bd39e73d2d308d4283f52da95612bb300ca35b47a10a42da17ecdc05aa",
          "transactionIndex": "0x4",
          "logIndex": "0x18",
          "removed": false
        }
      ],
      "logsBloom": "0x00000000000000000400400000400000004000002000001010000000000000008000000020000000000000000100000000000000000000020200000000200000000006000000200008000008401004000000000040000000000000000400000080000000020000008000000000840810180000100000000000000050008030004000000000000800000000080020000000000000800100200000000000200000020020008000000000300000000000000000000000400000400c40000000000000000002000000000101200084000020000010000000000000000000100020000012040000000000000000000000002200800040008800000000400000000400",
      "transactionHash": "0x1136d3bd39e73d2d308d4283f52da95612bb300ca35b47a10a42da17ecdc05aa",
      "transactionIndex": "0x4",
      "blockHash": "0xfe36dab4b918accd14148ef78ccb32a105dd63733e178b1322e605ab4e80a128",
      "blockNumber": "0xaed500",
      "gasUsed": "0x789b8",
      "effectiveGasPrice": "0x2541727e9",
      "from": "0x0990be6db8c785fbbf9ded8baec612a10cae814b",
      "to": "0x8ee7e00790c18f28b65bc4771f2a8273d88f2a54",
      "contractAddress": null,
      "feeToken": "0x20c00000000000000000000000000000001116e8",
      "feePayer": "0x0990be6db8c785fbbf9ded8baec612a10cae814b"
    }
  ],
  "libraries": [],
  "pending": [],
  "returns": {},
  "timestamp": 1768966071263,
  "chain": 42429,
  "commit": "1006358"
}