{
  "transactions": [
    {
      "hash": "0x9ffbfaf10dac63c29085a2a26055e3c105780013cb04f8fab81812c6c1e27894",
      "transactionType": "CALL",
      "contractName": null,
      "contractAddress": "0xfeec000000000000000000000000000000000000",
      "function": "setUserToken(address)",
      "arguments": [
        "0x20C0000000000000000000000000000000000000"
      ],
      "transaction": {
        "from": "0x0990be6db8c785fbbf9ded8baec612a10cae814b",
        "to": "0xfeec000000000000000000000000000000000000",
        "value": "0x0",
        "input": "0xe789744400000000000000000000000020c0000000000000000000000000000000000000",
        "nonce": "0x1a",
        "chainId": "0xa5bd",
        "feeToken": null,
        "calls": [],
        "keyType": null,
        "keyData": null
      },
      "additionalContracts": [],
      "isFixedGasLimit": false
    },
    {
      "hash": "0x46814b3bbc1cc7325f3f4e076d365f15d2d330f8ae52c3f2487aff05c1a75629",
      "transactionType": "CALL",
      "contractName": null,
      "contractAddress": "0x20c0000000000000000000000000000000000000",
      "function": "approve(address,uint256)",
      "arguments": [
        "0x8Ee7E00790c18f28B65BC4771F2a8273D88f2A54",
        "1689481"
      ],
      "transaction": {
        "from": "0x0990be6db8c785fbbf9ded8baec612a10cae814b",
        "to": "0x20c0000000000000000000000000000000000000",
        "value": "0x0",
        "input": "0x095ea7b30000000000000000000000008ee7e00790c18f28b65bc4771f2a8273d88f2a54000000000000000000000000000000000000000000000000000000000019c789",
        "nonce": "0x1b",
        "chainId": "0xa5bd",
        "feeToken": null,
        "calls": [],
        "keyType": null,
        "keyData": null
      },
      "additionalContracts": [],
      "isFixedGasLimit": false
    },
    {
      "hash": "0x21ae1c7734288c3bd0a77812c709d2afd4bb9c6eb230224a2083ada5be1327af",
      "transactionType": "CALL",
      "contractName": null,
      "contractAddress": "0x20c00000000000000000000000000000001116e8",
      "function": "approve(address,uint256)",
      "arguments": [
        "0x8Ee7E00790c18f28B65BC4771F2a8273D88f2A54",
        "1000000"
      ],
      "transaction": {
        "from": "0x0990be6db8c785fbbf9ded8baec612a10cae814b",
        "to": "0x20c00000000000000000000000000000001116e8",
        "value": "0x0",
        "input": "0x095ea7b30000000000000000000000008ee7e00790c18f28b65bc4771f2a8273d88f2a5400000000000000000000000000000000000000000000000000000000000f4240",
        "nonce": "0x1c",
        "chainId": "0xa5bd",
        "feeToken": null,
        "calls": [],
        "keyType": null,
        "keyData": null
      },
      "additionalContracts": [],
      "isFixedGasLimit": false
    },
    {
      "hash": "0xd9750ed376a377330157d52e2cc983165b51abfc4c6916c1550b77f42043e274",
      "transactionType": "CALL",
      "contractName": null,
      "contractAddress": "0x8ee7e00790c18f28b65bc4771f2a8273d88f2a54",
      "function": "send((uint32,bytes32,uint256,uint256,bytes,bytes,bytes),(uint256,uint256),address)",
      "arguments": [
        "(40161, 0x0000000000000000000000001804c8ab1f12e6bbf3894d4083f33e07309d1f38, 1000000, 1000000, 0x, 0x, 0x)",
        "(1689481, 0)",
        "0x1804c8AB1F12E6bbf3894d4083f33e07309d1f38"
      ],
      "transaction": {
        "from": "0x0990be6db8c785fbbf9ded8baec612a10cae814b",
        "to": "0x8ee7e00790c18f28b65bc4771f2a8273d88f2a54",
        "value": "0x0",
        "input": "0xc7c7f5b30000000000000000000000000000000000000000000000000000000000000080000000000000000000000000000000000000000000000000000000000019c78900000000000000000000000000000000000000000000000000000000000000000000000000000000000000001804c8ab1f12e6bbf3894d4083f33e07309d1f380000000000000000000000000000000000000000000000000000000000009ce10000000000000000000000001804c8ab1f12e6bbf3894d4083f33e07309d1f3800000000000000000000000000000000000000000000000000000000000f424000000000000000000000000000000000000000000000000000000000000f424000000000000000000000000000000000000000000000000000000000000000e000000000000000000000000000000000000000000000000000000000000001000000000000000000000000000000000000000000000000000000000000000120000000000000000000000000000000000000000000000000000000000000000000000000000000000000000000000000000000000000000000000000000000000000000000000000000000000000000000000000000000000000000000000000",
        "nonce": "0x1d",
        "chainId": "0xa5bd",
        "feeToken": null,
        "calls": [],
        "keyType": null,
        "keyData": null
      },
      "additionalContracts": [],
      "isFixedGasLimit": false
    }
  ],
  "receipts": [
    {
      "type": "0x2",
      "status": "0x1",
      "cumulativeGasUsed": "0x86080",
      "logs": [
        {
          "address": "0xfeec000000000000000000000000000000000000",
          "topics": [
            "0xabc7758d4ca817ce0d125eb731121a1304c36077b791253be835b95472368856",
            "0x0000000000000000000000000990be6db8c785fbbf9ded8baec612a10cae814b",
            "0x00000000000000000000000020c0000000000000000000000000000000000000"
          ],
          "data": "0x",
          "blockHash": "0x2da636d724ed92f5979a87dccb9755ea9280733439d6c35e0564e92721178c9c",
          "blockNumber": "0xadb21b",
          "blockTimestamp": "0x696fb0d6",
          "transactionHash": "0x9ffbfaf10dac63c29085a2a26055e3c105780013cb04f8fab81812c6c1e27894",
          "transactionIndex": "0x8",
          "logIndex": "0x10",
          "removed": false
        },
        {
          "address": "0x20c0000000000000000000000000000000000000",
          "topics": [
            "0xddf252ad1be2c89b69c2b068fc378daa952ba7f163c4a11628f55a4df523b3ef",
            "0x0000000000000000000000000990be6db8c785fbbf9ded8baec612a10cae814b",
            "0x000000000000000000000000feec000000000000000000000000000000000000"
          ],
          "data": "0x0000000000000000000000000000000000000000000000000000000000000110",
          "blockHash": "0x2da636d724ed92f5979a87dccb9755ea9280733439d6c35e0564e92721178c9c",
          "blockNumber": "0xadb21b",
          "blockTimestamp": "0x696fb0d6",
          "transactionHash": "0x9ffbfaf10dac63c29085a2a26055e3c105780013cb04f8fab81812c6c1e27894",
          "transactionIndex": "0x8",
          "logIndex": "0x11",
          "removed": false
        }
      ],
      "logsBloom": "0x00000000000000000000000000000000000000002000000000000000000000000000040000000000000000000100000000000000000000000000000000000000000004000000000000000008400000000000000000000000000000000400000000000000000000000080000000000000000000000000000000000010100000000000000000000000000000000020000000000000800000000000000000000000000020000000000000000000000400000000000000000000000000040000000000000002000000000000000000000000000000000080000000000000000000000000000000000000000100000000000002000800000000000000400000000000",
      "transactionHash": "0x9ffbfaf10dac63c29085a2a26055e3c105780013cb04f8fab81812c6c1e27894",
      "transactionIndex": "0x8",
      "blockHash": "0x2da636d724ed92f5979a87dccb9755ea9280733439d6c35e0564e92721178c9c",
      "blockNumber": "0xadb21b",
      "gasUsed": "0x69f8",
      "effectiveGasPrice": "0x2541727e9",
      "from": "0x0990be6db8c785fbbf9ded8baec612a10cae814b",
      "to": "0xfeec000000000000000000000000000000000000",
      "contractAddress": null,
      "feeToken": "0x20c0000000000000000000000000000000000000",
      "feePayer": "0x0990be6db8c785fbbf9ded8baec612a10cae814b"
    },
    {
      "type": "0x2",
      "status": "0x1",
      "cumulativeGasUsed": "0xb4daa",
      "logs": [
        {
          "address": "0x20c0000000000000000000000000000000000000",
          "topics": [
            "0x8c5be1e5ebec7d5bd14f71427d1e84f3dd0314c0f7b2291e5b200ac8c7c3b925",
            "0x0000000000000000000000000990be6db8c785fbbf9ded8baec612a10cae814b",
            "0x0000000000000000000000008ee7e00790c18f28b65bc4771f2a8273d88f2a54"
          ],
          "data": "0x000000000000000000000000000000000000000000000000000000000019c789",
          "blockHash": "0x7f7ffa228845abf633aa9b1f311b1f90209bb6109b5a11ab85a35b3d1ee2f185",
          "blockNumber": "0xadb21f",
          "blockTimestamp": "0x696fb0d9",
          "transactionHash": "0x46814b3bbc1cc7325f3f4e076d365f15d2d330f8ae52c3f2487aff05c1a75629",
          "transactionIndex": "0xb",
          "logIndex": "0x19",
          "removed": false
        },
        {
          "address": "0x20c0000000000000000000000000000000000000",
          "topics": [
            "0xddf252ad1be2c89b69c2b068fc378daa952ba7f163c4a11628f55a4df523b3ef",
            "0x0000000000000000000000000990be6db8c785fbbf9ded8baec612a10cae814b",
            "0x000000000000000000000000feec000000000000000000000000000000000000"
          ],
          "data": "0x00000000000000000000000000000000000000000000000000000000000001c8",
          "blockHash": "0x7f7ffa228845abf633aa9b1f311b1f90209bb6109b5a11ab85a35b3d1ee2f185",
          "blockNumber": "0xadb21f",
          "blockTimestamp": "0x696fb0d9",
          "transactionHash": "0x46814b3bbc1cc7325f3f4e076d365f15d2d330f8ae52c3f2487aff05c1a75629",
          "transactionIndex": "0xb",
          "logIndex": "0x1a",
          "removed": false
        }
      ],
      "logsBloom": "0x00000000000000000000000000000000000000002000000000000000000000008000000000000000000000000100000000000000000000000000000000200000000004000000000000000008400000000000000040000000000000000400000000000000000000000000000000000000000000000000000000000010000000000000000000000000000000000020000000000000800000000000000000000000020020000000000000000000000000000000000000000000400000000000000000000002000000000000000000000000000000000000000000000000000000000010000000000000000000000000000000000000000000000000400000000000",
      "transactionHash": "0x46814b3bbc1cc7325f3f4e076d365f15d2d330f8ae52c3f2487aff05c1a75629",
      "transactionIndex": "0xb",
      "blockHash": "0x7f7ffa228845abf633aa9b1f311b1f90209bb6109b5a11ab85a35b3d1ee2f185",
      "blockNumber": "0xadb21f",
      "gasUsed": "0xb202",
      "effectiveGasPrice": "0x2541727e9",
      "from": "0x0990be6db8c785fbbf9ded8baec612a10cae814b",
      "to": "0x20c0000000000000000000000000000000000000",
      "contractAddress": null,
      "feeToken": "0x20c0000000000000000000000000000000000000",
      "feePayer": "0x0990be6db8c785fbbf9ded8baec612a10cae814b"
    },
    {
      "type": "0x2",
      "status": "0x1",
      "cumulativeGasUsed": "0x78c6a",
      "logs": [
        {
          "address": "0x20c00000000000000000000000000000001116e8",
          "topics": [
            "0x8c5be1e5ebec7d5bd14f71427d1e84f3dd0314c0f7b2291e5b200ac8c7c3b925",
            "0x0000000000000000000000000990be6db8c785fbbf9ded8baec612a10cae814b",
            "0x0000000000000000000000008ee7e00790c18f28b65bc4771f2a8273d88f2a54"
          ],
          "data": "0x00000000000000000000000000000000000000000000000000000000000f4240",
          "blockHash": "0x70b328b157e5933be00987f036ce3dedd7b0276e72c9e1db1289b55f07694c29",
          "blockNumber": "0xadb223",
          "blockTimestamp": "0x696fb0db",
          "transactionHash": "0x21ae1c7734288c3bd0a77812c709d2afd4bb9c6eb230224a2083ada5be1327af",
          "transactionIndex": "0xa",
          "logIndex": "0x13",
          "removed": false
        },
        {
          "address": "0x20c0000000000000000000000000000000000000",
          "topics": [
            "0xddf252ad1be2c89b69c2b068fc378daa952ba7f163c4a11628f55a4df523b3ef",
            "0x0000000000000000000000000990be6db8c785fbbf9ded8baec612a10cae814b",
            "0x000000000000000000000000feec000000000000000000000000000000000000"
          ],
          "data": "0x00000000000000000000000000000000000000000000000000000000000001c8",
          "blockHash": "0x70b328b157e5933be00987f036ce3dedd7b0276e72c9e1db1289b55f07694c29",
          "blockNumber": "0xadb223",
          "blockTimestamp": "0x696fb0db",
          "transactionHash": "0x21ae1c7734288c3bd0a77812c709d2afd4bb9c6eb230224a2083ada5be1327af",
          "transactionIndex": "0xa",
          "logIndex": "0x14",
          "removed": false
        }
      ],
      "logsBloom": "0x00000000000000000000000000400000004000002000000000000000000000008000000000000000000000000100000000000000000000000000000000200000000004000000000000000008400000000000000040000000000000000400000000000000000000000000000000040000000000000000000000000010000000000000000000000000000000000020000000000000800000000000000000000000020020000000000000000000000000000000000000000000400000000000000000000002000000000000000000000000000000000000000000000000000000000010000000000000000000000000000000000000000000000000400000000000",
      "transactionHash": "0x21ae1c7734288c3bd0a77812c709d2afd4bb9c6eb230224a2083ada5be1327af",
      "transactionIndex": "0xa",
      "blockHash": "0x70b328b157e5933be00987f036ce3dedd7b0276e72c9e1db1289b55f07694c29",
      "blockNumber": "0xadb223",
      "gasUsed": "0xb202",
      "effectiveGasPrice": "0x2541727e9",
      "from": "0x0990be6db8c785fbbf9ded8baec612a10cae814b",
      "to": "0x20c00000000000000000000000000000001116e8",
      "contractAddress": null,
      "feeToken": "0x20c0000000000000000000000000000000000000",
      "feePayer": "0x0990be6db8c785fbbf9ded8baec612a10cae814b"
    },
    {
      "type": "0x2",
      "status": "0x1",
      "cumulativeGasUsed": "0x18ae1b",
      "logs": [
        {
          "address": "0x8ee7e00790c18f28b65bc4771f2a8273d88f2a54",
          "topics": [
            "0x603e191ccb1fad1c0004c9c1f37101358f84c3cf059031e9ec9b0c17cad34188",
            "0x0000000000000000000000000000000000000000000000000000000000009ce1"
          ],
          "data": "0x000000000000000000000000000000000000000000000000000000000000000000000000000000000000000000000000000000000000000000000000000f4240",
          "blockHash": "0x2726d0d33d4c9ff4d20ba97ae33c59f43a77277afc91576c9c238c2fbefff901",
          "blockNumber": "0xadb227",
          "blockTimestamp": "0x696fb0dd",
          "transactionHash": "0xd9750ed376a377330157d52e2cc983165b51abfc4c6916c1550b77f42043e274",
          "transactionIndex": "0x11",
          "logIndex": "0x2a",
          "removed": false
        },
        {
          "address": "0x8ee7e00790c18f28b65bc4771f2a8273d88f2a54",
          "topics": [
            "0xd2ff7607bbad14e866630d67da40c9a9cedd964cce5ce4c3dc4176133954ef98"
          ],
          "data": "0x000000000000000000000000000000000000000000000000000000000000000000000000000000000000000000000000000000000000000000000000000f4240",
          "blockHash": "0x2726d0d33d4c9ff4d20ba97ae33c59f43a77277afc91576c9c238c2fbefff901",
          "blockNumber": "0xadb227",
          "blockTimestamp": "0x696fb0dd",
          "transactionHash": "0xd9750ed376a377330157d52e2cc983165b51abfc4c6916c1550b77f42043e274",
          "transactionIndex": "0x11",
          "logIndex": "0x2b",
          "removed": false
        },
        {
          "address": "0x20c00000000000000000000000000000001116e8",
          "topics": [
            "0xddf252ad1be2c89b69c2b068fc378daa952ba7f163c4a11628f55a4df523b3ef",
            "0x0000000000000000000000000990be6db8c785fbbf9ded8baec612a10cae814b",
            "0x0000000000000000000000008ee7e00790c18f28b65bc4771f2a8273d88f2a54"
          ],
          "data": "0x00000000000000000000000000000000000000000000000000000000000f4240",
          "blockHash": "0x2726d0d33d4c9ff4d20ba97ae33c59f43a77277afc91576c9c238c2fbefff901",
          "blockNumber": "0xadb227",
          "blockTimestamp": "0x696fb0dd",
          "transactionHash": "0xd9750ed376a377330157d52e2cc983165b51abfc4c6916c1550b77f42043e274",
          "transactionIndex": "0x11",
          "logIndex": "0x2c",
          "removed": false
        },
        {
          "address": "0x20c00000000000000000000000000000001116e8",
          "topics": [
            "0xddf252ad1be2c89b69c2b068fc378daa952ba7f163c4a11628f55a4df523b3ef",
            "0x0000000000000000000000008ee7e00790c18f28b65bc4771f2a8273d88f2a54",
            "0x0000000000000000000000000000000000000000000000000000000000000000"
          ],
          "data": "0x00000000000000000000000000000000000000000000000000000000000f4240",
          "blockHash": "0x2726d0d33d4c9ff4d20ba97ae33c59f43a77277afc91576c9c238c2fbefff901",
          "blockNumber": "0xadb227",
          "blockTimestamp": "0x696fb0dd",
          "transactionHash": "0xd9750ed376a377330157d52e2cc983165b51abfc4c6916c1550b77f42043e274",
          "transactionIndex": "0x11",
          "logIndex": "0x2d",
          "removed": false
        },
        {
          "address": "0x20c00000000000000000000000000000001116e8",
          "topics": [
            "0xcc16f5dbb4873280815c1ee09dbd06736cffcc184412cf7a71a0fdb75d397ca5",
            "0x0000000000000000000000008ee7e00790c18f28b65bc4771f2a8273d88f2a54"
          ],
          "data": "0x00000000000000000000000000000000000000000000000000000000000f4240",
          "blockHash": "0x2726d0d33d4c9ff4d20ba97ae33c59f43a77277afc91576c9c238c2fbefff901",
          "blockNumber": "0xadb227",
          "blockTimestamp": "0x696fb0dd",
          "transactionHash": "0xd9750ed376a377330157d52e2cc983165b51abfc4c6916c1550b77f42043e274",
          "transactionIndex": "0x11",
          "logIndex": "0x2e",
          "removed": false
        },
        {
          "address": "0x20c0000000000000000000000000000000000000",
          "topics": [
            "0xddf252ad1be2c89b69c2b068fc378daa952ba7f163c4a11628f55a4df523b3ef",
            "0x0000000000000000000000000990be6db8c785fbbf9ded8baec612a10cae814b",
            "0x00000000000000000000000050c21fe63c28191ccdc167961992a63e14393565"
          ],
          "data": "0x000000000000000000000000000000000000000000000000000000000019c789",
          "blockHash": "0x2726d0d33d4c9ff4d20ba97ae33c59f43a77277afc91576c9c238c2fbefff901",
          "blockNumber": "0xadb227",
          "blockTimestamp": "0x696fb0dd",
          "transactionHash": "0xd9750ed376a377330157d52e2cc983165b51abfc4c6916c1550b77f42043e274",
          "transactionIndex": "0x11",
          "logIndex": "0x2f",
          "removed": false
        },
        {
          "address": "0xb8cfaa12bf058492ed6f9c746d1dacf9356076bc",
          "topics": [
            "0x61ed099e74a97a1d7f8bb0952a88ca8b7b8ebd00c126ea04671f92a81213318a"
          ],
          "data": "0x000000000000000000000000ed0480d5ef6e1fca85ff715154329da30f2fea960000000000000000000000000000000000000000000000000000000000140eec",
          "blockHash": "0x2726d0d33d4c9ff4d20ba97ae33c59f43a77277afc91576c9c238c2fbefff901",
          "blockNumber": "0xadb227",
          "blockTimestamp": "0x696fb0dd",
          "transactionHash": "0xd9750ed376a377330157d52e2cc983165b51abfc4c6916c1550b77f42043e274",
          "transactionIndex": "0x11",
          "logIndex": "0x30",
          "removed": false
        },
        {
          "address": "0xb8cfaa12bf058492ed6f9c746d1dacf9356076bc",
          "topics": [
            "0x07ea52d82345d6e838192107d8fd7123d9c2ec8e916cd0aad13fd2b60db24644"
          ],
          "data": "0x000000000000000000000000000000000000000000000000000000000000006000000000000000000000000000000000000000000000000000000000000000a000000000000000000000000000000000000000000000000000000000000000c00000000000000000000000000000000000000000000000000000000000000001000000000000000000000000489fd72653924e25de141e9b1d1c2591a115060200000000000000000000000000000000000000000000000000000000000000000000000000000000000000000000000000000000000000000000000000000001000000000000000000000000000000000000000000000000000000000005b89d",
          "blockHash": "0x2726d0d33d4c9ff4d20ba97ae33c59f43a77277afc91576c9c238c2fbefff901",
          "blockNumber": "0xadb227",
          "blockTimestamp": "0x696fb0dd",
          "transactionHash": "0xd9750ed376a377330157d52e2cc983165b51abfc4c6916c1550b77f42043e274",
          "transactionIndex": "0x11",
          "logIndex": "0x31",
          "removed": false
        },
        {
          "address": "0x50c21fe63c28191ccdc167961992a63e14393565",
          "topics": [
            "0x1ab700d4ced0c005b164c0f789fd09fcbb0156d4c2041b8a3bfbcd961cd1567f"
          ],
          "data": "0x00000000000000000000000000000000000000000000000000000000000000600000000000000000000000000000000000000000000000000000000000000120000000000000000000000000b8cfaa12bf058492ed6f9c746d1dacf9356076bc000000000000000000000000000000000000000000000000000000000000009901000000000000000100009df70000000000000000000000008ee7e00790c18f28b65bc4771f2a8273d88f2a5400009ce100000000000000000000000029a5134d3b22f47ad52e0a22a63247363e9f35c2e52a09a2ab63410ec30d0fbcc5f0c6f37a0d62e9696e5bec649346a0eeddc2b30000000000000000000000001804c8ab1f12e6bbf3894d4083f33e07309d1f3800000000000f424000000000000000000000000000000000000000000000000000000000000000000000000000001600030100110100000000000000000000000000030d4000000000000000000000",
          "blockHash": "0x2726d0d33d4c9ff4d20ba97ae33c59f43a77277afc91576c9c238c2fbefff901",
          "blockNumber": "0xadb227",
          "blockTimestamp": "0x696fb0dd",
          "transactionHash": "0xd9750ed376a377330157d52e2cc983165b51abfc4c6916c1550b77f42043e274",
          "transactionIndex": "0x11",
          "logIndex": "0x32",
          "removed": false
        },
        {
          "address": "0x20c0000000000000000000000000000000000000",
          "topics": [
            "0xddf252ad1be2c89b69c2b068fc378daa952ba7f163c4a11628f55a4df523b3ef",
            "0x00000000000000000000000050c21fe63c28191ccdc167961992a63e14393565",
            "0x000000000000000000000000b8cfaa12bf058492ed6f9c746d1dacf9356076bc"
          ],
          "data": "0x000000000000000000000000000000000000000000000000000000000019c789",
          "blockHash": "0x2726d0d33d4c9ff4d20ba97ae33c59f43a77277afc91576c9c238c2fbefff901",
          "blockNumber": "0xadb227",
          "blockTimestamp": "0x696fb0dd",
          "transactionHash": "0xd9750ed376a377330157d52e2cc983165b51abfc4c6916c1550b77f42043e274",
          "transactionIndex": "0x11",
          "logIndex": "0x33",
          "removed": false
        },
        {
          "address": "0x8ee7e00790c18f28b65bc4771f2a8273d88f2a54",
          "topics": [
            "0x85496b760a4b7f8d66384b9df21b381f5d1b1e79f229a47aaf4c232edc2fe59a",
            "0xe52a09a2ab63410ec30d0fbcc5f0c6f37a0d62e9696e5bec649346a0eeddc2b3",
            "0x0000000000000000000000000990be6db8c785fbbf9ded8baec612a10cae814b"
          ],
          "data": "0x0000000000000000000000000000000000000000000000000000000000009ce100000000000000000000000000000000000000000000000000000000000f424000000000000000000000000000000000000000000000000000000000000f4240",
          "blockHash": "0x2726d0d33d4c9ff4d20ba97ae33c59f43a77277afc91576c9c238c2fbefff901",
          "blockNumber": "0xadb227",
          "blockTimestamp": "0x696fb0dd",
          "transactionHash": "0xd9750ed376a377330157d52e2cc983165b51abfc4c6916c1550b77f42043e274",
          "transactionIndex": "0x11",
          "logIndex": "0x34",
          "removed": false
        },
        {
          "address": "0x20c0000000000000000000000000000000000000",
          "topics": [
            "0xddf252ad1be2c89b69c2b068fc378daa952ba7f163c4a11628f55a4df523b3ef",
            "0x0000000000000000000000000990be6db8c785fbbf9ded8baec612a10cae814b",
            "0x000000000000000000000000feec000000000000000000000000000000000000"
          ],
          "data": "0x0000000000000000000000000000000000000000000000000000000000001030",
          "blockHash": "0x2726d0d33d4c9ff4d20ba97ae33c59f43a77277afc91576c9c238c2fbefff901",
          "blockNumber": "0xadb227",
          "blockTimestamp": "0x696fb0dd",
          "transactionHash": "0xd9750ed376a377330157d52e2cc983165b51abfc4c6916c1550b77f42043e274",
          "transactionIndex": "0x11",
          "logIndex": "0x35",
          "removed": false
        }
      ],
      "logsBloom": "0x00000000000000000400400000400000004000002010001010000000000000008000000020000000000000000100000000000000000000000000002000000000000006000000000008000008401004000000000040000000000000000400000080000000020000008000000000840810180000100000000000000050000000004000000000000800000000080020000000000000800000200000000000200000000020008000000100100000000000000000000000400000400440000000000000000002000000000000000080000020000000000000000000000000100020000002040000000000000000000000002200800040008800000000400000000000",
      "transactionHash": "0xd9750ed376a377330157d52e2cc983165b51abfc4c6916c1550b77f42043e274",
      "transactionIndex": "0x11",
      "blockHash": "0x2726d0d33d4c9ff4d20ba97ae33c59f43a77277afc91576c9c238c2fbefff901",
      "blockNumber": "0xadb227",
      "gasUsed": "0x65257",
      "effectiveGasPrice": "0x2541727e9",
      "from": "0x0990be6db8c785fbbf9ded8baec612a10cae814b",
      "to": "0x8ee7e00790c18f28b65bc4771f2a8273d88f2a54",
      "contractAddress": null,
      "feeToken": "0x20c0000000000000000000000000000000000000",
      "feePayer": "0x0990be6db8c785fbbf9ded8baec612a10cae814b"
    }
  ],
  "libraries": [],
  "pending": [],
  "returns": {},
  "timestamp": 1768927454978,
  "chain": 42429,
  "commit": "1006358"
}