{
  "transactions": [
    {
      "hash": null,
      "transactionType": "CALL",
      "contractName": null,
      "contractAddress": "0xfeec000000000000000000000000000000000000",
      "function": "setUserToken(address)",
      "arguments": [
        "0x20C00000000000000000000000000000001116e8"
      ],
      "transaction": {
        "from": "0x0990be6db8c785fbbf9ded8baec612a10cae814b",
        "to": "0xfeec000000000000000000000000000000000000",
        "gas": "0xac75",
        "value": "0x0",
        "input": "0xe789744400000000000000000000000020c00000000000000000000000000000001116e8",
        "nonce": "0x21",
        "chainId": "0xa5bd",
        "feeToken": null,
        "calls": [],
        "keyType": null,
        "keyData": null
      },
      "additionalContracts": [],
      "isFixedGasLimit": false
    },
    {
      "hash": null,
      "transactionType": "CALL",
      "contractName": null,
      "contractAddress": "0x20c00000000000000000000000000000001116e8",
      "function": "approve(address,uint256)",
      "arguments": [
        "0x8Ee7E00790c18f28B65BC4771F2a8273D88f2A54",
        "2000000"
      ],
      "transaction": {
        "from": "0x0990be6db8c785fbbf9ded8baec612a10cae814b",
        "to": "0x20c00000000000000000000000000000001116e8",
        "gas": "0x10455",
        "value": "0x0",
        "input": "0x095ea7b30000000000000000000000008ee7e00790c18f28b65bc4771f2a8273d88f2a5400000000000000000000000000000000000000000000000000000000001e8480",
        "nonce": "0x22",
        "chainId": "0xa5bd",
        "feeToken": null,
        "calls": [],
        "keyType": null,
        "keyData": null
      },
      "additionalContracts": [],
      "isFixedGasLimit": false
    }
  ],
  "receipts": [],
  "libraries": [],
  "pending": [],
  "returns": {},
  "timestamp": 1768964769992,
  "chain": 42429,
  "commit": "1006358"
}