{
  "transactions": [
    {
      "hash": "0x5a05b827c62976c0f307710a540f75a3d71ccf0b52e964aade18b59394ec4d09",
      "transactionType": "CALL",
      "contractName": null,
      "contractAddress": "0xfeec000000000000000000000000000000000000",
      "function": "setUserToken(address)",
      "arguments": [
        "0x20C0000000000000000000000000000000000000"
      ],
      "transaction": {
        "from": "0x45dce8e4f2dc005a5f28206a46cb034697eeda8e",
        "to": "0xfeec000000000000000000000000000000000000",
        "gas": "0x447af",
        "value": "0x0",
        "input": "0xe789744400000000000000000000000020c0000000000000000000000000000000000000",
        "nonce": "0x9c",
        "chainId": "0x1079",
        "feeToken": null,
        "calls": [],
        "keyType": null,
        "keyData": null
      },
      "additionalContracts": [],
      "isFixedGasLimit": false
    },
    {
      "hash": "0xaa75cbd52d386d4d037bee72d8dac8706b2d4f68719c169af7ae84a8b1c02653",
      "transactionType": "CALL",
      "contractName": null,
      "contractAddress": "0x20c0000000000000000000000000000000000000",
      "function": "approve(address,uint256)",
      "arguments": [
        "0x741F0d8Bde14140f62107FC60A0EE122B37D4630",
        "23106"
      ],
      "transaction": {
        "from": "0x45dce8e4f2dc005a5f28206a46cb034697eeda8e",
        "to": "0x20c0000000000000000000000000000000000000",
        "gas": "0x4424a",
        "value": "0x0",
        "input": "0x095ea7b3000000000000000000000000741f0d8bde14140f62107fc60a0ee122b37d46300000000000000000000000000000000000000000000000000000000000005a42",
        "nonce": "0x9d",
        "chainId": "0x1079",
        "feeToken": null,
        "calls": [],
        "keyType": null,
        "keyData": null
      },
      "additionalContracts": [],
      "isFixedGasLimit": false
    },
    {
      "hash": "0x82b8f29b1744a8a8e2438d6b20253c0e0cb1ec98139d463d2fdb033295d0c39c",
      "transactionType": "CALL",
      "contractName": null,
      "contractAddress": "0x741f0d8bde14140f62107fc60a0ee122b37d4630",
      "function": "batchBridgeWithTIP20FeeFromWallet((uint32,bytes32,uint256,uint256,bytes,bytes,bytes)[],address[],address[])",
      "arguments": [
        "[(30255, 0x000000000000000000000000741f0d8bde14140f62107fc60a0ee122b37d4630, 250000000000000000, 0, 0x, 0x, 0x)]",
        "[0x57558Cb8d6005DE0BAe8a2789d5EfaaE52dba5a8]",
        "[0x741F0d8Bde14140f62107FC60A0EE122B37D4630]"
      ],
      "transaction": {
        "from": "0x45dce8e4f2dc005a5f28206a46cb034697eeda8e",
        "to": "0x741f0d8bde14140f62107fc60a0ee122b37d4630",
        "gas": "0xaecef",
        "value": "0x0",
        "input": "0xddfe224e000000000000000000000000000000000000000000000000000000000000006000000000000000000000000000000000000000000000000000000000000001e0000000000000000000000000000000000000000000000000000000000000022000000000000000000000000000000000000000000000000000000000000000010000000000000000000000000000000000000000000000000000000000000020000000000000000000000000000000000000000000000000000000000000762f000000000000000000000000741f0d8bde14140f62107fc60a0ee122b37d463000000000000000000000000000000000000000000000000003782dace9d90000000000000000000000000000000000000000000000000000000000000000000000000000000000000000000000000000000000000000000000000000000000e000000000000000000000000000000000000000000000000000000000000001000000000000000000000000000000000000000000000000000000000000000120000000000000000000000000000000000000000000000000000000000000000000000000000000000000000000000000000000000000000000000000000000000000000000000000000000000000000000000000000000000000000000000000000000000000000000000000000000000000000000000000000000000000000100000000000000000000000057558cb8d6005de0bae8a2789d5efaae52dba5a80000000000000000000000000000000000000000000000000000000000000001000000000000000000000000741f0d8bde14140f62107fc60a0ee122b37d4630",
        "nonce": "0x9e",
        "chainId": "0x1079",
        "feeToken": null,
        "calls": [],
        "keyType": null,
        "keyData": null
      },
      "additionalContracts": [],
      "isFixedGasLimit": false
    }
  ],
  "receipts": [
    {
      "type": "0x2",
      "status": "0x1",
      "cumulativeGasUsed": "0x432b8",
      "logs": [
        {
          "address": "0xfeec000000000000000000000000000000000000",
          "topics": [
            "0xabc7758d4ca817ce0d125eb731121a1304c36077b791253be835b95472368856",
            "0x00000000000000000000000045dce8e4f2dc005a5f28206a46cb034697eeda8e",
            "0x00000000000000000000000020c0000000000000000000000000000000000000"
          ],
          "data": "0x",
          "blockHash": "0xa84c42207afb025e9598d9aee3f4a69b6e3bc9b6820c49e98140428114d5df03",
          "blockNumber": "0x56f2c8",
          "blockTimestamp": "0x6997dbfe",
          "transactionHash": "0x5a05b827c62976c0f307710a540f75a3d71ccf0b52e964aade18b59394ec4d09",
          "transactionIndex": "0x0",
          "logIndex": "0x0",
          "removed": false
        },
        {
          "address": "0x20c0000000000000000000000000000000000000",
          "topics": [
            "0xddf252ad1be2c89b69c2b068fc378daa952ba7f163c4a11628f55a4df523b3ef",
            "0x00000000000000000000000045dce8e4f2dc005a5f28206a46cb034697eeda8e",
            "0x000000000000000000000000feec000000000000000000000000000000000000"
          ],
          "data": "0x000000000000000000000000000000000000000000000000000000000000157f",
          "blockHash": "0xa84c42207afb025e9598d9aee3f4a69b6e3bc9b6820c49e98140428114d5df03",
          "blockNumber": "0x56f2c8",
          "blockTimestamp": "0x6997dbfe",
          "transactionHash": "0x5a05b827c62976c0f307710a540f75a3d71ccf0b52e964aade18b59394ec4d09",
          "transactionIndex": "0x0",
          "logIndex": "0x1",
          "removed": false
        }
      ],
      "logsBloom": "0x00000000000000000000000200000000000000000000000000000000000000000000040000000000000000000100000000000000000000000000000000000000000004000000000000000008000000000000000000000000000000000400000000000000000000000080000000000000000000000000000000000010100000000000000000000000000000000020000000000000800000000000000000000000000020000000000000000000000400000000000000000000000000040000000000000002000000000000000000000000001000000080000000000000000000000000000000000000000100000000800002000800000000000000000000000000",
      "transactionHash": "0x5a05b827c62976c0f307710a540f75a3d71ccf0b52e964aade18b59394ec4d09",
      "transactionIndex": "0x0",
      "blockHash": "0xa84c42207afb025e9598d9aee3f4a69b6e3bc9b6820c49e98140428114d5df03",
      "blockNumber": "0x56f2c8",
      "gasUsed": "0x432b8",
      "effectiveGasPrice": "0x4a817c801",
      "from": "0x45dce8e4f2dc005a5f28206a46cb034697eeda8e",
      "to": "0xfeec000000000000000000000000000000000000",
      "contractAddress": null,
      "feeToken": "0x20c0000000000000000000000000000000000000",
      "feePayer": "0x45dce8e4f2dc005a5f28206a46cb034697eeda8e"
    },
    {
      "type": "0x2",
      "status": "0x1",
      "cumulativeGasUsed": "0x4352e",
      "logs": [
        {
          "address": "0x20c0000000000000000000000000000000000000",
          "topics": [
            "0x8c5be1e5ebec7d5bd14f71427d1e84f3dd0314c0f7b2291e5b200ac8c7c3b925",
            "0x00000000000000000000000045dce8e4f2dc005a5f28206a46cb034697eeda8e",
            "0x000000000000000000000000741f0d8bde14140f62107fc60a0ee122b37d4630"
          ],
          "data": "0x0000000000000000000000000000000000000000000000000000000000005a42",
          "blockHash": "0xd83c6ffdb0a18e3d616ba97607aa8794846fabb8a19d4d9672db2ac85601d1a5",
          "blockNumber": "0x56f2cb",
          "blockTimestamp": "0x6997dc00",
          "transactionHash": "0xaa75cbd52d386d4d037bee72d8dac8706b2d4f68719c169af7ae84a8b1c02653",
          "transactionIndex": "0x0",
          "logIndex": "0x0",
          "removed": false
        },
        {
          "address": "0x20c0000000000000000000000000000000000000",
          "topics": [
            "0xddf252ad1be2c89b69c2b068fc378daa952ba7f163c4a11628f55a4df523b3ef",
            "0x00000000000000000000000045dce8e4f2dc005a5f28206a46cb034697eeda8e",
            "0x000000000000000000000000feec000000000000000000000000000000000000"
          ],
          "data": "0x000000000000000000000000000000000000000000000000000000000000158c",
          "blockHash": "0xd83c6ffdb0a18e3d616ba97607aa8794846fabb8a19d4d9672db2ac85601d1a5",
          "blockNumber": "0x56f2cb",
          "blockTimestamp": "0x6997dc00",
          "transactionHash": "0xaa75cbd52d386d4d037bee72d8dac8706b2d4f68719c169af7ae84a8b1c02653",
          "transactionIndex": "0x0",
          "logIndex": "0x1",
          "removed": false
        }
      ],
      "logsBloom": "0x00000000000000000000000200000040000000000000000000000000000000000000000000000000000000000100000000000100000000000000000000200000000004000000000000000008000000000000000000000000000000000400000000000000000000000000000000000000000000000000000000000010000000000000000000000000000000000020000000000000800000000000000000000000020020000000001000000000000000000000000000000000000000000000000000000002000000000000000000000000001000000000000000000000000000000010000000000000000000000000800000000000000000000000000000000000",
      "transactionHash": "0xaa75cbd52d386d4d037bee72d8dac8706b2d4f68719c169af7ae84a8b1c02653",
      "transactionIndex": "0x0",
      "blockHash": "0xd83c6ffdb0a18e3d616ba97607aa8794846fabb8a19d4d9672db2ac85601d1a5",
      "blockNumber": "0x56f2cb",
      "gasUsed": "0x4352e",
      "effectiveGasPrice": "0x4a817c801",
      "from": "0x45dce8e4f2dc005a5f28206a46cb034697eeda8e",
      "to": "0x20c0000000000000000000000000000000000000",
      "contractAddress": null,
      "feeToken": "0x20c0000000000000000000000000000000000000",
      "feePayer": "0x45dce8e4f2dc005a5f28206a46cb034697eeda8e"
    },
    {
      "type": "0x2",
      "status": "0x1",
      "cumulativeGasUsed": "0x21f8b6",
      "logs": [
        {
          "address": "0xfeec000000000000000000000000000000000000",
          "topics": [
            "0xabc7758d4ca817ce0d125eb731121a1304c36077b791253be835b95472368856",
            "0x000000000000000000000000741f0d8bde14140f62107fc60a0ee122b37d4630",
            "0x00000000000000000000000020c0000000000000000000000000000000000000"
          ],
          "data": "0x",
          "blockHash": "0xa4fe578e762deffce9b716a5a5e12b7444b70e675feec8715fe50595cdd5ddc7",
          "blockNumber": "0x56f2cf",
          "blockTimestamp": "0x6997dc02",
          "transactionHash": "0x82b8f29b1744a8a8e2438d6b20253c0e0cb1ec98139d463d2fdb033295d0c39c",
          "transactionIndex": "0x0",
          "logIndex": "0x0",
          "removed": false
        },
        {
          "address": "0x20c0000000000000000000000000000000000000",
          "topics": [
            "0xddf252ad1be2c89b69c2b068fc378daa952ba7f163c4a11628f55a4df523b3ef",
            "0x00000000000000000000000045dce8e4f2dc005a5f28206a46cb034697eeda8e",
            "0x000000000000000000000000741f0d8bde14140f62107fc60a0ee122b37d4630"
          ],
          "data": "0x0000000000000000000000000000000000000000000000000000000000005a42",
          "blockHash": "0xa4fe578e762deffce9b716a5a5e12b7444b70e675feec8715fe50595cdd5ddc7",
          "blockNumber": "0x56f2cf",
          "blockTimestamp": "0x6997dc02",
          "transactionHash": "0x82b8f29b1744a8a8e2438d6b20253c0e0cb1ec98139d463d2fdb033295d0c39c",
          "transactionIndex": "0x0",
          "logIndex": "0x1",
          "removed": false
        },
        {
          "address": "0x20c0000000000000000000000000000000000000",
          "topics": [
            "0x8c5be1e5ebec7d5bd14f71427d1e84f3dd0314c0f7b2291e5b200ac8c7c3b925",
            "0x000000000000000000000000741f0d8bde14140f62107fc60a0ee122b37d4630",
            "0x00000000000000000000000057558cb8d6005de0bae8a2789d5efaae52dba5a8"
          ],
          "data": "0x0000000000000000000000000000000000000000000000000000000000005a42",
          "blockHash": "0xa4fe578e762deffce9b716a5a5e12b7444b70e675feec8715fe50595cdd5ddc7",
          "blockNumber": "0x56f2cf",
          "blockTimestamp": "0x6997dc02",
          "transactionHash": "0x82b8f29b1744a8a8e2438d6b20253c0e0cb1ec98139d463d2fdb033295d0c39c",
          "transactionIndex": "0x0",
          "logIndex": "0x2",
          "removed": false
        },
        {
          "address": "0x57558cb8d6005de0bae8a2789d5efaae52dba5a8",
          "topics": [
            "0xddf252ad1be2c89b69c2b068fc378daa952ba7f163c4a11628f55a4df523b3ef",
            "0x000000000000000000000000741f0d8bde14140f62107fc60a0ee122b37d4630",
            "0x0000000000000000000000000000000000000000000000000000000000000000"
          ],
          "data": "0x00000000000000000000000000000000000000000000000003782dace9d90000",
          "blockHash": "0xa4fe578e762deffce9b716a5a5e12b7444b70e675feec8715fe50595cdd5ddc7",
          "blockNumber": "0x56f2cf",
          "blockTimestamp": "0x6997dc02",
          "transactionHash": "0x82b8f29b1744a8a8e2438d6b20253c0e0cb1ec98139d463d2fdb033295d0c39c",
          "transactionIndex": "0x0",
          "logIndex": "0x3",
          "removed": false
        },
        {
          "address": "0x20c0000000000000000000000000000000000000",
          "topics": [
            "0xddf252ad1be2c89b69c2b068fc378daa952ba7f163c4a11628f55a4df523b3ef",
            "0x000000000000000000000000741f0d8bde14140f62107fc60a0ee122b37d4630",
            "0x00000000000000000000000057558cb8d6005de0bae8a2789d5efaae52dba5a8"
          ],
          "data": "0x0000000000000000000000000000000000000000000000000000000000005a42",
          "blockHash": "0xa4fe578e762deffce9b716a5a5e12b7444b70e675feec8715fe50595cdd5ddc7",
          "blockNumber": "0x56f2cf",
          "blockTimestamp": "0x6997dc02",
          "transactionHash": "0x82b8f29b1744a8a8e2438d6b20253c0e0cb1ec98139d463d2fdb033295d0c39c",
          "transactionIndex": "0x0",
          "logIndex": "0x4",
          "removed": false
        },
        {
          "address": "0x20c0000000000000000000000000000000000000",
          "topics": [
            "0x8c5be1e5ebec7d5bd14f71427d1e84f3dd0314c0f7b2291e5b200ac8c7c3b925",
            "0x00000000000000000000000057558cb8d6005de0bae8a2789d5efaae52dba5a8",
            "0x0000000000000000000000000ceb237e109ee22374a567c6b09f373c73fa4cbb"
          ],
          "data": "0x0000000000000000000000000000000000000000000000000000000000005a42",
          "blockHash": "0xa4fe578e762deffce9b716a5a5e12b7444b70e675feec8715fe50595cdd5ddc7",
          "blockNumber": "0x56f2cf",
          "blockTimestamp": "0x6997dc02",
          "transactionHash": "0x82b8f29b1744a8a8e2438d6b20253c0e0cb1ec98139d463d2fdb033295d0c39c",
          "transactionIndex": "0x0",
          "logIndex": "0x5",
          "removed": false
        },
        {
          "address": "0x20c0000000000000000000000000000000000000",
          "topics": [
            "0xddf252ad1be2c89b69c2b068fc378daa952ba7f163c4a11628f55a4df523b3ef",
            "0x00000000000000000000000057558cb8d6005de0bae8a2789d5efaae52dba5a8",
            "0x0000000000000000000000000ceb237e109ee22374a567c6b09f373c73fa4cbb"
          ],
          "data": "0x0000000000000000000000000000000000000000000000000000000000005a42",
          "blockHash": "0xa4fe578e762deffce9b716a5a5e12b7444b70e675feec8715fe50595cdd5ddc7",
          "blockNumber": "0x56f2cf",
          "blockTimestamp": "0x6997dc02",
          "transactionHash": "0x82b8f29b1744a8a8e2438d6b20253c0e0cb1ec98139d463d2fdb033295d0c39c",
          "transactionIndex": "0x0",
          "logIndex": "0x6",
          "removed": false
        },
        {
          "address": "0x0ceb237e109ee22374a567c6b09f373c73fa4cbb",
          "topics": [
            "0xddf252ad1be2c89b69c2b068fc378daa952ba7f163c4a11628f55a4df523b3ef",
            "0x0000000000000000000000000000000000000000000000000000000000000000",
            "0x00000000000000000000000020bb7c2e2f4e5ca2b4c57060d1ae2615245dcc9c"
          ],
          "data": "0x0000000000000000000000000000000000000000000000000000000000005a42",
          "blockHash": "0xa4fe578e762deffce9b716a5a5e12b7444b70e675feec8715fe50595cdd5ddc7",
          "blockNumber": "0x56f2cf",
          "blockTimestamp": "0x6997dc02",
          "transactionHash": "0x82b8f29b1744a8a8e2438d6b20253c0e0cb1ec98139d463d2fdb033295d0c39c",
          "transactionIndex": "0x0",
          "logIndex": "0x7",
          "removed": false
        },
        {
          "address": "0x0ceb237e109ee22374a567c6b09f373c73fa4cbb",
          "topics": [
            "0x8ed59ebee7004468a5666f7566d43343b5917817e35765800064b665b66d070f",
            "0x00000000000000000000000020c0000000000000000000000000000000000000",
            "0x00000000000000000000000057558cb8d6005de0bae8a2789d5efaae52dba5a8",
            "0x00000000000000000000000020bb7c2e2f4e5ca2b4c57060d1ae2615245dcc9c"
          ],
          "data": "0x0000000000000000000000000000000000000000000000000000000000005a42",
          "blockHash": "0xa4fe578e762deffce9b716a5a5e12b7444b70e675feec8715fe50595cdd5ddc7",
          "blockNumber": "0x56f2cf",
          "blockTimestamp": "0x6997dc02",
          "transactionHash": "0x82b8f29b1744a8a8e2438d6b20253c0e0cb1ec98139d463d2fdb033295d0c39c",
          "transactionIndex": "0x0",
          "logIndex": "0x8",
          "removed": false
        },
        {
          "address": "0x572863d9247e52026e0892d9cd2e519b41edb73c",
          "topics": [
            "0x61ed099e74a97a1d7f8bb0952a88ca8b7b8ebd00c126ea04671f92a81213318a"
          ],
          "data": "0x000000000000000000000000f851abca1d0fd1df8eaba6de466a102996b7d7b20000000000000000000000000000000000000000000000000000000000004f20",
          "blockHash": "0xa4fe578e762deffce9b716a5a5e12b7444b70e675feec8715fe50595cdd5ddc7",
          "blockNumber": "0x56f2cf",
          "blockTimestamp": "0x6997dc02",
          "transactionHash": "0x82b8f29b1744a8a8e2438d6b20253c0e0cb1ec98139d463d2fdb033295d0c39c",
          "transactionIndex": "0x0",
          "logIndex": "0x9",
          "removed": false
        },
        {
          "address": "0x572863d9247e52026e0892d9cd2e519b41edb73c",
          "topics": [
            "0x07ea52d82345d6e838192107d8fd7123d9c2ec8e916cd0aad13fd2b60db24644"
          ],
          "data": "0x000000000000000000000000000000000000000000000000000000000000006000000000000000000000000000000000000000000000000000000000000000e00000000000000000000000000000000000000000000000000000000000000100000000000000000000000000000000000000000000000000000000000000000300000000000000000000000076faff60799021b301b45dc1bbede53f261f996100000000000000000000000097faa2a9c9bf8b4082b175a5b894ce6bac6697a8000000000000000000000000f5771acc42f3321d7193748fa0f656470bf737f20000000000000000000000000000000000000000000000000000000000000000000000000000000000000000000000000000000000000000000000000000000300000000000000000000000000000000000000000000000000000000000003b600000000000000000000000000000000000000000000000000000000000003b600000000000000000000000000000000000000000000000000000000000003b6",
          "blockHash": "0xa4fe578e762deffce9b716a5a5e12b7444b70e675feec8715fe50595cdd5ddc7",
          "blockNumber": "0x56f2cf",
          "blockTimestamp": "0x6997dc02",
          "transactionHash": "0x82b8f29b1744a8a8e2438d6b20253c0e0cb1ec98139d463d2fdb033295d0c39c",
          "transactionIndex": "0x0",
          "logIndex": "0xa",
          "removed": false
        },
        {
          "address": "0x20bb7c2e2f4e5ca2b4c57060d1ae2615245dcc9c",
          "topics": [
            "0x1ab700d4ced0c005b164c0f789fd09fcbb0156d4c2041b8a3bfbcd961cd1567f"
          ],
          "data": "0x00000000000000000000000000000000000000000000000000000000000000600000000000000000000000000000000000000000000000000000000000000120000000000000000000000000572863d9247e52026e0892d9cd2e519b41edb73c0000000000000000000000000000000000000000000000000000000000000099010000000000000001000076ca00000000000000000000000057558cb8d6005de0bae8a2789d5efaae52dba5a80000762f00000000000000000000000057558cb8d6005de0bae8a2789d5efaae52dba5a8933aa3ee16b6d69ae319dc46bf6676ffc18e011f26036818ce5291e8bda85a79000000000000000000000000741f0d8bde14140f62107fc60a0ee122b37d4630000000000003d09000000000000000000000000000000000000000000000000000000000000000000000000000001600030100110100000000000000000000000000030d4000000000000000000000",
          "blockHash": "0xa4fe578e762deffce9b716a5a5e12b7444b70e675feec8715fe50595cdd5ddc7",
          "blockNumber": "0x56f2cf",
          "blockTimestamp": "0x6997dc02",
          "transactionHash": "0x82b8f29b1744a8a8e2438d6b20253c0e0cb1ec98139d463d2fdb033295d0c39c",
          "transactionIndex": "0x0",
          "logIndex": "0xb",
          "removed": false
        },
        {
          "address": "0x0ceb237e109ee22374a567c6b09f373c73fa4cbb",
          "topics": [
            "0xddf252ad1be2c89b69c2b068fc378daa952ba7f163c4a11628f55a4df523b3ef",
            "0x00000000000000000000000020bb7c2e2f4e5ca2b4c57060d1ae2615245dcc9c",
            "0x000000000000000000000000572863d9247e52026e0892d9cd2e519b41edb73c"
          ],
          "data": "0x0000000000000000000000000000000000000000000000000000000000005a42",
          "blockHash": "0xa4fe578e762deffce9b716a5a5e12b7444b70e675feec8715fe50595cdd5ddc7",
          "blockNumber": "0x56f2cf",
          "blockTimestamp": "0x6997dc02",
          "transactionHash": "0x82b8f29b1744a8a8e2438d6b20253c0e0cb1ec98139d463d2fdb033295d0c39c",
          "transactionIndex": "0x0",
          "logIndex": "0xc",
          "removed": false
        },
        {
          "address": "0x57558cb8d6005de0bae8a2789d5efaae52dba5a8",
          "topics": [
            "0x85496b760a4b7f8d66384b9df21b381f5d1b1e79f229a47aaf4c232edc2fe59a",
            "0x933aa3ee16b6d69ae319dc46bf6676ffc18e011f26036818ce5291e8bda85a79",
            "0x000000000000000000000000741f0d8bde14140f62107fc60a0ee122b37d4630"
          ],
          "data": "0x000000000000000000000000000000000000000000000000000000000000762f00000000000000000000000000000000000000000000000003782dace9d9000000000000000000000000000000000000000000000000000003782dace9d90000",
          "blockHash": "0xa4fe578e762deffce9b716a5a5e12b7444b70e675feec8715fe50595cdd5ddc7",
          "blockNumber": "0x56f2cf",
          "blockTimestamp": "0x6997dc02",
          "transactionHash": "0x82b8f29b1744a8a8e2438d6b20253c0e0cb1ec98139d463d2fdb033295d0c39c",
          "transactionIndex": "0x0",
          "logIndex": "0xd",
          "removed": false
        },
        {
          "address": "0x20c0000000000000000000000000000000000000",
          "topics": [
            "0xddf252ad1be2c89b69c2b068fc378daa952ba7f163c4a11628f55a4df523b3ef",
            "0x00000000000000000000000045dce8e4f2dc005a5f28206a46cb034697eeda8e",
            "0x000000000000000000000000feec000000000000000000000000000000000000"
          ],
          "data": "0x000000000000000000000000000000000000000000000000000000000000adf0",
          "blockHash": "0xa4fe578e762deffce9b716a5a5e12b7444b70e675feec8715fe50595cdd5ddc7",
          "blockNumber": "0x56f2cf",
          "blockTimestamp": "0x6997dc02",
          "transactionHash": "0x82b8f29b1744a8a8e2438d6b20253c0e0cb1ec98139d463d2fdb033295d0c39c",
          "transactionIndex": "0x0",
          "logIndex": "0xe",
          "removed": false
        }
      ],
      "logsBloom": "0x0000000000000000000100020004004000000400000100000200000000000000000004000000000000000000010000040000010000000000000000000020000000000600000000000000000800000000000000000000000000000000040000000000000002000400c08004000000080000000400000000000000001011000000000000000000000000000008002000080000008080000000000000000010000002002000a080801400900000000400100000000000400000000440040000000000000002000008000000000080080000001000000080000000000000010021020010040000041000080100000000802002000800008000000001000000000000",
      "transactionHash": "0x82b8f29b1744a8a8e2438d6b20253c0e0cb1ec98139d463d2fdb033295d0c39c",
      "transactionIndex": "0x0",
      "blockHash": "0xa4fe578e762deffce9b716a5a5e12b7444b70e675feec8715fe50595cdd5ddc7",
      "blockNumber": "0x56f2cf",
      "gasUsed": "0x21f8b6",
      "effectiveGasPrice": "0x4a817c801",
      "from": "0x45dce8e4f2dc005a5f28206a46cb034697eeda8e",
      "to": "0x741f0d8bde14140f62107fc60a0ee122b37d4630",
      "contractAddress": null,
      "feeToken": "0x20c0000000000000000000000000000000000000",
      "feePayer": "0x45dce8e4f2dc005a5f28206a46cb034697eeda8e"
    }
  ],
  "libraries": [],
  "pending": [],
  "returns": {},
  "timestamp": 1771559940489,
  "chain": 4217,
  "commit": "2d3586e"
}